:100000000C94AA020C94D2020C94D2020C94D20248
:100010000C94D2020C94D2020C94D2020C94D20210
:100020000C94D2020C9480090C94D2020C94D2024B
:100030000C94D2020C94C6080C94D2020C94D202F6
:100040000C94180C0C94D2020C94DA0A0C940C0B3D
:100050000C94D2020C94D2020C94D2020C94D202D0
:100060000C94D2020C94D2024578616D706C653AA2
:1000700020746578743D6578616D706C6520746579
:10008000787400636F6D6D616E6420616E642076BC
:10009000616C75652068617320746F2062652073E0
:1000A000657061726174656420627920616E20659B
:1000B0007175616C207369676E006B6E6F776E206F
:1000C000636F6D6D616E6473206172653A20746553
:1000D00078742C20696E74656E7369747920616E12
:1000E0006420737065656400636F6D6D616E64207C
:1000F000646F6573206E6F74206D61746368007344
:10010000706163654265747765656E43686172739B
:100110002072616E6765204D41584D4154524958D7
:100120005F53504143455F4245545745454E5F43F9
:10013000484152535F4D494E5F56414C5545202E24
:100140002E2E204D41584D41545249585F53504135
:1001500043455F4245545745454E5F4348415253DE
:100160005F4D41585F56414C55450076616C756551
:10017000206F7574206F662072616E676500737002
:100180006565642072616E6765204D41584D41542C
:100190005249585F53504545445F4D494E5F564163
:1001A0004C5545202E2E2E204D41584D415452493C
:1001B000585F53504545445F4D41585F56414C553B
:1001C000450076616C7565206F7574206F662072CE
:1001D000616E676500696E74656E7369747920720B
:1001E000616E6765204D41584D41545249585F49F1
:1001F0004E54454E534954595F4D494E5F56414CFC
:100200005545202E2E2E204D41584D4154524958CF
:100210005F494E54454E534954595F4D41585F56BE
:10022000414C55450076616C7565206F7574206F83
:10023000662072616E67650003080000000000011F
:10024000085F000000000308030003000005081415
:100250003E143E140408246A2B1200050863130898
:100260006463050836495620500108030000000069
:1002700003081C22410000030841221C000005085D
:1002800028180E1828050808083E08080208B0704B
:100290000000000408080808080002086060000068
:1002A000000408601806010004083E41413E0003B6
:1002B00008427F40000004086251494600040822B9
:1002C0004149360004081814127F000408274545E8
:1002D000390004083E49493000040861110907004B
:1002E0000408364949360004080649493E00020818
:1002F0005000000000020880500000000308102891
:1003000044000003081414140000030844281000DB
:10031000000408025909060005083E49555D0E040F
:10032000087E11117E0004087F4949360004083E0A
:100330004141220004087F41413E0004087F4949B1
:10034000410004087F0909010004083E41497A0080
:1003500004087F08087F000308417F41000004086B
:100360003040413F0004087F0814630004087F40C8
:1003700040400005087F020C027F05087F0408103A
:100380007F04083E41413E0004087F09090600043D
:10039000083E4141BE0004087F0909760004084672
:1003A00049493200050801017F010104083F40402E
:1003B0003F0005080F3040300F05083F4038403FF0
:1003C0000508631408146305080708700807040883
:1003D000615149470002087F4100000004080106FE
:1003E0001860000208417F000000030802010200BB
:1003F00000040840404040000208010200000004E0
:1004000008205454780004087F4444380004083815
:100410004444280004083844447F000408385454F5
:1004200018000308047E050000040898A4A47800BE
:1004300004087F040478000308447D400000040899
:100440004080847D0004087F102844000308417F19
:1004500040000005087C047C047804087C040478CF
:1004600000040838444438000408FC24241800041C
:1004700008182424FC0004087C080404000408482C
:10048000545424000308043F44000004083C404046
:100490007C0005081C2040201C05083C403C403CDA
:1004A0000508442810284404089CA0A07C000308E8
:1004B00064544C00000308083641000001087F0026
:1004C000000000030841360800000408080408047E
:1004D0000004087C13137C0004083C43433C0004E4
:1004E000083E41413E000408205656780004083872
:1004F0004646380004083C42427C000000000800E8
:1005000002010000030407000000000000000001D9
:100510000204081020408001020408102001020497
:100520000810200404040404040404020202020269
:100530000203030303030300000000250028002B2F
:100540000000000000240027002A00000105A70980
:100550003C0B080511241FBECFEFD8E0DEBFCDBF96
:1005600011E0A0E0B1E0E8E6FCE102C005900D92E8
:10057000A236B107D9F722E0A2E6B1E001C01D9290
:10058000AA3FB207E1F712E0C9EAD2E004C021971E
:10059000FE010E94940DC63AD107C9F70E946A0B6A
:1005A0000C94270E0C94000081E080938401089540
:1005B00040E45DE063E070E084E492E00E9455096D
:1005C0002FEF3FEFA90164ED72E084E492E00E9416
:1005D000650926E040E855E260E070E080E592E0E1
:1005E0000E94750A85E691E00E94290660E071E0AC
:1005F00085E691E00E941A0849E550E068E071E064
:1006000085E891E00E94E90D1092DE011092DF0171
:100610001092840181E080936401089568EE70E097
:1006200080E592E00E94F40B6AEB70E080E592E0D6
:100630000E94F40B63E870E080E592E00E94F40B06
:1006400068E670E080E592E00C94F40B0F931F9342
:10065000CF93DF93CDB7DEB7C257D1090FB6F89469
:10066000DEBF0FBECDBFFE01E55AFF4F11921192C2
:100670001192119286E0DF011D928A95E9F71982A5
:100680001A821B821C82FE01359686E5DF011D92CF
:100690008A95E9F78DE390E0E2969FAF8EAFE297FF
:1006A0008CE290E0E0969FAF8EAFE0976DE370E054
:1006B00080EE91E00E94D50D892B09F466C1BE0140
:1006C00060597F4F80EE91E00E94D00D009759F065
:1006D00049E050E0BC01CE01855A9F4F0E94E90DD0
:1006E000A5961FAEA597BE0160597F4F80E090E0B0
:1006F0000E94D00D009751F049E550E0BC01CE01B9
:1007000001960E94E90D6B961FAE6B9769E171E04F
:10071000CE01855A9F4F0E94E00D892BE9F480910C
:100720006401823019F082E08093640149E550E071
:10073000BE016F5F7F4F85E891E00E94E90D109246
:10074000DE0185E691E00E94110665E871E085E62C
:1007500091E00E949A0622C163E271E0CE01855ABF
:100760009F4F0E94E00D892BE9F480916401813054
:1007700019F081E08093640149E550E0BE016F5FAC
:100780007F4F85E891E00E94E90D1092DE0185E639
:1007900091E00E94110665E871E085E691E00E9413
:1007A0001A08FCC068E271E0CE01855A9F4F0E9492
:1007B000E00D892BD1F4CE0101960E94A90D9C0178
:1007C000215031092031310538F46FEF680F85E68B
:1007D00091E00E948A05E2C065E272E080E592E065
:1007E0000E94F40B65ED71E04AC062E371E0CE0156
:1007F000855A9F4F0E94E00D892B11F5CE0101967D
:100800000E94A90D9C01215031092431310578F451
:10081000A5E1B0E0A81BB90B20E533EC0E948D0DDB
:10082000AB01BC0184E492E00E94ED08B7C062EC29
:1008300071E080E592E00E94F40B6EE771E01FC06A
:1008400068E371E0CE01855A9F4F0E94E00D892B2D
:10085000D9F4CE0101960E94A90D8F3F910509F0B0
:1008600030F4682F85E691E00E944B0797C06BE655
:1008700071E080E592E00E94F40B6FEF70E080E59C
:1008800092E00E94F40B8AC06AE471E0CE01855ABE
:100890009F4F0E94E00D892B09F077C08091640181
:1008A000813039F081E08093640185E691E00E9417
:1008B0001106AE961DAE1EAE1FAEAE97AB961DAE28
:1008C0001EAE1FAEAB97A8961DAE1EAE1FAEA8976C
:1008D000BE0162597F4FCE0101960E94D00D009754
:1008E00059F042E050E0BC01CE0185599F4F0E9473
:1008F000E90DAE961FAEAE97BE0162597F4F80E004
:1009000090E00E94D00D009759F042E050E0BC0109
:10091000CE0188599F4F0E94E90DAB961FAEAB9751
:10092000BE0162597F4F80E090E00E94D00D009799
:1009300059F042E050E0BC01CE018B599F4F0E941C
:10094000E90DA8961FAEA897CE018B599F4F0E9424
:10095000A90D8C01CE0188599F4F0E94A90D482FE7
:10096000CE0185599F4FE3964FAFE3970E94A90DA3
:10097000682F21E0E3964FADE397012B09F420E0C7
:1009800085E691E00E946B0609C0BE01655A7F4F63
:1009900080E592E00E94060C0E940E03CE58DF4FC5
:1009A0000FB6F894DEBF0FBECDBFDF91CF911F9180
:1009B0000F9108958091DF01882331F00E94260372
:1009C0001092E0011092DF01809184018823C1F030
:1009D000809164018230A1F480916801833021F418
:1009E00085E691E00E94B20880916801823031F47E
:1009F00065E871E085E691E00E949A061092840114
:100A000008952BE04AE06CE085E691E00C943B050C
:100A100085E691E00C9455051F93CF93DF93C0EECC
:100A2000D1E011E080E592E00E94AE09892BC1F08F
:100A300080E592E00E94C8098A3019F41093DF0122
:100A4000F1CFFE0101900020E9F73197E05EF1401F
:100A5000E336F1053CF7E052FE4F80831182E2CF8E
:100A6000DF91CF911F9108958EBD00000DB407FE58
:100A7000FDCF8EB50895CF93DF93FC016083418352
:100A80002283168E158E138E1382EC012496DC01C0
:100A900054961992CA17DB07E1F77B961D92AE17A1
:100AA000BF07E1F7DF91CF9108958091F802882385
:100AB00061F09FB7F8942091F8028091F6022130FE
:100AC00019F48DBB9FBF01C08FBF0C94570D0F93BE
:100AD0001F93CF93DF93EC01062F142F60E08981E1
:100AE0000E94020D802F0E943405812F0E94340540
:100AF000802F0E943405812F0E94340560E0898197
:100B00000E94020D61E08981DF91CF911F910F91C9
:100B10000C94020D603130F4462F6AE00E946705A4
:100B200080E0089581E00895BF92CF92DF92EF9226
:100B3000FF920F931F93CF93DF936031A0F5042FA3
:100B4000162FEC01C62EC694C694C694D12C862FBF
:100B50008770B82E60E089810E94020DE12CF12C93
:100B6000B394EC14FD0429F48B2D0E943405802FDE
:100B700004C080E00E94340580E00E943405EA94BD
:100B8000EF2821F0EE24E394F12CEBCF60E0898193
:100B90000E94020D61E089810E94020DC10FD11DEA
:100BA0000C8380E001C081E0DF91CF911F910F9114
:100BB000FF90EF90DF90CF90BF900895FF920F933A
:100BC0001F93CF93DF93683028F5142F062FEC0185
:100BD00060E089810E94020DFF24F394F00E8F2DB6
:100BE0000E943405812F0E9434051C838F2D0E94A2
:100BF0003405812F0E943405FE01E00FF11D14839E
:100C000060E089810E94020D61E089810E94020DED
:100C100080E001C081E0DF91CF911F910F91FF90A3
:100C200008951F93CF93DF93EC0110E040E0612F14
:100C3000CE010E94DE051F5F1830C1F7FE01349619
:100C400064961192EC17FD07E1F7DF91CF911F91A8
:100C50000895CF93DF93EC0181E08B830E94320DE6
:100C60008091F802882399F02FB7F8948091F802C8
:100C7000813059F48DB38093F6029DB38091F702D1
:100C8000809589238DBB2FBF02C02093F60280E59B
:100C90008CBD81E08DBD47E06BE0CE010E94670511
:100CA00040E069E0CE010E94670541E06CE0CE01C2
:100CB0000E94670540E06FE0CE010E946705CE010B
:100CC0000E94110665E0CE010E948A0582E08B83B6
:100CD000DF91CF910895CF93362FC42F603138F52F
:100CE000483028F5E62FF0E0DC01AE0FBF1F41E0F1
:100CF00050E060E070E004C0440F551F661F771F8E
:100D0000CA95D2F7222329F014962C911497422BDE
:100D100005C0409514962C911497422314964C9339
:100D2000E80FF91F4481632FCF910C94940581E063
:100D3000CF910895FC016115710539F0138E768FFE
:100D4000658F83E0838380E0089581E008956536B0
:100D500068F4CA0127E0629FB0011124685C7D4FEE
:100D600047E050E00E94C70D80E0089581E00895BB
:100D70002F923F924F925F926F927F928F929F92AB
:100D8000AF92BF92CF92DF92EF92FF920F931F9399
:100D9000CF93DF9300D000D01F92CDB7DEB74C01C8
:100DA0006B013A015901F9014080512CE180F12C8D
:100DB000F8E0EF16F104C9F4452BB9F400E010E0B7
:100DC000041515050CF04FC0C8018C0D9D1D4097F2
:100DD00048F4F501E00FF11F4281602F6C0DC40152
:100DE0000E9494050F5F1F4FEBCF1D821C828C81E8
:100DF0009D8184159505BCF500E010E02C803D80B8
:100E00002C0C3D1C8C819D818A0D9B1D9A838983AE
:100E10003C813C0D0E151F0504F580E128163104B8
:100E2000C8F4C801860D971D0897A0F4E981FA81DE
:100E3000828190E0002E02C0959587950A94E2F792
:100E4000282F2170402F460D632FC4013B830E9441
:100E50006B063B810F5F1F4FDDCFEC81FD8131962B
:100E6000FD83EC83C4CF0F900F900F900F900F90E5
:100E7000DF91CF911F910F91FF90EF90DF90CF9076
:100E8000BF90AF909F908F907F906F905F904F90AA
:100E90003F902F900895662321F0FC01648F80E03D
:100EA000089581E00895CF92DF92EF92FF920F9321
:100EB0001F93CF938C017C018CE0E80EF11CC1E004
:100EC00060E0F80181810E94020D8C2F0E943405A0
:100ED000F701389780810E9434058C2F0E943405D9
:100EE000F7018081FFEFEF1AFF0A0E94340560E0EE
:100EF000F80181810E94020D61E0F80181810E9468
:100F0000020DCF5FC930E1F6CF911F910F91FF9095
:100F1000EF90DF90CF900895CF93DF93FC01848111
:100F2000DF011596211124C09F01245F3F4F9D9141
:100F3000ED0122979883A217B307C9F7611104C086
:100F4000442319F0138601C083878485DF011D9631
:100F50009F012C5E3F4F9D91ED0122979883A21730
:100F6000B307C9F761110FC0442371F0138A0CC095
:100F70009F012C5E3F4F9D91ED0122979883A21710
:100F8000B307C9F7EFCF838BCF01DF91CF910C94DB
:100F90005307CF93DF93EC0120E041E060E00E9433
:100FA0008C078B8D8F5F8B8F2C89482F50E02817F3
:100FB00070F09E012C5E3F4F60E170E0641B750B8A
:100FC00040E050E0CE01DF91CF910C94B8068C8DBB
:100FD00090E0820F911D01964817590731F48B81DB
:100FE000843011F482E08B831B8EDF91CF910895C2
:100FF000FA01643C11F48FE513C0663D11F480E6FC
:101000000FC06C3D11F481E60BC0643E11F482E622
:1010100007C0663F11F483E603C06C3F19F484E611
:10102000808304C060526F3518F4608380E00895B7
:1010300081E00895CF92DF92EF92FF920F931F937A
:10104000CF93DF93CDB7DEB728970FB6F894DEBF06
:101050000FBECDBF6115710511F481E02EC07C017A
:101060008B01C12CD12CF80161918F01662321F1F4
:10107000AE01485F5F4FC7010E94F807813069F3F6
:10108000AE014F5F5F4F6885C7010E94A7068130A0
:1010900021F39E012F5F3F4F40E050E0B601C701B2
:1010A0000E94B806298130E02F5F3F4FC20ED31E49
:1010B00081E1C816D104BCF280E028960FB6F894FE
:1010C000DEBF0FBECDBFDF91CF911F910F91FF907B
:1010D000EF90DF90CF9008950F931F93CF93DF93FE
:1010E0001F92CDB7DEB78C01DC015B968C915B97CC
:1010F00081112FC05D96ED91FC915E976081662312
:10110000F1F0AE014F5F5F4FC8010E94F807A801E0
:101110004C5E5F4F6981C8010E94A70681E0F8011B
:10112000838FC8010E94C907D8015D968D919C915B
:101130005E9701965E969C938E935D970DC082E0BC
:10114000F801838320E041E060E0C8010E948C0741
:1011500003C0C8010E94C9070F90DF91CF911F9172
:101160000F910895CF93DF93EC018B81833019F4B5
:10117000CE010E946C088B81843029F4CE01DF916E
:10118000CF910C94C907DF91CF9108951F920F92D0
:101190000FB60F9211242F933F934F935F936F934A
:1011A0007F938F939F93AF93BF93EF93FF93E091C0
:1011B0004802F09149020995FF91EF91BF91AF91DB
:1011C0009F918F917F916F915F914F913F912F915F
:1011D0000F900FBE0F901F901895FC01A3E0440FD5
:1011E000551F661F771FAA95D1F74115510581E05C
:1011F0006807710514F481E00EC033E075956795BA
:10120000579547953A95D1F74115510581E0680703
:1012100071051CF482E0828331C023E075956795E7
:10122000579547952A95D1F74115510581E06807F3
:10123000710514F483E0EFCF92E0759567955795AB
:1012400047959A95D1F74115510581E068077105D9
:1012500014F484E0E0CF82E0759567955795479543
:101260008A95D1F785E082834115510581E06807B1
:10127000710524F04FEF5FEF60E070E08FB783837C
:10128000F894518340835093870040938600838174
:101290008FBF80918100887F809381009091810031
:1012A0008281892B8093810008951092800020E133
:1012B000209381000C94ED08E1E8F0E02081DC014E
:1012C00012968C91822B808308950F931F93CF9356
:1012D000DF93EC018B01BA01A9011416150616065D
:1012E000170614F40E94ED081D830C8381E080939F
:1012F0006F00CE01DF91CF911F910F910C945C098B
:101300001F920F920FB60F9211242F933F934F937A
:101310005F936F937F938F939F93AF93BF93EF935D
:10132000FF93E0914E02F0914F020995FF91EF91EA
:10133000BF91AF919F918F917F916F915F914F91ED
:101340003F912F910F900FBE0F901F901895EAE4D8
:10135000F2E010821582148211820895FC01918DB1
:10136000228D892F90E0805C9F4F821B91098F73A3
:1013700099270895FC01918D828D981731F0828D07
:10138000E80FF11D858D90E008958FEF9FEF089590
:10139000FC01918D828D981761F0828DDF01A80F7D
:1013A000B11D5D968C91928D9F5F9F73928F90E09F
:1013B00008958FEF9FEF089582E39BE0892B49F01A
:1013C0008CE095E0892B29F00E94320B81110C945E
:1013D0000C050895FC01848DDF01A80FB11DA35AEF
:1013E000BF4F2C91848D90E001968F739927848F45
:1013F000A689B7892C93A089B1898C9180648C933C
:10140000938D848D981306C00288F389E02D808126
:101410008F7D80830895CF93DF93EC01888D88239F
:10142000C9F0EA89FB89808185FD05C0A889B98951
:101430008C9186FD0FC00FB607FCF5CF808185FF2C
:10144000F2CFA889B9898C9185FFEDCFCE010E949A
:10145000EA09E7CFDF91CF910895EF92FF920F93C2
:101460001F93CF93DF93EC019B8D8C8D981305C058
:10147000E889F989808185FD27C0F62E0B8D10E063
:101480000F5F1F4F0F731127E02E8C8DE8120CC0D9
:101490000FB607FCFACFE889F989808185FFF5CF7F
:1014A000CE010E94EA09F1CF8B8DFE01E80FF11DFC
:1014B000E35AFF4FF0820B8FEA89FB8980818062BB
:1014C000808381E0888F08C0EE89FF896083E88986
:1014D000F98980818064808381E090E0DF91CF9101
:1014E0001F910F91FF90EF900895CF92DF92EF92AE
:1014F000FF921F93CF93DF93EC016A017B01122FC0
:10150000E889F98982E080834115514E61057105B2
:10151000B1F060E079E08DE390E0A70196010E94D0
:101520006B0DDA01C9010197A109B109B695A7951B
:1015300097958795AC01411580E15807A8F0E88997
:10154000F989108260E874E88EE190E0A7019601C5
:101550000E946B0DBA01A90141505109610971093D
:101560007695679557954795EC85FD855083EE8573
:10157000FF854083188EEC89FD891083EA89FB89F9
:10158000808180618083EA89FB8980818860808393
:10159000EA89FB89808180688083EA89FB89808170
:1015A0008F7D8083DF91CF911F91FF90EF90DF902F
:1015B000CF9008951F920F920FB60F9211242F9380
:1015C0008F939F93EF93FF93E0916002F0916102FC
:1015D0008081E0916602F091670282FD12C09081E5
:1015E000809169028F5F8F7320916A02821751F098
:1015F000E0916902F0E0E05BFD4F958F8093690216
:1016000001C08081FF91EF919F918F912F910F9059
:101610000FBE0F901F9018951F920F920FB60F924A
:1016200011242F933F934F935F936F937F938F93E7
:101630009F93AF93BF93EF93FF9380E592E00E9457
:10164000EA09FF91EF91BF91AF919F918F917F91A7
:101650006F915F914F913F912F910F900FBE0F901F
:101660001F90189580E592E00E94AE0921E0892B39
:1016700009F420E0822F0895E0E5F2E0138212825F
:1016800088EE93E0A0E0B0E084839583A683B783DF
:1016900085E591E09183808385EC90E09587848750
:1016A00084EC90E09787868780EC90E0918B808B2C
:1016B00081EC90E0938B828B82EC90E0958B848B15
:1016C00086EC90E0978B868B118E128E138E148E83
:1016D000089508950E94620C0E94690B0E94D8022E
:1016E000CCEDD9E00E94DA042097E1F30E94DC09F6
:1016F000F9CFCF92DF92EF92FF920F931F93CF9388
:10170000DF936C01EB017B01E40EF51E00E010E0BD
:10171000CE15DF0561F06991D601ED91FC91019044
:10172000F081E02DC6010995080F191FF1CFC801FE
:10173000DF91CF911F910F91FF90EF90DF90CF90AD
:1017400008956115710579F0FB0101900020E9F71A
:101750003197AF01461B570BDC01ED91FC910280E4
:10176000F381E02D099480E090E00895EF92FF92DC
:101770000F931F93CF93DF937C01FB0100E010E0F8
:101780006491EF012196662361F0D701ED91FC9100
:101790000190F081E02DC7010995080F191FFE0186
:1017A000EFCFC801DF91CF911F910F91FF90EF9084
:1017B0000895DC01ED91FC910190F081E02D0994F8
:1017C0000F931F93CF93DF93EC016DE00E94D90B31
:1017D0008C016AE0CE010E94D90B800F911FDF912E
:1017E000CF911F910F9108950F931F93CF93DF9384
:1017F000EC010E94B60B8C01CE010E94E00B800F21
:10180000911FDF91CF911F910F9108950F931F9317
:10181000CF93DF93EC010E94A10B8C01CE010E94BB
:10182000E00B800F911FDF91CF911F910F910895D1
:101830001F920F920FB60F9211242F933F938F9305
:101840009F93AF93BF938091EE029091EF02A0918E
:10185000F002B091F1023091ED0223E0230F2D3719
:1018600020F40196A11DB11D05C026E8230F0296A4
:10187000A11DB11D2093ED028093EE029093EF0223
:10188000A093F002B093F1028091F2029091F302E2
:10189000A091F402B091F5020196A11DB11D8093B3
:1018A000F2029093F302A093F402B093F502BF9179
:1018B000AF919F918F913F912F910F900FBE0F90FD
:1018C0001F901895789484B5826084BD84B581603A
:1018D00084BD85B5826085BD85B5816085BDEEE638
:1018E000F0E0808181608083E1E8F0E01082808117
:1018F00082608083808181608083E0E8F0E0808185
:1019000081608083E1EBF0E0808184608083E0EBA4
:10191000F0E0808181608083EAE7F0E0808184608C
:1019200080838081826080838081816080838081E8
:10193000806880831092C1000895833081F028F47C
:10194000813099F08230A1F008958730A9F0883075
:10195000B9F08430D1F4809180008F7D03C08091F4
:1019600080008F7780938000089584B58F7702C0C0
:1019700084B58F7D84BD08958091B0008F7703C0BA
:101980008091B0008F7D8093B0000895CF93DF9356
:1019900090E0FC01E15FFA4F2491FC01ED5DFA4F0C
:1019A0008491882361F190E0880F991FFC01EF5B1F
:1019B000FA4FC591D491FC01E95CFA4FA591B4911D
:1019C000611109C09FB7F89488812095822388838C
:1019D000EC912E230BC0623061F49FB7F8943881EC
:1019E000822F809583238883EC912E2B2C939FBF8D
:1019F00006C08FB7F894E8812E2B28838FBFDF9124
:101A0000CF9108951F93CF93DF93282F30E0F901F2
:101A1000E550FB4F8491F901E15FFA4FD491F90150
:101A2000ED5DFA4FC491CC23C9F0162F81110E94AD
:101A30009D0CEC2FF0E0EE0FFF1FE95CFA4FA59133
:101A4000B4918FB7F894111105C09C91ED2FE095DA
:101A5000E92302C0EC91ED2BEC938FBFDF91CF9186
:101A60001F910895CF93CFB7F8948091F902811117
:101A700016C061E08AE00E94020D61E08AE00E94E7
:101A8000C60C8CB580618CBD8CB580648CBD61E06A
:101A90008DE00E94C60C61E08BE00E94C60C809134
:101AA000F9028F5F8093F902CFBFCF9108959FB75E
:101AB000F8948091F902882319F081508093F902FB
:101AC0008091F902811105C08CB58F7B8CBD10927D
:101AD000F8029FBF0895A1E21A2EAA1BBB1BFD01AD
:101AE0000DC0AA1FBB1FEE1FFF1FA217B307E407FD
:101AF000F50720F0A21BB30BE40BF50B661F771F55
:101B0000881F991F1A9469F7609570958095909534
:101B10009B01AC01BD01CF0108950E949A0DB7FF52
:101B20000895821B930B0895EE0FFF1F0590F4910B
:101B3000E02D0994A29FB001B39FC001A39F700D37
:101B4000811D1124911DB29F700D811D1124911DC5
:101B50000895FC0188279927E89421912032E9F320
:101B6000293010F02E30C8F32B3241F02D3239F4E9
:101B7000689404C00E941F0E820F911D2191205372
:101B80002A30C0F31EF4909581959F4F0895FB0174
:101B9000DC0102C005900D9241505040D8F70895E5
:101BA00042E651E00E94F80D0895FC0181918617EC
:101BB00021F08823D9F7992708953197CF01089507
:101BC000FB01DC018D91019080190110D9F3990B73
:101BD0000895FB01DC014150504048F001900D9206
:101BE0000020C9F701C01D9241505040E0F7089510
:101BF000FA01A191B081009719F41097E1F0CD019D
:101C0000DC01CD010D90002011F4C00113C0FB01D7
:101C10002191222319F02015D9F7F3CFFB0121914F
:101C2000201519F41E92119606C02223C1F70D90BB
:101C30000020A1F7D001FA01A193B08308957AE0C2
:101C4000979F902D879F802D910D1124089512E06C
:101C5000C9EAD2E004C0FE010E94940D2196CA3A5E
:081C6000D107C9F7F894FFCF8A
:101C6800416E647265617300416E647265617320D0
:101C78004275726E69636B6C007465787453686939
:101C88006674007465787400696E74656E7369743F
:101C9800790073706565640073706163654265748B
:101CA8007765656E436861727300736574446F7419
:101CB80000000000002D0A790BAE09C809BA090B0B
:021CC8000A0010
:00000001FF
