:100000000C946A020C9492020C9492020C94920248
:100010000C9492020C9492020C9492020C94920210
:100020000C9492020C94E30D0C9492020C949202A4
:100030000C9492020C94290D0C9492020C9492024E
:100040000C947B100C9492020C943D0F0C946F0F47
:100050000C9492020C9492020C9492020C949202D0
:100060000C9492020C9492024578616D706C653A22
:1000700020746578743D6578616D706C6520746579
:10008000787400636F6D6D616E6420616E642076BC
:10009000616C75652068617320746F2062652073E0
:1000A000657061726174656420627920616E20659B
:1000B0007175616C207369676E006B6E6F776E206F
:1000C000636F6D6D616E6473206172653A20746553
:1000D00078742C20696E74656E7369747920616E12
:1000E0006420737065656400636F6D6D616E64207C
:1000F000646F6573206E6F74206D61746368007344
:10010000706565642072616E6765204D41584D4190
:10011000545249585F53504545445F4D494E5F56D0
:10012000414C5545202E2E2E204D41584D415452C4
:1001300049585F53504545445F4D41585F56414CC7
:1001400055450076616C7565206F7574206F66206B
:1001500072616E676500696E74656E73697479208B
:1001600072616E6765204D41584D41545249585F48
:10017000494E54454E534954595F4D494E5F56417F
:100180004C5545202E2E2E204D41584D415452495C
:10019000585F494E54454E534954595F4D41585F3D
:1001A00056414C55450076616C7565206F7574201D
:1001B0006F662072616E6765000308000000000032
:1001C00001085F00000000030803000300000508A9
:1001D000143E143E140408246A2B1200050863130D
:1001E00008646305083649562050010803000000E2
:1001F0000003081C22410000030841221C000005E6
:100200000828180E1828050808083E08080208B033
:100210007000000004080808080800020860600078
:1002200000000408601806010004083E41413E0039
:100230000308427F40000004086251494600040858
:10024000224149360004081814127F00040827458B
:1002500045390004083E4949300004086111090786
:10026000000408364949360004080649493E0002A0
:100270000850000000000208805000000003081031
:100280002844000003081414140000030844281034
:1002900000000408025909060005083E49555D0E94
:1002A00004087E11117E0004087F494936000408C5
:1002B0003E4141220004087F41413E0004087F493D
:1002C00049410004087F0909010004083E41497AB8
:1002D0000004087F08087F000308417F41000004F4
:1002E000083040413F0004087F0814630004087F81
:1002F0004040400005087F020C027F05087F04088B
:10030000107F04083E41413E0004087F09090600B1
:1003100004083E4141BE0004087F09097600040834
:100320004649493200050801017F010104083F40A8
:10033000403F0005080F3040300F05083F4038406F
:100340003F050863140814630508070870080704CC
:1003500008615149470002087F410000000408017C
:10036000061860000208417F000000030802010235
:100370000000040840404040000208010200000064
:100380000408205454780004087F444438000408CA
:10039000384444280004083844447F000408385492
:1003A0005418000308047E050000040898A4A478EB
:1003B0000004087F040478000308447D4000000422
:1003C000084080847D0004087F1028440003084111
:1003D0007F40000005087C047C047804087C040449
:1003E0007800040838444438000408FC2424180029
:1003F0000408182424FC0004087C080404000408F1
:1004000048545424000308043F44000004083C40BE
:10041000407C0005081C2040201C05083C403C4056
:100420003C0508442810284404089CA0A07C000334
:100430000864544C00000308083641000001087F9E
:100440000000000003084136080000040808040802
:10045000040004087C13137C0004083C43433C0064
:1004600004083E41413E0004082056567800040826
:10047000384646380004083C42427C000000000830
:10048000000201000003040700000000000000005B
:10049000010204081020408001020408102001021B
:1004A00004081020040404040404040402020202E8
:1004B00002020303030303030000000025002800D9
:1004C0002B0000000000240027002A007E040A0EF2
:1004D0009F0F850411241FBECFEFD8E0DEBFCDBF34
:1004E00011E0A0E0B1E0E2E3F5E202C005900D9278
:1004F000A035B107D9F722E0A0E5B1E001C01D9217
:10050000AC36B207E1F712E0C9E6D2E004C02197A9
:10051000FE010E94F911C636D107C9F70E94CD0F1E
:100520000C948C120C94000081E080937201089569
:1005300040E45DE063E070E08AEB91E00E94B80D7A
:100540002FEF3FEFA90164E972E08AEB91E00E948E
:10055000C80D26E040E855E260E070E086EC91E0EE
:100560000E94D80E83E591E00E940A0961E083E5CC
:1005700091E00E94760560E071E083E591E00E94E1
:10058000C40A4DE150E068E071E083E791E00E9429
:100590004E1210929001109291011092720181E01E
:1005A00080935201089568EE70E086EC91E00E941D
:1005B00057106AEB70E086EC91E00E94571063E8F8
:1005C00070E086EC91E00E94571068E670E086ECDF
:1005D00091E00C9457100F931F93CF93DF93CDB7F7
:1005E000DEB7E6970FB6F894DEBF0FBECDBF1F8E05
:1005F00018A219A21AA2FE01B39686E0DF011D928D
:100600008A95E9F719821A821B821C827E978AE1F9
:10061000DF011D928A95E9F78DE390E09DAB8CABED
:100620008CE290E09BAB8AAB6DE370E082E991E0F5
:100630000E943A12892B09F426C1BE016C5C7F4FDF
:1006400082E991E00E943512009741F049E050E0C4
:10065000BC01CE014F960E944E1218A6BE016C5CE2
:100660007F4F80E090E00E943512009741F04DE10D
:1006700050E0BC01CE0101960E944E121E8E69E12F
:1006800071E0CE014F960E944512892BE9F48091CA
:100690005201823019F082E0809352014DE150E026
:1006A000BE016F5F7F4F83E791E00E944E12109270
:1006B000900183E591E00E94F20863E771E083E531
:1006C00091E00E940605E8C063E271E0CE014F961A
:1006D0000E944512892BE9F480915201813019F072
:1006E00081E0809352014DE150E0BE016F5F7F4F8A
:1006F00083E791E00E944E121092900183E591E011
:100700000E94F20863E771E083E591E00E94C40A69
:10071000C3C068E271E0CE014F960E944512892B5A
:10072000D1F4CE0101960E940E129C012150310994
:100730002031310538F46FEF680F83E591E00E94B6
:10074000FC04AAC066EA71E086EC91E00E945710B2
:1007500066E571E029C062E371E0CE014F960E9428
:100760004512892B31F5CE0101960E940E129C0193
:10077000215031092431310578F4A5E1B0E0A81BFE
:10078000B90B20E533EC0E94F211AB01BC018AEBFE
:1007900091E00E94500D80C063E471E086EC91E02E
:1007A0000E9457106FEF70E086EC91E00E945710A6
:1007B00073C068E371E0CE014F960E944512892B09
:1007C00009F061C080915201813039F081E080935D
:1007D000520183E591E00E94F2081FA618AA19AA07
:1007E0001CA61DA61EA619A61AA61BA6BE016E5CF7
:1007F0007F4FCE0101960E943512009741F042E0F2
:1008000050E0BC01CE018F960E944E1219AABE0183
:100810006E5C7F4F80E090E00E943512009741F0BF
:1008200042E050E0BC01CE018C960E944E121EA602
:10083000BE016E5C7F4F80E090E00E943512009711
:1008400041F042E050E0BC01CE0189960E944E1278
:100850001BA6CE0189960E940E128C01CE018C96A9
:100860000E940E12482FCE018F964EAB0E940E12A0
:10087000682F21E04EA9012B09F420E083E591E0E7
:100880000E94EB0909C0BE01615E7F4F86EC91E0DA
:100890000E9469100E94D302E6960FB6F894DEBF5C
:1008A0000FBECDBFDF91CF911F910F910895809121
:1008B0009101882331F00E94EB0210929201109274
:1008C0009101809172018823C1F0809152018230A0
:1008D000A1F480915601833021F483E591E00E94D8
:1008E000150D80915601823031F463E771E083E5A4
:1008F00091E00E9406051092720108952BE04AE0F3
:100900006CE083E591E00C94B10483E591E00C94F4
:10091000CC041F93CF93DF93C2E9D1E011E086ECC2
:1009200091E00E94110E892BC1F086EC91E00E94AB
:100930002B0E8A3019F410939101F1CFFE01019032
:100940000020E9F73197E259F140E732F1053CF731
:10095000EE56FE4F80831182E2CFDF91CF911F913F
:100960000895CF93DF93FC01608341832283168E29
:10097000158E148E14821382EC012596DC01559697
:100980001992CA17DB07E1F77C961D92AE17BF07D5
:10099000E1F7DF91CF9108950895EF92FF920F93C1
:1009A0001F93CF93DF93EC01E62EF42E60E0898154
:1009B0000E94651102E010E02E2D41E06A818881DD
:1009C0000E9495112F2D41E06A8188810E94951126
:1009D0000130110519F001E010E0EECF60E08981EF
:1009E0000E94651161E08981DF91CF911F910F9184
:1009F000FF90EF900C946511603130F4462F6AE05F
:100A00000E94CD0480E0089581E00895FC01611505
:100A1000710539F0148E768F658F83E0838380E0D3
:100A2000089581E00895653668F4CA0127E0629F61
:100A3000B001112467547E4F47E050E00E942C1211
:100A400080E0089581E008956295962F937384E085
:100A5000989F900111246C7C66956695262B822FB9
:100A60008575880F2A7A2695822B0895DF92EF925A
:100A7000FF920F931F93CF93DF93EC0100E010E000
:100A800060E089810E946511E12CF12CDD24D39472
:100A9000D00E2D2D41E06A8188810E949511F701C9
:100AA000E00FF11FEC0FFD1F258141E06A81888175
:100AB0000E94951188E0E80EF11C80E1E816F1042F
:100AC00041F760E089810E94651161E089810E949F
:100AD00065110F5F1F4F0830110591F6DF91CF911F
:100AE0001F910F91FF90EF90DF9008952F923F920A
:100AF0004F925F926F927F928F929F92AF92BF922E
:100B0000CF92DF92EF92FF920F931F93CF93DF93D9
:100B1000CDB7DEB768970FB6F894DEBF0FBECDBF76
:100B2000FC018481681709F407C2811104C0613097
:100B300099F090E0AAC0813021F4623069F090E031
:100B4000ABC0823021F4633039F090E0ACC0833028
:100B500009F09FC0611104C19E012F5F3F4F3A8B86
:100B6000298B07E010E07901CC24C394D12C412CCF
:100B7000512C320143941601002E02C0220C331C6A
:100B80000A94E2F728E030E09FEF920F211531053B
:100B900061F1AF01420F531FDA0114964C9150E0FE
:100BA00042215321452B81F45301420104C0880C9A
:100BB000991CAA1CBB1C9A95D2F7982D9095A989CF
:100BC000BA894C9194230DC05301420104C0880C92
:100BD000991CAA1CBB1C9A95D2F7A989BA899C9129
:100BE00098299C9321503109CFCF015011092989AF
:100BF0003A892F5F3F4F3A8B298B0F3F3FEF130707
:100C000009F0B9CF27E030E07FE0CC24C394D12CA9
:100C1000412C512C320143941601022E02C0220CA9
:100C2000331C0A94E2F740E150E0972F921B8701B2
:100C3000090F111D97EF940F4830510501F1DF01A5
:100C4000A40FB51F1496AC91B0E0A221B3215301BB
:100C5000420104C0880C991CAA1CBB1C9A95D2F7AF
:100C6000AB2B21F0D8019C91982905C0982D909527
:100C7000D801BC909B219C9341505109DBCF21505E
:100C8000310950F690E1811105C0623009F0B1C020
:100C90000CC090E0813021F4633009F0B0C005C091
:100CA000823009F05FC06111AFC048E050E078E0E9
:100CB000790F27E0722E812C912C54018394D72E2A
:100CC000D41A4115510509F441C09F01240F351F65
:100CD000D90114960C9110E020E030E0A1E0B0E0E2
:100CE000AC0FBD1FAD0DB11DD72CD21A7801022E4D
:100CF00002C0F594E7940A94E2F7E0FC18C01401EE
:100D0000250104C0220C331C441C551CDA94D2F774
:100D100072016101C094EC90FC2CFE20FC922F5FCC
:100D20003F4F2830310501F741505109C8CF140118
:100D3000250104C0220C331C441C551CDA94D2F744
:100D4000720161016C90C628CC92E9CF40E150E07D
:100D5000705F17E0712E812C912C5401839429C06F
:100D600090E003C0833009F042C0613009F059C0FF
:100D70009CCFD72CD21A7801022E02C0F594E794AA
:100D80000A94E2F71401250104C0220C331C441C10
:100D9000551CDA94D2F7E0FE21C0720161016C901B
:100DA000C628CC922F5F3F4F2830310511F74150B4
:100DB0005109D72ED41A48305105C1F09F01240F94
:100DC000351FD90114960C9110E020E030E0A1E02D
:100DD000B0E0AC0FBD1FAD0DB11DCBCF72016101F5
:100DE000C094EC90FC2CFE20FC92DCCF905F811133
:100DF00004C0633009F073C00AC0813019F466235F
:100E000031F06DC0823051F4613009F068C020E0EB
:100E100030E0412C512C320143942EC0833009F034
:100E20005EC0623009F05BC0F2CFAA24A394B12C5B
:100E30000F8802C0AA0CBB1C0A94E2F7BE8AAD8AD6
:100E4000492D582D8F89870FEE24E394F12CEC0E59
:100E5000FD1EE80EF11C832D841B42175307C1F4BD
:100E60004F89588D4F5F5F4F588F4F8B48305105DA
:100E7000E1F62031310599F1792F720F922E832EF0
:100E8000188E1F8A47E0342E320E285F3F4FCDCF99
:100E90008F01040F151FD80115960C9110E0AD8835
:100EA000BE880A211B216301520104C0AA0CBB1C8D
:100EB000CC1CDD1C8A95D2F7A98ABA8ACB8ADC8A37
:100EC000012B21F0D7018C918A2905C01A2D10958C
:100ED000D7018C9181238C934F5F5F4FBCCF64838C
:100EE000BE016F5F7F4FCF0105969E012F5E3F4F82
:100EF000DB014D91BD01DC014D93CD0162177307FC
:100F0000B9F7CF0168960FB6F894DEBF0FBECDBF1C
:100F1000DF91CF911F910F91FF90EF90DF90CF90D5
:100F2000BF90AF909F908F907F906F905F904F9009
:100F30003F902F900C94360568960FB6F894DEBF5C
:100F40000FBECDBFDF91CF911F910F91FF90EF901A
:100F5000DF90CF90BF90AF909F908F907F906F90D9
:100F60005F904F903F902F900895FA01643C11F4E8
:100F70008FE513C0663D11F480E60FC06C3D11F49F
:100F800081E60BC0643E11F482E607C0663F11F4AF
:100F900083E603C06C3F19F484E6808304C060528A
:100FA0006F3518F4608380E0089581E00895BF9262
:100FB000CF92DF92EF92FF920F931F93CF93DF9325
:100FC000E9016230D8F54830C8F5A1E0B0E002C0D0
:100FD000AA0FBB1F4A95E2F728E0629F800D911D82
:100FE0001124FC01359687E090E001E010E020E05C
:100FF00030E0619170E06A237B23B880672B69F051
:1010000068017901082E04C0CC0CDD1CEE1CFF1C0D
:101010000A94D2F7CB28C8820DC0B901A801082EC6
:1010200004C0440F551F661F771F0A94D2F74095DE
:101030004B2148830197E8F680E001C081E0DF9111
:10104000CF911F910F91FF90EF90DF90CF90BF90C5
:101050000895362FFA01DC0114962C911497211172
:1010600005C0603100F5A60FB11D10C066956695EC
:101070006695432F4770213099F0223061F42FE0BC
:10108000231B203180F4DC01A20FB11D15968C9139
:10109000808380E00895233031F427E0241B422F21
:1010A0009F010C94D70781E00895BF92CF92DF9201
:1010B000EF92FF920F931F93CF93DF936031E8F588
:1010C000042F162FEC01C62EC694C694C694D12CBC
:1010D000862F8770B82E60E089810E946511E12C0F
:1010E000F12CB394EC14FD0441F42B2D41E06A8102
:1010F00088810E949511202F07C020E041E06A817D
:1011000088810E94951120E041E06A8188810E94D7
:101110009511EA94EF2821F0EE24E394F12CE2CF2C
:1011200060E089810E94651161E089810E946511FA
:10113000C10FD11D0D8380E001C081E0DF91CF910F
:101140001F910F91FF90EF90DF90CF90BF90089587
:10115000AF92BF92CF92DF92EF92FF920F931F93C5
:10116000CF93DF93683090F5042F162FEC0160E0E9
:1011700089810E946511A12EB12C7E0185E0E80EC7
:10118000F11C92E0C92ED12C1F5F212F41E06A8112
:1011900088810E949511202F41E06A8188810E94F8
:1011A0009511F7010083EA0CFB1CCA94CD2821F0AD
:1011B000CC24C394D12CE9CF60E089810E946511D1
:1011C00061E089810E94651180E001C081E0DF91CA
:1011D000CF911F910F91FF90EF90DF90CF90BF9034
:1011E000AF9008951F93CF93DF93EC0110E040E0A0
:1011F000612FCE010E94A8081F5F1830C1F7FE01C1
:10120000359665961192EC17FD07E1F7DF91CF91C6
:101210001F910895CF93DF93EC0181E08B8361E010
:1012200088810E94291161E08A810E94291161E070
:1012300089810E94291161E08A810E94651147E03D
:101240006BE0CE010E94CD0440E069E0CE010E9437
:10125000CD0441E06CE0CE010E94CD0440E06FE09F
:10126000CE010E94CD04CE010E94F20864E0CE01BE
:101270000E94FC0482E08B83DF91CF910895AF92AE
:10128000BF92CF92DF92EF92FF920F931F93CF9373
:10129000DF93623008F042C0483008F03FC0C62FEC
:1012A0008C01F62EFF0CFF0CFF0CD0E0219683E0A2
:1012B000CC0FDD1F8A95E1F781E090E0A0E0B0E07F
:1012C00004C0880F991FAA1FBB1F4A95D2F7A82EEA
:1012D000E82EE09497E0B92EC22ED12CEF2DF0E04D
:1012E000EC17FD07CCF4E00FF11FC6010B2C02C078
:1012F000959587950A94E2F780FF03C085818A2936
:1013000002C085818E21858345816F2DC8010E9491
:101310005508BA94F394E2CF80E001C081E0DF91F8
:10132000CF911F910F91FF90EF90DF90CF90BF90E2
:10133000AF900895EF92FF920F931F93CF93DF9397
:101340001F92CDB7DEB7FC01242F062F0695069518
:101350000695462F47709481911103C0422FCF010B
:1013600011C0913019F4602FCF0123C0162F7F01D7
:10137000923089F4622FCF010E9424056FE0611B37
:10138000482FC7010F90DF91CF911F910F91FF90D0
:10139000EF900C9455089330A9F4622FCF01498344
:1013A0000E94240597E04981941B492F282F602F24
:1013B000C7010F90DF91CF911F910F91FF90EF9098
:1013C0000C943F0981E00F90DF91CF911F910F9115
:1013D000FF90EF900895DF92EF92FF920F931F938B
:1013E000CF93DF931F92CDB7DEB7603180F54830E1
:1013F00070F5D22EE42EF62E8C01AE014F5F5F4FBA
:101400000E9429082981DD2071F081E090E0A0E0B0
:10141000B0E004C0880F991FAA1FBB1FEA94D2F73F
:10142000822B89830EC041E050E060E070E004C090
:10143000440F551F661F771FEA94D2F74095422349
:10144000498349816F2DC8010E949A0901C081E03A
:101450000F90DF91CF911F910F91FF90EF90DF9050
:1014600008952F923F924F925F926F927F928F9248
:101470009F92AF92BF92CF92DF92EF92FF920F9323
:101480001F93CF93DF9300D000D01F92CDB7DEB76C
:101490004C016B013A015901F9014080512CE18066
:1014A000F12CF8E0EF16F104C9F4452BB9F400E093
:1014B00010E0041515050CF04FC0C8018C0D9D1DE2
:1014C000409748F4F501E00FF11F4281602F6C0D49
:1014D000C4010E949A090F5F1F4FEBCF1D821C822F
:1014E0008C819D8184159505BCF500E010E02C8071
:1014F0003D802C0C3D1C8C819D818A0D9B1D9A8307
:1015000089833C813C0D0E151F0504F580E12816EA
:101510003104C8F4C801860D971D0897A0F4E9812D
:10152000FA81828190E0002E02C0959587950A94F9
:10153000E2F7282F2170402F460D632FC4013B8313
:101540000E94EB093B810F5F1F4FDDCFEC81FD81D6
:101550003196FD83EC83C4CF0F900F900F900F90C6
:101560000F90DF91CF911F910F91FF90EF90DF903F
:10157000CF90BF90AF909F908F907F906F905F9033
:101580004F903F902F900895CF92DF92EF92FF926D
:101590000F931F93CF93DF93CDB7DEB728970FB686
:1015A000F894DEBF0FBECDBF7C016B0100E010E000
:1015B000F60161916F01662329F1AE01485F5F4F2B
:1015C000C7010E94B507813011F481E01CC0AE0153
:1015D0004F5F5F4F6885C7010E9413058130A9F3F3
:1015E0009E012F5F3F4F40E050E0B801C7010E94CD
:1015F000310A298130E02F5F3F4F020F131F013165
:101600001105B4F280E028960FB6F894DEBF0FBE45
:10161000CDBFDF91CF911F910F91FF90EF90DF90A1
:10162000CF9008950F931F93CF93DF93FC01858193
:10163000DF011696211126C08D01EF012E96D801EB
:101640009D918D019D0122503109D9019C930C1768
:101650001D07A9F7611104C0442319F0148201C0C9
:10166000848785859F012A5E3F4F9991DE011297FD
:101670009C93C217D307C9F7611110C0442391F09E
:10168000148610C09F012A5E3F4F9D91ED01229765
:101690009883A217B307C9F7662311F0848B02C0A1
:1016A0004111148ACF01DF91CF911F910F910C94BA
:1016B0003605CF93DF93FC010696211126C02485C1
:1016C000DF011D96ED01229738813E93A817B907D7
:1016D000C9F7611104C0442319F0158201C02583A4
:1016E0008489DF0155969F01225F3F4FED012297CC
:1016F00098819E93A217B307C9F7611104C04423D0
:10170000A1F0158612C0858710C02489DF01559687
:10171000ED01229738813E93A817B907C9F76623D0
:1017200011F0258302C041111582CF01DF91CF91C5
:101730000C943605BF92CF92DF92EF92FF920F93F7
:101740001F93CF93DF9300D0CDB7DEB77C01D62EA9
:101750001A821982FC013596442309F448C08F018E
:10176000C12C662339F09E012F5F3F4F40E060E0BF
:101770000E94D707BB24B394BC0C9E012E5F3F4F41
:1017800040E06B2DC7010E94D707F80120E030E050
:10179000808190E09595879581932F5F3F4F28300A
:1017A0003105B1F781E0C81206C0DD2051F0298172
:1017B00047E061E003C02A8147E060E0C7010E9482
:1017C0003F09085F1F4FCC24C39482E0B812D2CFE8
:1017D000C7010E9436050F900F90DF91CF911F91A6
:1017E0000F91FF90EF90DF90CF90BF900895AC01E4
:1017F0004B5E5F4F2081822F90E095958795DD208D
:1018000011F020FD806880833196E417F50791F789
:10181000DFCFBF92CF92DF92EF92FF920F931F9391
:10182000CF93DF9300D0CDB7DEB77C01D62E1A82DE
:101830001982FC013596442309F441C08F01C12C63
:10184000662339F09E012F5F3F4F47E060E00E9422
:10185000D707BB24B394BC0C9E012E5F3F4F47E0DB
:101860006B2DC7010E94D707F80180E090E020812E
:10187000220F2193019688309105C9F781E0C812A3
:1018800008C0DD2031F0298140E061E0C7010E94FD
:101890003F09085F1F4FCC24C39482E0B812D9CF10
:1018A000C7010E9436050F900F90DF91CF911F91D5
:1018B0000F91FF90EF90DF90CF90BF9008959C0123
:1018C0002B5E3F4F9081892F880FDD2011F097FD0F
:1018D000816080833196E217F307A1F7E1CF0F9380
:1018E0001F93CF93DF93EC01162F042F8C8181116E
:1018F00004C021E0CE010E94120B8C81813029F4BA
:1019000041E0612FCE010E949A0B8C81823031F42C
:1019100021E0402F612FCE010E94590B8C81833032
:1019200049F441E0612FCE01DF91CF911F910F91DA
:101930000C94090CDF91CF911F910F910895CF93D3
:10194000DF93EC019C8D8D898917B0F041E060E058
:10195000CE010E946F0C9E012B5E3F4F8C8D60E18B
:1019600070E0681B710940E050E0CE010E94310A2E
:101970008C8D8F5F8C8F06C08B81843011F482E058
:101980008B831C8EDF91CF9108950F931F93CF937C
:10199000DF931F92CDB7DEB78C01DC015C968C9192
:1019A0005C97811130C05D96ED91FC915E976081EE
:1019B000662321F1AE014F5F5F4FC8010E94B5075A
:1019C000A8014B5E5F4F6981C8010E941305F801B1
:1019D000848D882329F041E060E0C8010E946F0CEB
:1019E00081E0D8015C968C93C8010E949F0CF8019D
:1019F000858D968D0196968F858F11C082E0D801D6
:101A000013968C9307C0C8010E949F0CF801848D27
:101A1000811105C041E060E0C8010E946F0C0F9089
:101A2000DF91CF911F910F910895CF93DF93EC0138
:101A30008B81833019F4CE010E94C50C8B818430D8
:101A400029F4CE01DF91CF910C949F0CDF91CF91BF
:101A500008951F920F920FB60F9211242F933F9368
:101A60004F935F936F937F938F939F93AF93BF93A6
:101A7000EF93FF93E091BE01F091BF010995FF91B3
:101A8000EF91BF91AF919F918F917F916F915F91F6
:101A90004F913F912F910F900FBE0F901F9018956F
:101AA000FC01A3E0440F551F661F771FAA95D1F7CD
:101AB0004115510581E06807710514F481E00EC0FD
:101AC00033E075956795579547953A95D1F7411548
:101AD000510581E0680771051CF482E0828331C002
:101AE00023E075956795579547952A95D1F7411548
:101AF000510581E06807710514F483E0EFCF92E0AF
:101B000075956795579547959A95D1F74115510564
:101B100081E06807710514F484E0E0CF82E07595F8
:101B20006795579547958A95D1F785E0828341154A
:101B3000510581E06807710524F04FEF5FEF60E029
:101B400070E08FB78383F89451834083509387006C
:101B50004093860083818FBF80918100887F80932E
:101B60008100909181008281892B8093810008956A
:101B70001092800020E1209381000C94500DE1E848
:101B8000F0E02081DC0112968C91822B80830895F5
:101B90000F931F93CF93DF93EC018B01BA01A9013F
:101BA000141615061606170614F40E94500D1D8310
:101BB0000C8381E080936F00CE01DF91CF911F9164
:101BC0000F910C94BF0D1F920F920FB60F9211241C
:101BD0002F933F934F935F936F937F938F939F9335
:101BE000AF93BF93EF93FF93E091C401F091C501D0
:101BF0000995FF91EF91BF91AF919F918F917F9147
:101C00006F915F914F913F912F910F900FBE0F9069
:101C10001F901895E0ECF1E0108215821482118279
:101C20000895FC01918D228D892F90E0805C9F4F5B
:101C3000821B91098F7399270895FC01918D828DE4
:101C4000981731F0828DE80FF11D858D90E0089591
:101C50008FEF9FEF0895FC01918D828D981761F0B1
:101C6000828DDF01A80FB11D5D968C91928D9F5FD3
:101C70009F73928F90E008958FEF9FEF089585E90D
:101C80009FE0892B49F089E894E0892B29F00E9494
:101C9000950F81110C9489040895FC01848DDF0156
:101CA000A80FB11DA35ABF4F2C91848D90E00196CF
:101CB0008F739927848FA689B7892C93A089B189BE
:101CC0008C9180648C93938D848D981306C00288C8
:101CD000F389E02D80818F7D80830895CF93DF93FA
:101CE000EC01888D8823C9F0EA89FB89808185FD14
:101CF00005C0A889B9898C9186FD0FC00FB607FC75
:101D0000F5CF808185FFF2CFA889B9898C9185FFB5
:101D1000EDCFCE010E944D0EE7CFDF91CF91089518
:101D2000EF92FF920F931F93CF93DF93EC019B8D64
:101D30008C8D981305C0E889F989808185FD27C0BD
:101D4000F62E0B8D10E00F5F1F4F0F731127E02E43
:101D50008C8DE8120CC00FB607FCFACFE889F98920
:101D6000808185FFF5CFCE010E944D0EF1CF8B8D86
:101D7000FE01E80FF11DE35AFF4FF0820B8FEA8955
:101D8000FB8980818062808381E0888F08C0EE8932
:101D9000FF896083E889F98980818064808381E09C
:101DA00090E0DF91CF911F910F91FF90EF900895F8
:101DB000CF92DF92EF92FF921F93CF93DF93EC01CC
:101DC0006A017B01122FE889F98982E0808341153D
:101DD000514E61057105B1F060E079E08DE390E06E
:101DE000A70196010E94D011DA01C9010197A1094A
:101DF000B109B695A79597958795AC01411580E1F6
:101E00005807A8F0E889F989108260E874E88EE143
:101E100090E0A70196010E94D011BA01A90141509A
:101E20005109610971097695679557954795EC8534
:101E3000FD855083EE85FF854083188EEC89FD89F2
:101E40001083EA89FB89808180618083EA89FB892C
:101E5000808188608083EA89FB89808180688083B3
:101E6000EA89FB8980818F7D8083DF91CF911F91EB
:101E7000FF90EF90DF90CF9008951F920F920FB6D2
:101E80000F9211242F938F939F93EF93FF93E091E1
:101E9000D601F091D7018081E091DC01F091DD0164
:101EA00082FD12C090818091DF018F5F8F7320913E
:101EB000E001821751F0E091DF01F0E0EA53FE4FBC
:101EC000958F8093DF0101C08081FF91EF919F91F9
:101ED0008F912F910F900FBE0F901F9018951F920A
:101EE0000F920FB60F9211242F933F934F935F934E
:101EF0006F937F938F939F93AF93BF93EF93FF93D2
:101F000086EC91E00E944D0EFF91EF91BF91AF9151
:101F10009F918F917F916F915F914F913F912F9101
:101F20000F900FBE0F901F90189586EC91E00E94C5
:101F3000110E21E0892B09F420E0822F0895E6ECB0
:101F4000F1E01382128288EE93E0A0E0B0E0848397
:101F50009583A683B78383E491E09183808385ECA6
:101F600090E09587848784EC90E09787868780EC63
:101F700090E0918B808B81EC90E0938B828B82EC54
:101F800090E0958B848B86EC90E0978B868B118EFE
:101F9000128E138E148E089508950E94C5100E940B
:101FA000CC0F0E949802CFE3DEE00E9457042097F6
:101FB000E1F30E943F0EF9CFCF92DF92EF92FF92B2
:101FC0000F931F93CF93DF936C01EB017B01E40E22
:101FD000F51E00E010E0CE15DF0561F06991D60135
:101FE000ED91FC910190F081E02DC6010995080F5B
:101FF000191FF1CFC801DF91CF911F910F91FF9071
:10200000EF90DF90CF9008956115710579F0FB0195
:1020100001900020E9F73197AF01461B570BDC0117
:10202000ED91FC910280F381E02D099480E090E035
:102030000895EF92FF920F931F93CF93DF937C014C
:10204000FB0100E010E06491EF012196662361F04E
:10205000D701ED91FC910190F081E02DC701099528
:10206000080F191FFE01EFCFC801DF91CF911F911B
:102070000F91FF90EF900895DC01ED91FC9101909C
:10208000F081E02D09940F931F93CF93DF93EC0120
:102090006DE00E943C108C016AE0CE010E943C1071
:1020A000800F911FDF91CF911F910F9108950F9392
:1020B0001F93CF93DF93EC010E9419108C01CE0186
:1020C0000E944310800F911FDF91CF911F910F91BC
:1020D00008950F931F93CF93DF93EC010E94041098
:1020E0008C01CE010E944310800F911FDF91CF9190
:1020F0001F910F9108951F920F920FB60F92112406
:102100002F933F938F939F93AF93BF9380916402DC
:1021100090916502A0916602B091670230916302CE
:1021200023E0230F2D3720F40196A11DB11D05C01A
:1021300026E8230F0296A11DB11D20936302809310
:10214000640290936502A0936602B0936702809147
:10215000680290916902A0916A02B0916B020196A7
:10216000A11DB11D8093680290936902A0936A0239
:10217000B0936B02BF91AF919F918F913F912F913F
:102180000F900FBE0F901F901895789484B58260C1
:1021900084BD84B5816084BD85B5826085BD85B50B
:1021A000816085BDEEE6F0E0808181608083E1E8BA
:1021B000F0E01082808182608083808181608083F2
:1021C000E0E8F0E0808181608083E1EBF0E08081F5
:1021D00084608083E0EBF0E0808181608083EAE7C7
:1021E000F0E0808184608083808182608083808150
:1021F000816080838081806880831092C10008950F
:10220000833081F028F4813099F08230A1F0089574
:102210008730A9F08830B9F08430D1F48091800003
:102220008F7D03C0809180008F7780938000089518
:1022300084B58F7702C084B58F7D84BD0895809169
:10224000B0008F7703C08091B0008F7D8093B00085
:102250000895CF93DF9390E0FC01E057FB4F24916A
:10226000FC01EC55FB4F8491882361F190E0880FCD
:10227000991FFC01EE53FB4FC591D491FC01E8542A
:10228000FB4FA591B491611109C09FB7F894888163
:10229000209582238883EC912E230BC0623061F459
:1022A0009FB7F8943881822F809583238883EC919F
:1022B0002E2B2C939FBF06C08FB7F894E8812E2B4E
:1022C00028838FBFDF91CF9108951F93CF93DF9322
:1022D000282F30E0F901E458FB4F8491F901E057D1
:1022E000FB4FD491F901EC55FB4FC491CC23C9F0BD
:1022F000162F81110E940011EC2FF0E0EE0FFF1F4E
:10230000E854FB4FA591B4918FB7F894111105C013
:102310009C91ED2FE095E92302C0EC91ED2BEC931D
:102320008FBFDF91CF911F910895BF92CF92DF921F
:10233000EF92FF920F931F93CF93DF93C82ED62E69
:10234000B42EC7E0D0E0022F10E087E0E82EF12C99
:10235000B11005C0C7018C1B9D0B980102C09801EC
:102360008C2F02C0359527958A95E2F7B9016170E7
:1023700077278C2D0E94651161E08D2D0E946511DB
:1023800060E08D2D0E946511219710F7DF91CF91AC
:102390001F910F91FF90EF90DF90CF90BF90089525
:1023A000A1E21A2EAA1BBB1BFD010DC0AA1FBB1F59
:1023B000EE1FFF1FA217B307E407F50720F0A21BCB
:1023C000B30BE40BF50B661F771F881F991F1A9438
:1023D00069F760957095809590959B01AC01BD0162
:1023E000CF0108950E94FF11B7FF0895821B930B40
:1023F0000895EE0FFF1F0590F491E02D0994A29F20
:10240000B001B39FC001A39F700D811D1124911DC8
:10241000B29F700D811D1124911D0895FC01882724
:102420009927E89421912032E9F3293010F02E30D9
:10243000C8F32B3241F02D3239F4689404C00E9465
:102440008412820F911D219120532A30C0F31EF473
:10245000909581959F4F0895FB01DC0102C0059086
:102460000D9241505040D8F7089540E551E00E9448
:102470005D120895FC018191861721F08823D9F718
:10248000992708953197CF010895FB01DC018D91C3
:10249000019080190110D9F3990B0895FB01DC011B
:1024A0004150504048F001900D920020C9F701C002
:1024B0001D9241505040E0F70895FA01A191B0817A
:1024C000009719F41097E1F0CD01DC01CD010D90DA
:1024D000002011F4C00113C0FB012191222319F047
:1024E0002015D9F7F3CFFB012191201519F41E9285
:1024F000119606C02223C1F70D900020A1F7D0014C
:10250000FA01A193B08308957AE0979F902D879F59
:10251000802D910D1124089512E0C9E6D2E004C087
:10252000FE010E94F9112196CA36D107C9F7F89425
:02253000FFCFDB
:10253200416E647265617300416E647265617320FD
:102542004275726E69636B6C007465787453686966
:102552006674007465787400696E74656E7369746C
:102562007900737065656400736574446F7400006C
:10257200000000900EDC0F110E2B0E1D0E6E0E00D1
:00000001FF
