:100000000C9433020C945B020C945B020C945B0224
:100010000C945B020C945B020C945B020C945B02EC
:100020000C945B020C945B020C945B020C945B02DC
:100030000C945B020C94D7060C945B020C945B024C
:100040000C94D4090C945B020C94BD080C94EF083A
:100050000C945B020C945B020C945B020C945B02AC
:100060000C945B020C945B024578616D706C653A90
:1000700020746578743D6578616D706C6520746579
:10008000787400636F6D6D616E6420616E642076BC
:10009000616C75652068617320746F2062652073E0
:1000A000657061726174656420627920616E20659B
:1000B0007175616C207369676E006B6E6F776E206F
:1000C000636F6D6D616E6473206172653A20746553
:1000D00078742C20696E74656E7369747920616E12
:1000E0006420737065656400636F6D6D616E64207C
:1000F000646F6573206E6F74206D61746368007344
:10010000706565642072616E67652031202E2E2E29
:100110002031300076616C7565206F7574206F66D4
:100120002072616E676500696E74656E73697479BB
:100130002072616E67652031202E2E2E2031360010
:1001400076616C7565206F7574206F662072616EC4
:100150006765000308000000000001085F00000060
:1001600000030803000300000508143E143E1404B5
:1001700008246A2B12000508631308646305083617
:10018000495620500108030000000003081C2241CA
:100190000000030841221C0000050828180E18283A
:1001A000050808083E08080208B0700000000408AE
:1001B00008080808000208606000000004086018D1
:1001C00006010004083E41413E000308427F400012
:1001D00000040862514946000408224149360004DF
:1001E000081814127F000408274545390004083E0A
:1001F00049493000040861110907000408364949DB
:10020000360004080649493E00020850000000007C
:100210000208805000000003081028440000030872
:1002200014141400000308442810000004080259A4
:1002300009060005083E49555D0E04087E11117E31
:100240000004087F4949360004083E414122000469
:10025000087F41413E0004087F4949410004087F6E
:100260000909010004083E41497A0004087F080892
:100270007F000308417F41000004083040413F00F7
:1002800004087F0814630004087F4040400005080C
:100290007F020C027F05087F0408107F04083E419E
:1002A000413E0004087F0909060004083E4141BEA2
:1002B0000004087F09097600040846494932000510
:1002C0000801017F010104083F40403F0005080F7D
:1002D0003040300F05083F4038403F0508631408A0
:1002E00014630508070870080704086151494700AE
:1002F00002087F410000000408010618600003089E
:1003000002010200000408404040400002080102CF
:100310000000000408205454780004087F44443846
:10032000000408384444280004083844447F00048A
:100330000838545418000308047E05000004089887
:10034000A4A4780004087F040478000308447D40D6
:10035000000004084080847D0004087F10284400C9
:100360000308417F40000005087C047C04780408F1
:100370007C04047800040838444438000408FC2451
:100380002418000408182424FC0004087C08040431
:1003900000040848545424000308043F44000004A7
:1003A000083C40407C0005081C2040201C05083CFF
:1003B000403C403C0508442810284404089CA0A068
:1003C0007C00030864544C00000308083641000018
:1003D00001087F00000000030841360800000408FF
:1003E000080408040004087C13137C0004083C4340
:1003F000433C0004083E41413E0004082056567824
:10040000000408384646380004083C42427C00009C
:1004100000000800020100000304070000000000C3
:1004200000000001020408102040800102040810AE
:10043000200102040810200404040404040404023B
:10044000020202020203030303030300000000256B
:100450000028002B0000000000240027002A0000D4
:1004600098031F099F0311241FBECFEFD8E0DEBF02
:10047000CDBF11E0A0E0B1E0E8EBF7E102C00590EC
:100480000D92A633B107D9F722E0A6E3B1E001C08F
:100490001D92A234B207E1F712E0C2E3D2E004C039
:1004A0002197FE010E944B0BC033D107C9F70E9470
:1004B0004D090C94CF0B0C94000081E080934E0109
:1004C000089540E45DE063E070E086E991E00E9419
:1004D00066072FEF3FEFA9016DE572E086E991E035
:1004E0000E94760788E391E00E9499044DE150E074
:1004F00060E071E08FE491E00E94910B10926C013A
:1005000010926D0110924E0126E040E855E260E045
:1005100070E08CE991E00C94580868EE70E08CE98A
:1005200091E00E94C2096AEB70E08CE991E00E94C0
:10053000C20963E870E08CE991E00E94C20968E6B4
:1005400070E08CE991E00C94C209CF93DF93CDB7B2
:10055000DEB7AA970FB6F894DEBF0FBECDBF1F8ED1
:1005600018A219A21AA2FE01B39686E0DF011D921D
:100570008A95E9F719821A821B821C827E978AE18A
:10058000DF011D928A95E9F78DE390E09AA789A78C
:100590006DE370E08EE691E00E947D0B892B09F4FB
:1005A00099C0BE01675D7F4F8EE691E00E94780B97
:1005B000009741F049E050E0BC01CE014F960E9407
:1005C000910B18A6BE01675D7F4F80E090E00E940E
:1005D000780B009741F04DE150E0BC01CE0101964F
:1005E0000E94910B1E8E61E171E0CE014F960E9438
:1005F000880B892BB1F44DE150E0BE016F5F7F4F56
:100600008FE491E00E94910B10926C0188E391E0DD
:100610000E9481046FE471E088E391E00E94260566
:100620005BC066E171E0CE014F960E94880B892B7A
:10063000D1F4CE0101960E94510B9C012150310949
:100640002031310538F46FEF680F88E391E00E94A4
:10065000150442C060E471E08CE991E00E94C20997
:1006600067E271E032C060E271E0CE014F960E9415
:10067000880B892B79F5CE0101960E94510B9C01C4
:100680002150310924363105C0F425E630E0A901B6
:10069000481B590BCA0120E137E2829FA001839FCA
:1006A000500D929F500D1124052E000C660B770BF8
:1006B00086E991E00E94FE060FC064E171E08CE9DA
:1006C00091E00E94C2096FEF70E08CE991E00E9416
:1006D000C20902C00E948D02AA960FB6F894DEBF2E
:1006E0000FBECDBFDF91CF91089580916D0188231A
:1006F00031F00E94A50210926E0110926D0180915E
:100700004E018823A1F080914D01833021F488E3CC
:1007100091E00E94C30680914D01823031F46FE474
:1007200071E088E391E00E94260510924E01089541
:100730002BE04AE06CE088E391E00C94CB0388E383
:1007400091E00C94E5031F93CF93DF93CEE6D1E0C5
:1007500011E08CE991E00E949107892BC1F08CE9AE
:1007600091E00E94AB078A3019F410936D01F1CF2C
:10077000FE0101900020E9F73197EE56F140E73293
:10078000F1053CF7E259FE4F80831182E2CFDF9101
:10079000CF911F910895CF93DF93FC016083418334
:1007A0002283148A138A128A158AEC012396DC01AB
:1007B0001B961992CA17DB07E1F772961D92AE17C6
:1007C000BF07E1F7DF91CF9108950895EF92FF926F
:1007D0001F93CF93DF931F92CDB7DEB77C01262FF7
:1007E000142F60E0FC01818129830E94BE0A2981C7
:1007F00041E0F701628180810E94EE0A212F41E0F1
:10080000F701628180810E94EE0A60E0F701818138
:100810000E94BE0A61E0F70181810F90DF91CF91C4
:100820001F91FF90EF900C94BE0A603130F4462F78
:100830006AE00E94E60380E0089581E008950F9346
:100840001F93CF93DF93693058F5042F162FEC01D7
:1008500060E089810E94BE0A183041F420E041E046
:100860006A8188810E94EE0A20E008C021E0210F01
:1008700041E06A8188810E94EE0A202F41E06A816E
:1008800088810E94EE0A60E089810E94BE0A61E0D0
:1008900089810E94BE0AC10FD11D0B8380E001C077
:1008A00081E0DF91CF911F910F9108950F931F93D6
:1008B000CF93DF936930F8F4042F162FEC0160E03A
:1008C00089810E94BE0A21E0210F41E06A8188816E
:1008D0000E94EE0A202F41E06A8188810E94EE0A80
:1008E0000B8360E089810E94BE0A61E089810E94D9
:1008F000BE0A80E001C081E0DF91CF911F910F918E
:1009000008951F93CF93DF93EC0110E040E0612F37
:10091000CE010E9456041F5F1830C1F7FE013396C6
:100920002B961192EC17FD07E1F7DF91CF911F9104
:100930000895CF93DF93EC0181E08D8B61E0888196
:100940000E94820A61E08A810E94820A61E08981B4
:100950000E94820A61E08A810E94BE0A47E06BE041
:10096000CE010E94E60340E069E0CE010E94E6036A
:1009700041E06CE0CE010E94E60340E06FE0CE0172
:100980000E94E603CE010E94810464E0CE010E9431
:10099000150482E08D8BDF91CF910895EF92FF9245
:1009A0000F931F93CF93DF93683008F047C0483010
:1009B00008F044C0E62EF12CFC01EE0DFF1D2223B1
:1009C00071F001E010E020E030E004C0000F111FE2
:1009D000221F331F4A95D2F74381042B0EC001E03A
:1009E00010E020E030E004C0000F111F221F331F71
:1009F0004A95D2F70095238102230383162FEC0139
:100A000060E089810E94BE0A21E0210F41E06A81F5
:100A100088810E94EE0AFE01EE0DFF1D238141E058
:100A20006A8188810E94EE0A60E089810E94BE0A84
:100A300061E089810E94BE0A80E001C081E0DF910F
:100A4000CF911F910F91FF90EF9008950F931F93F7
:100A5000CF93DF936115710559F08B01EC010E9472
:100A600081041A8A1C8B0B8B83E08D8B80E001C084
:100A700081E0DF91CF911F910F910895643668F462
:100A8000CA0127E0629FB00111246D5A7E4F47E0F2
:100A900050E00E946F0B80E0089581E008952F924E
:100AA0003F924F925F926F927F928F929F92AF92FE
:100AB000BF92CF92DF92EF92FF920F931F93CF934B
:100AC000DF9300D000D01F92CDB7DEB74C016B0191
:100AD0003A015901F9014080512CE180F12CF8E0F4
:100AE000EF16F104C9F4452BB9F400E010E0041549
:100AF00015050CF04FC0C8018C0D9D1D089748F4DA
:100B0000F501E00FF11F4281602F6C0DC4010E94BE
:100B10001F040F5F1F4FEBCF1D821C828C819D81B4
:100B200084159505BCF500E010E02C803D802C0C70
:100B30003D1C8C819D818A0D9B1D9A8389833C81FC
:100B40003C0D0E151F0504F588E028163104C8F485
:100B5000C801860D971D0897A0F4E981FA8182816A
:100B600090E0002E02C0959587950A94E2F7282F11
:100B70002170402F460D632FC4013B830E94CE0499
:100B80003B810F5F1F4FDDCFEC81FD813196FD83EF
:100B9000EC83C4CF0F900F900F900F900F90DF91C8
:100BA000CF911F910F91FF90EF90DF90CF90BF906A
:100BB000AF909F908F907F906F905F904F903F90FD
:100BC0002F900895EF92FF921F93CF93DF93EC0144
:100BD0007C0183E0E80EF11C11E060E089810E9455
:100BE000BE0A212F41E06A8188810E94EE0AF70146
:100BF00021917F0141E06A8188810E94EE0A60E0D4
:100C000089810E94BE0A61E089810E94BE0A1F5F3D
:100C1000193019F7DF91CF911F91FF90EF90089550
:100C2000CF93DF93FC0123813496DC011C96319134
:100C3000EF0122973883EA17FB07C9F7662319F0FB
:100C4000FC01228704C0442311F0FC011286DF91CD
:100C5000CF910C94E205CF93DF93EC019A898B85B9
:100C60008917B0F041E060E0CE010E9410069E01BD
:100C7000255F3F4F8A8968E070E0681B710940E09A
:100C800050E0CE010E944F058A898F5F8A8B06C093
:100C90008D89843011F482E08D8B1A8ADF91CF9197
:100CA0000895FA01643C11F48FE513C0663D11F418
:100CB00080E60FC06C3D11F481E60BC0643E11F478
:100CC00082E607C0663F11F483E603C06C3F19F467
:100CD00084E6808304C060526F3518F4608380E03E
:100CE000089581E008950F931F93CF93DF931F9290
:100CF000CDB7DEB78C01DC0152968C9152978111F1
:100D000030C05396ED91FC9154976081662321F198
:100D1000AE014F5F5F4FC8010E945106A801455FB9
:100D20005F4F6981C8010E943E05F80182898823CE
:100D300029F041E060E0C8010E94100681E0D8017E
:100D400052968C93C8010E942B06F80183899489DE
:100D50000196948B838B11C082E0D80155968C93B9
:100D600007C0C8010E942B06F8018289811105C0C5
:100D700041E060E0C8010E9410060F90DF91CF9122
:100D80001F910F910895CF93DF93EC018D898330EC
:100D900019F4CE010E9473068D89843029F4CE01A6
:100DA000DF91CF910C942B06DF91CF9108951F9284
:100DB0000F920FB60F9211242F933F934F935F938F
:100DC0006F937F938F939F93AF93BF93EF93FF9313
:100DD000E0919A01F0919B010995FF91EF91BF91EC
:100DE000AF919F918F917F916F915F914F913F91C3
:100DF0002F910F900FBE0F901F901895FC01A3E04C
:100E0000440F551F661F771FAA95D1F7411551054D
:100E100081E06807710514F481E00EC033E0759538
:100E20006795579547953A95D1F74115510581E05A
:100E3000680771051CF482E0828331C023E0759558
:100E40006795579547952A95D1F74115510581E04A
:100E50006807710514F483E0EFCF92E0759567950C
:100E6000579547959A95D1F74115510581E0680747
:100E7000710514F484E0E0CF82E07595679557958D
:100E800047958A95D1F785E082834115510581E028
:100E90006807710524F04FEF5FEF60E070E08FB7F7
:100EA0008383F89451834083509387004093860056
:100EB00083818FBF80918100887F80938100909192
:100EC00081008281892B8093810008951092800097
:100ED00020E1209381000C94FE06E1E8F0E02081FF
:100EE000DC0112968C91822B808308950F931F93BF
:100EF000CF93DF93EC018B01BA01A90114161506FB
:100F00001606170614F40E94FE061D830C8381E06A
:100F100080936F00CE01DF91CF911F910F910C94C0
:100F20006D07FC01918D228D892F90E0805C9F4F91
:100F3000821B91098F7399270895FC01918D828DF1
:100F4000981731F0828DE80FF11D858D90E008959E
:100F50008FEF9FEF0895FC01918D828D981761F0BE
:100F6000828DDF01A80FB11D5D968C91928D9F5FE0
:100F70009F73928F90E008958FEF9FEF089585E122
:100F800099E0892B49F083EA93E0892B29F00E94AC
:100F9000150981110C94A3030895FC01848DDF01D0
:100FA000A80FB11DA35ABF4F2C91848D90E00196DC
:100FB0008F739927848FA689B7892C93A089B189CB
:100FC0008C9180648C93938D848D981306C00288D5
:100FD000F389E02D80818F7D80830895CF93DF9307
:100FE000EC01888D8823C9F0EA89FB89808185FD21
:100FF00005C0A889B9898C9186FD0FC00FB607FC82
:10100000F5CF808185FFF2CFA889B9898C9185FFC2
:10101000EDCFCE010E94CD07E7CFDF91CF910895AC
:10102000EF92FF920F931F93CF93DF93EC019B8D71
:101030008C8D981305C0E889F989808185FD27C0CA
:10104000F62E0B8D10E00F5F1F4F0F731127E02E50
:101050008C8DE8120CC00FB607FCFACFE889F9892D
:10106000808185FFF5CFCE010E94CD07F1CF8B8D1A
:10107000FE01E80FF11DE35AFF4FF0820B8FEA8962
:10108000FB8980818062808381E0888F08C0EE893F
:10109000FF896083E889F98980818064808381E0A9
:1010A00090E0DF91CF911F910F91FF90EF90089505
:1010B000CF92DF92EF92FF921F93CF93DF93EC01D9
:1010C0006A017B01122FE889F98982E0808341154A
:1010D000514E61057105B1F060E079E08DE390E07B
:1010E000A70196010E94290BDA01C9010197A10904
:1010F000B109B695A79597958795AC01411580E103
:101100005807A8F0E889F989108260E874E88EE150
:1011100090E0A70196010E94290BBA01A901415054
:101120005109610971097695679557954795EC8541
:10113000FD855083EE85FF854083188EEC89FD89FF
:101140001083EA89FB89808180618083EA89FB8939
:10115000808188608083EA89FB89808180688083C0
:10116000EA89FB8980818F7D8083DF91CF911F91F8
:10117000FF90EF90DF90CF9008951F920F920FB6DF
:101180000F9211242F938F939F93EF93FF93E091EE
:10119000AC01F091AD018081E091B201F091B30119
:1011A00082FD12C090818091B5018F5F8F73209175
:1011B000B601821751F0E091B501F0E0E456FE4F20
:1011C000958F8093B50101C08081FF91EF919F9130
:1011D0008F912F910F900FBE0F901F9018951F9217
:1011E0000F920FB60F9211242F933F934F935F935B
:1011F0006F937F938F939F93AF93BF93EF93FF93DF
:101200008CE991E00E94CD07FF91EF91BF91AF91E2
:101210009F918F917F916F915F914F913F912F910E
:101220000F900FBE0F901F9018958CE991E00E94CF
:10123000910721E0892B09F420E0822F0895ECE941
:10124000F1E01382128288EE93E0A0E0B0E08483A4
:101250009583A683B7838AE291E09183808385ECAE
:1012600090E09587848784EC90E09787868780EC70
:1012700090E0918B808B81EC90E0938B828B82EC61
:1012800090E0958B848B86EC90E0978B868B118E0B
:10129000128E138E148E089508950E941E0A0E94C5
:1012A0004C090E946102CFEBD7E00E9475032097A2
:1012B000E1F30E94BF07F9CFCF92DF92EF92FF9246
:1012C0000F931F93CF93DF936C01EB017B01E40E2F
:1012D000F51E00E010E0CE15DF0561F06991D60142
:1012E000ED91FC910190F081E02DC6010995080F68
:1012F000191FF1CFC801DF91CF911F910F91FF907E
:10130000EF90DF90CF900895EF92FF920F931F938D
:10131000CF93DF937C01FB0100E010E06491EF01CB
:101320002196662361F0D701ED91FC910190F08147
:10133000E02DC7010995080F191FFE01EFCFC80165
:10134000DF91CF911F910F91FF90EF900895DC01F5
:10135000ED91FC910190F081E02D09940F931F9382
:10136000CF93DF93EC016DE00E94A7098C016AE046
:10137000CE010E94A709800F911FDF91CF911F918D
:101380000F9108950F931F93CF93DF93EC010E9469
:1013900084098C01CE010E94AE09800F911FDF915C
:1013A000CF911F910F9108951F920F920FB60F9238
:1013B00011242F933F938F939F93AF93BF9380916B
:1013C0003A0290913B02A0913C02B0913D023091D3
:1013D000390223E0230F2D3720F40196A11DB11D02
:1013E00005C026E8230F0296A11DB11D20933902E6
:1013F00080933A0290933B02A0933C02B0933D024B
:1014000080913E0290913F02A0914002B091410232
:101410000196A11DB11D80933E0290933F02A093BF
:101420004002B0934102BF91AF919F918F913F9144
:101430002F910F900FBE0F901F901895789484B540
:10144000826084BD84B5816084BD85B5826085BDC0
:1014500085B5816085BDEEE6F0E0808181608083A6
:10146000E1E8F0E010828081826080838081816089
:101470008083E0E8F0E0808181608083E1EBF0E050
:10148000808184608083E0EBF0E0808181608083F4
:10149000EAE7F0E0808184608083808182608083DD
:1014A0008081816080838081806880831092C10008
:1014B0000895833081F028F4813099F08230A1F0D2
:1014C00008958730A9F08830B9F08430D1F4809144
:1014D00080008F7D03C0809180008F778093800093
:1014E000089584B58F7702C084B58F7D84BD08953B
:1014F0008091B0008F7703C08091B0008F7D809382
:10150000B0000895CF93DF9390E0FC01ED5DFB4FB9
:101510002491FC01E95CFB4F8491882361F190E008
:10152000880F991FFC01EB5AFB4FC591D491FC0128
:10153000E55BFB4FA591B491611109C09FB7F89489
:101540008881209582238883EC912E230BC0623002
:1015500061F49FB7F8943881822F80958323888324
:10156000EC912E2B2C939FBF06C08FB7F894E88187
:101570002E2B28838FBFDF91CF9108951F93CF9398
:10158000DF93282F30E0F901E15FFB4F8491F901EF
:10159000ED5DFB4FD491F901E95CFB4FC491CC2385
:1015A000C9F0162F81110E94590AEC2FF0E0EE0FBE
:1015B000FF1FE55BFB4FA591B4918FB7F894111114
:1015C00005C09C91ED2FE095E92302C0EC91ED2B35
:1015D000EC938FBFDF91CF911F910895BF92CF926F
:1015E000DF92EF92FF920F931F93CF93DF93C82E5A
:1015F000D62EB42EC7E0D0E0022F10E087E0E82E10
:10160000F12CB11005C0C7018C1B9D0B980102C0C5
:1016100098018C2F02C0359527958A95E2F7B9017C
:10162000617077278C2D0E94BE0A61E08D2D0E948B
:10163000BE0A60E08D2D0E94BE0A219710F7DF914F
:10164000CF911F910F91FF90EF90DF90CF90BF90BF
:101650000895A1E21A2EAA1BBB1BFD010DC0AA1FF3
:10166000BB1FEE1FFF1FA217B307E407F50720F00B
:10167000A21BB30BE40BF50B661F771F881F991F86
:101680001A9469F760957095809590959B01AC01CF
:10169000BD01CF010895EE0FFF1F0590F491E02DDD
:1016A0000994FC0188279927E89421912032E9F3D5
:1016B000293010F02E30C8F32B3241F02D3239F49E
:1016C000689404C00E94C70B820F911D2191205382
:1016D0002A30C0F31EF4909581959F4F0895FB0129
:1016E000DC0102C005900D9241505040D8F708959A
:1016F00046E351E00E94A00B0895FC0181918617FA
:1017000021F08823D9F7992708953197CF010895BB
:10171000FB01DC018D91019080190110D9F3990B27
:101720000895FB01DC014150504048F001900D92BA
:101730000020C9F701C01D9241505040E0F70895C4
:10174000FA01A191B081009719F41097E1F0CD0151
:10175000DC01CD010D90002011F4C00113C0FB018C
:101760002191222319F02015D9F7F3CFFB01219104
:10177000201519F41E92119606C02223C1F70D9070
:101780000020A1F7D001FA01A193B08308957AE077
:10179000979F902D879F802D910D1124089512E021
:1017A000C2E3D2E004C0FE010E944B0B2196C3337A
:0817B000D107C9F7F894FFCF3F
:1017B800416E6472656173204275726E69636B6C09
:1017C800007465787400696E74656E736974790065
:1017D8007370656564000000000010085C099107DB
:0617E800AB079D07EE07B0
:00000001FF
