:100000000C9466020C948E020C948E020C948E0258
:100010000C948E020C948E020C948E020C948E0220
:100020000C948E020C948E020C948E020C948E0210
:100030000C948E020C941E0B0C948E020C948E0267
:100040000C94420E0C948E020C94040D0C94360DFC
:100050000C948E020C948E020C948E020C948E02E0
:100060000C948E020C948E024578616D706C653A2A
:1000700020746578743D6578616D706C6520746579
:10008000787400636F6D6D616E6420616E642076BC
:10009000616C75652068617320746F2062652073E0
:1000A000657061726174656420627920616E20659B
:1000B0007175616C207369676E006B6E6F776E206F
:1000C000636F6D6D616E6473206172653A20746553
:1000D00078742C20696E74656E7369747920616E12
:1000E0006420737065656400636F6D6D616E64207C
:1000F000646F6573206E6F74206D61746368007344
:10010000706565642072616E6765204D41584D4190
:10011000545249585F53504545445F4D494E5F56D0
:10012000414C5545202E2E2E204D41584D415452C4
:1001300049585F53504545445F4D41585F56414CC7
:1001400055450076616C7565206F7574206F66206B
:1001500072616E676500696E74656E73697479208B
:1001600072616E6765204D41584D41545249585F48
:10017000494E54454E534954595F4D494E5F56417F
:100180004C5545202E2E2E204D41584D415452495C
:10019000585F494E54454E534954595F4D41585F3D
:1001A00056414C55450076616C7565206F7574201D
:1001B0006F662072616E6765000308000000000032
:1001C00001085F00000000030803000300000508A9
:1001D000143E143E140408246A2B1200050863130D
:1001E00008646305083649562050010803000000E2
:1001F0000003081C22410000030841221C000005E6
:100200000828180E1828050808083E08080208B033
:100210007000000004080808080800020860600078
:1002200000000408601806010004083E41413E0039
:100230000308427F40000004086251494600040858
:10024000224149360004081814127F00040827458B
:1002500045390004083E4949300004086111090786
:10026000000408364949360004080649493E0002A0
:100270000850000000000208805000000003081031
:100280002844000003081414140000030844281034
:1002900000000408025909060005083E49555D0E94
:1002A00004087E11117E0004087F494936000408C5
:1002B0003E4141220004087F41413E0004087F493D
:1002C00049410004087F0909010004083E41497AB8
:1002D0000004087F08087F000308417F41000004F4
:1002E000083040413F0004087F0814630004087F81
:1002F0004040400005087F020C027F05087F04088B
:10030000107F04083E41413E0004087F09090600B1
:1003100004083E4141BE0004087F09097600040834
:100320004649493200050801017F010104083F40A8
:10033000403F0005080F3040300F05083F4038406F
:100340003F050863140814630508070870080704CC
:1003500008615149470002087F410000000408017C
:100360000618600003080201020000040840404033
:1003700040000208010200000004082054547800E4
:1003800004087F4444380004083844442800040822
:100390003844447F00040838545418000308047E8D
:1003A000050000040898A4A4780004087F040478D9
:1003B000000308447D40000004084080847D000460
:1003C000087F102844000308417F40000005087C96
:1003D000047C047804087C0404780004083844444D
:1003E00038000408FC242418000408182424FC0005
:1003F00004087C080404000408485454240003083A
:10040000043F44000004083C40407C0005081C20D8
:1004100040201C05083C403C403C0508442810286E
:100420004404089CA0A07C00030864544C00000312
:1004300008083641000001087F0000000003084161
:10044000360800000408080408040004087C13139C
:100450007C0004083C43433C0004083E41413E000C
:100460000408205656780004083846463800040828
:100470003C42427C0000000008000201000003042E
:1004800007000000000000000001020408102040E6
:100490008001020408102001020408102004040452
:1004A000040404040402020202020203030303031D
:1004B0000300000000250028002B0000000000249D
:1004C0000027002A00007A04660D810411241FBE53
:1004D000CFEFD8E0DEBFCDBF11E0A0E0B1E0E0ECAF
:1004E000F0E202C005900D92A035B107D9F722E0E5
:1004F000A0E5B1E001C01D92A636B207E1F712E017
:10050000C5E6D2E004C02197FE010E94C00FC336A9
:10051000D107C9F70E94940D0C9453100C9400005D
:1005200081E080937201089540E45DE063E070E053
:100530008AEB91E00E94AD0B2FEF3FEFA90160E93C
:1005400072E08AEB91E00E94BD0B26E040E855E2A4
:1005500060E070E080EC91E00E949F0C83E591E008
:100560000E94A30861E083E591E00E948D0560E0B0
:1005700071E083E591E00E94460A4DE150E068E0B9
:1005800071E083E791E00E941510109290011092A3
:1005900091011092720181E080935201089568EEFA
:1005A00070E080EC91E00E941E0E6AEB70E080EC3F
:1005B00091E00E941E0E63E870E080EC91E00E94E2
:1005C0001E0E68E670E080EC91E00C941E0E0F9316
:1005D0001F93CF93DF93CDB7DEB7E6970FB6F894AE
:1005E000DEBF0FBECDBF1F8E18A219A21AA2FE0138
:1005F000B39686E0DF011D928A95E9F719821A8287
:100600001B821C827E978AE1DF011D928A95E9F7A1
:100610008DE390E09DAB8CAB8CE290E09BAB8AAB22
:100620006DE370E082E991E00E940110892B09F4EA
:1006300026C1BE016C5C7F4F82E991E00E94FC0FF5
:10064000009741F049E050E0BC01CE014F960E9476
:10065000151018A6BE016C5C7F4F80E090E00E94F0
:10066000FC0F009741F04DE150E0BC01CE01019636
:100670000E9415101E8E69E171E0CE014F960E9416
:100680000C10892BE9F480915201823019F082E03C
:10069000809352014DE150E0BE016F5F7F4F83E7D1
:1006A00091E00E9415101092900183E591E00E9464
:1006B0008B0863E771E083E591E00E940205E8C0E2
:1006C00063E271E0CE014F960E940C10892BE9F491
:1006D00080915201813019F081E0809352014DE107
:1006E00050E0BE016F5F7F4F83E791E00E941510DD
:1006F0001092900183E591E00E948B0863E771E01E
:1007000083E591E00E94460AC3C068E271E0CE0131
:100710004F960E940C10892BD1F4CE0101960E94B5
:10072000D50F9C01215031092031310538F46FEF8C
:10073000680F83E591E00E94F804AAC066EA71E0C0
:1007400080EC91E00E941E0E66E571E029C062E334
:1007500071E0CE014F960E940C10892B31F5CE012D
:1007600001960E94D50F9C01215031092431310599
:1007700078F4A5E1B0E0A81BB90B20E533EC0E94AA
:10078000B90FAB01BC018AEB91E00E94450B80C020
:1007900063E471E080EC91E00E941E0E6FEF70E068
:1007A00080EC91E00E941E0E73C068E371E0CE0100
:1007B0004F960E940C10892B09F061C08091520164
:1007C000813039F081E08093520183E591E00E940D
:1007D0008B081FA618AA19AA1CA61DA61EA619A634
:1007E0001AA61BA6BE016E5C7F4FCE0101960E9429
:1007F000FC0F009741F042E050E0BC01CE018F9623
:100800000E94151019AABE016E5C7F4F80E090E037
:100810000E94FC0F009741F042E050E0BC01CE0185
:100820008C960E9415101EA6BE016E5C7F4F80E064
:1008300090E00E94FC0F009741F042E050E0BC01C4
:10084000CE0189960E9415101BA6CE0189960E94A2
:10085000D50F8C01CE018C960E94D50F482FCE016A
:100860008F964EAB0E94D50F682F21E04EA9012B29
:1008700009F420E083E591E00E94840909C0BE01EB
:10088000615E7F4F80EC91E00E94300E0E94CF02AB
:10089000E6960FB6F894DEBF0FBECDBFDF91CF91C5
:1008A0001F910F91089580919101882331F00E944A
:1008B000E7021092920110929101809172018823B7
:1008C000C1F0809152018230A1F480917001833097
:1008D00021F483E591E00E940A0B8091700182303F
:1008E00031F463E771E083E591E00E940205109224
:1008F000720108952BE04AE06CE083E591E00C94EE
:10090000AD0483E591E00C94C8041F93CF93DF936B
:10091000C2E9D1E011E080EC91E00E94D80B892B74
:10092000C1F080EC91E00E94F20B8A3019F4109330
:100930009101F1CFFE0101900020E9F73197E259D2
:10094000F140E732F1053CF7EE56FE4F808311820D
:10095000E2CFDF91CF911F910895CF93DF93FC01F8
:10096000608341832283148E138E128E168E158E11
:10097000EC012396DC0153961992CA17DB07E1F7C5
:100980007A961D92AE17BF07E1F7DF91CF910895D8
:100990000895EF92FF920F931F93CF93DF93EC0193
:1009A000E62EF42E60E089810E942C0F02E010E018
:1009B0002E2D41E06A8188810E945C0F2F2D41E03D
:1009C0006A8188810E945C0F0130110519F001E0F5
:1009D00010E0EECF60E089810E942C0F61E08981F8
:1009E000DF91CF911F910F91FF90EF900C942C0FFE
:1009F000603130F4462F6AE00E94C90480E0089517
:100A000081E00895FC016115710539F0128E748F33
:100A1000638F83E0858F80E0089581E008956436D8
:100A200068F4CA0127E0629FB001112467547E4F29
:100A300047E050E00E94F30F80E0089581E00895C0
:100A40006295962F937384E0989F900111246C7C9B
:100A500066956695262B822F8575880F2A7A2695AE
:100A6000822B0895DF92EF92FF920F931F93CF9303
:100A7000DF93EC0100E010E060E089810E942C0F20
:100A8000E12CF12CDD24D394D00E2D2D41E06A8190
:100A900088810E945C0FF701E00FF11FEC0FFD1F32
:100AA000238141E06A8188810E945C0F88E0E80E22
:100AB000F11C80E1E816F10441F760E089810E94B1
:100AC0002C0F61E089810E942C0F0F5F1F4F0830AF
:100AD000110591F6DF91CF911F910F91FF90EF904B
:100AE000DF900895CF93DF93FC0123813496DC01DE
:100AF00054963191EF0122973883EA17FB07C9F723
:100B0000662319F0FC01228B04C0442311F0FC0180
:100B1000128ADF91CF910C9432052F923F924F921F
:100B20005F926F927F928F929F92AF92BF92CF927D
:100B3000DF92EF92FF920F931F93CF93DF93CDB786
:100B4000DEB768970FB6F894DEBF0FBECDBFFC01CD
:100B5000868D681709F407C2811104C0613099F0CD
:100B600090E0AAC0813021F4623069F090E0ABC01F
:100B7000823021F4633039F090E0ACC0833009F06A
:100B80009FC0611104C19E012F5F3F4F3A8B298B9B
:100B900007E010E07901CC24C394D12C412C512CD6
:100BA000320143941601002E02C0220C331C0A9419
:100BB000E2F728E030E09FEF920F2115310561F157
:100BC000AF01420F531FDA0112964C9150E04221BF
:100BD0005321452B81F45301420104C0880C991C18
:100BE000AA1CBB1C9A95D2F7982D9095A989BA8911
:100BF0004C9194230DC05301420104C0880C991CF0
:100C0000AA1CBB1C9A95D2F7A989BA899C919829EC
:100C10009C9321503109CFCF0150110929893A897C
:100C20002F5F3F4F3A8B298B0F3F3FEF130709F0A0
:100C3000B9CF27E030E07FE0CC24C394D12C412C05
:100C4000512C320143941601022E02C0220C331C97
:100C50000A94E2F740E150E0972F921B8701090FB9
:100C6000111D97EF940F4830510501F1DF01A40FDA
:100C7000B51F1296AC91B0E0A221B32153014201FD
:100C800004C0880C991CAA1CBB1C9A95D2F7AB2BEC
:100C900021F0D8019C91982905C0982D9095D801F4
:100CA000BC909B219C9341505109DBCF21503109CD
:100CB00050F690E1811105C0623009F0B1C00CC05E
:100CC00090E0813021F4633009F0B0C005C082307B
:100CD00009F05FC06111AFC048E050E078E0790FE3
:100CE00027E0722E812C912C54018394D72ED41A94
:100CF0004115510509F441C09F01240F351FD90149
:100D000012960C9110E020E030E0A1E0B0E0AC0FD2
:100D1000BD1FAD0DB11DD72CD21A7801022E02C015
:100D2000F594E7940A94E2F7E0FC18C01401250159
:100D300004C0220C331C441C551CDA94D2F77201F7
:100D40006101C094EC90FC2CFE20FC922F5F3F4F81
:100D50002830310501F741505109C8CF1401250150
:100D600004C0220C331C441C551CDA94D2F77201C7
:100D700061016C90C628CC92E9CF40E150E0705FF1
:100D800017E0712E812C912C5401839429C090E09E
:100D900003C0833009F042C0613009F059C09CCFD4
:100DA000D72CD21A7801022E02C0F594E7940A9447
:100DB000E2F71401250104C0220C331C441C551C0D
:100DC000DA94D2F7E0FE21C0720161016C90C6286E
:100DD000CC922F5F3F4F2830310511F74150510918
:100DE000D72ED41A48305105C1F09F01240F351F6A
:100DF000D90112960C9110E020E030E0A1E0B0E0C3
:100E0000AC0FBD1FAD0DB11DCBCF72016101C09400
:100E1000EC90FC2CFE20FC92DCCF905F811104C092
:100E2000633009F073C00AC0813019F4662331F0D1
:100E30006DC0823051F4613009F068C020E030E0CC
:100E4000412C512C320143942EC0833009F05EC0F6
:100E5000623009F05BC0F2CFAA24A394B12C0F88B2
:100E600002C0AA0CBB1C0A94E2F7BE8AAD8A492DC7
:100E7000582D8F89870FEE24E394F12CEC0EFD1E84
:100E8000E80EF11C832D841B42175307C1F44F89D0
:100E9000588D4F5F5F4F588F4F8B48305105E1F6AB
:100EA0002031310599F1792F720F922E832E188EF1
:100EB0001F8A47E0342E320E285F3F4FCDCF8F017F
:100EC000040F151FD80113960C9110E0AD88BE8851
:100ED0000A211B216301520104C0AA0CBB1CCC1CBB
:100EE000DD1C8A95D2F7A98ABA8ACB8ADC8A012BC3
:100EF00021F0D7018C918A2905C01A2D1095D701B0
:100F00008C9181238C934F5F5F4FBCCF668FBE0166
:100F10006F5F7F4FCF0103969E012F5E3F4FDB0136
:100F20004D91BD01DC014D93CD0162177307B9F7F7
:100F3000CF0168960FB6F894DEBF0FBECDBFDF912C
:100F4000CF911F910F91FF90EF90DF90CF90BF90C6
:100F5000AF909F908F907F906F905F904F903F9059
:100F60002F900C94320568960FB6F894DEBF0FBE32
:100F7000CDBFDF91CF911F910F91FF90EF90DF9048
:100F8000CF90BF90AF909F908F907F906F905F9029
:100F90004F903F902F900895FA01643C11F48FE533
:100FA00013C0663D11F480E60FC06C3D11F481E67C
:100FB0000BC0643E11F482E607C0663F11F483E67D
:100FC00003C06C3F19F484E6808304C060526F351F
:100FD00018F4608380E0089581E00895BF92CF9275
:100FE000DF92EF92FF920F931F93CF93DF936131C4
:100FF000E8F5042F162FEC01C62EC694C694C694AD
:10100000D12C862F8770B82E60E089810E942C0F2A
:10101000E12CF12CB394EC14FD0441F42B2D41E0B0
:101020006A8188810E945C0F202F07C020E041E088
:101030006A8188810E945C0F20E041E06A8188819A
:101040000E945C0FEA94EF2821F0EE24E394F12C47
:10105000E2CF60E089810E942C0F61E089810E94CB
:101060002C0FC10FD11D0B8380E001C081E0DF9107
:10107000CF911F910F91FF90EF90DF90CF90BF9095
:101080000895AF92BF92CF92DF92EF92FF920F93AB
:101090001F93CF93DF93693090F5042F162FEC0147
:1010A00060E089810E942C0FA12EB12C7E0183E08B
:1010B000E80EF11C92E0C92ED12C1F5F212F41E0D8
:1010C0006A8188810E945C0F202F41E06A818881BB
:1010D0000E945C0FF7010083EA0CFB1CCA94CD2828
:1010E00021F0CC24C394D12CE9CF60E089810E9407
:1010F0002C0F61E089810E942C0F80E001C081E00B
:10110000DF91CF911F910F91FF90EF90DF90CF90E3
:10111000BF90AF9008951F93CF93DF93EC0110E041
:1011200040E0612FCE010E9441081F5F1830C1F7D7
:10113000FE01339663961192EC17FD07E1F7DF91FC
:10114000CF911F910895CF93DF93EC0181E08D8FB4
:1011500061E088810E94F00E61E08A810E94F00EB9
:1011600061E089810E94F00E61E08A810E942C0F6B
:1011700047E06BE0CE010E94C90440E069E0CE0187
:101180000E94C90441E06CE0CE010E94C90440E025
:101190006FE0CE010E94C904CE010E948B0864E07A
:1011A000CE010E94F80482E08D8FDF91CF910895E7
:1011B000AF92BF92CF92DF92EF92FF920F931F9365
:1011C000CF93DF93623008F042C0483008F03FC050
:1011D000C62F8C01F62EFF0CFF0CFF0CD0E02196E1
:1011E00083E0CC0FDD1F8A95E1F781E090E0A0E07D
:1011F000B0E004C0880F991FAA1FBB1F4A95D2F701
:10120000A82EE82EE09497E0B92EC22ED12CEF2D17
:10121000F0E0EC17FD07CCF4E00FF11FC6010B2C3A
:1012200002C0959587950A94E2F780FF03C08381F9
:101230008A2902C083818E21838343816F2DC80157
:101240000E94EE07BA94F394E2CF80E001C081E0FF
:10125000DF91CF911F910F91FF90EF90DF90CF9092
:10126000BF90AF900895EF92FF920F931F93CF938B
:10127000DF931F92CDB7DEB7FC01242F062F069512
:1012800006950695462F4770968D911103C0422F03
:10129000CF0111C0913019F4602FCF0123C0162F58
:1012A0007F01923089F4622FCF010E9420056FE008
:1012B000611B482FC7010F90DF91CF911F910F91B4
:1012C000FF90EF900C94EE079330A9F4622FCF01BA
:1012D00049830E94200597E04981941B492F282FBC
:1012E000602FC7010F90DF91CF911F910F91FF9059
:1012F000EF900C94D80881E00F90DF91CF911F916F
:101300000F91FF90EF900895CF93362FC42F603147
:1013100038F5483028F5E62FF0E0DC01AE0FBF1FAE
:1013200041E050E060E070E004C0440F551F661FCC
:10133000771FCA95D2F7222329F013962C91139781
:10134000422B05C0409513962C9113974223139678
:101350004C93E80FF91F4381632FCF910C9433090D
:1013600081E0CF9108952F923F924F925F926F92BA
:101370007F928F929F92AF92BF92CF92DF92EF9225
:10138000FF920F931F93CF93DF9300D000D01F9253
:10139000CDB7DEB74C016B013A015901F90140802C
:1013A000512CE180F12CF8E0EF16F104C9F4452B43
:1013B000B9F400E010E0041515050CF04FC0C801A9
:1013C0008C0D9D1D409748F4F501E00FF11F4281FF
:1013D000602F6C0DC4010E9433090F5F1F4FEBCFCC
:1013E0001D821C828C819D8184159505BCF500E0D1
:1013F00010E02C803D802C0C3D1C8C819D818A0D41
:101400009B1D9A8389833C813C0D0E151F0504F5B5
:1014100080E128163104C8F4C801860D971D08978D
:10142000A0F4E981FA81828190E0002E02C09595B6
:1014300087950A94E2F7282F2170402F460D632FDD
:10144000C4013B830E9484093B810F5F1F4FDDCFA6
:10145000EC81FD813196FD83EC83C4CF0F900F901A
:101460000F900F900F90DF91CF911F910F91FF90F0
:10147000EF90DF90CF90BF90AF909F908F907F9034
:101480006F905F904F903F902F900895CF92DF9292
:10149000EF92FF920F931F93CF93DF93CDB7DEB7F9
:1014A00028970FB6F894DEBF0FBECDBF7C016B014D
:1014B00000E010E0F60161916F01662329F1AE01B1
:1014C000485F5F4FC7010E94CC07813011F481E073
:1014D0001CC0AE014F5F5F4F6885C7010E940F05BA
:1014E0008130A9F39E012F5F3F4F40E050E0B801EB
:1014F000C7010E94B309298130E02F5F3F4F020FDF
:10150000131F01311105B4F280E028960FB6F8944C
:10151000DEBF0FBECDBFDF91CF911F910F91FF9026
:10152000EF90DF90CF900895CF93DF93EC019A8DE9
:101530008B898917B0F041E060E0CE010E9472050E
:101540009E012D5E3F4F8A8D60E170E0681B71093E
:1015500040E050E0CE010E94B3098A8D8F5F8A8FF0
:1015600006C08D8D843011F482E08D8F1A8EDF914C
:10157000CF9108950F931F93CF93DF931F92CDB711
:10158000DEB78C01DC015A968C915A97811130C0DC
:101590005B96ED91FC915C976081662321F1AE0131
:1015A0004F5F5F4FC8010E94CC07A8014D5E5F4F9F
:1015B0006981C8010E940F05F801828D882329F0F6
:1015C00041E060E0C8010E94720581E0D8015A96AE
:1015D0008C93C8010E94940AF801838D948D019622
:1015E000948F838F11C082E0D8015D968C9307C0E1
:1015F000C8010E94940AF801828D811105C041E062
:1016000060E0C8010E9472050F90DF91CF911F9199
:101610000F910895CF93DF93EC018D8D833019F4F2
:10162000CE010E94BA0A8D8D843029F4CE01DF915B
:10163000CF910C94940ADF91CF9108951F920F924D
:101640000FB60F9211242F933F934F935F936F9395
:101650007F938F939F93AF93BF93EF93FF93E0910B
:10166000BE01F091BF010995FF91EF91BF91AF913C
:101670009F918F917F916F915F914F913F912F91AA
:101680000F900FBE0F901F901895FC01A3E0440F20
:10169000551F661F771FAA95D1F74115510581E0A7
:1016A0006807710514F481E00EC033E07595679505
:1016B000579547953A95D1F74115510581E068074F
:1016C00071051CF482E0828331C023E07595679533
:1016D000579547952A95D1F74115510581E068073F
:1016E000710514F483E0EFCF92E0759567955795F7
:1016F00047959A95D1F74115510581E06807710525
:1017000014F484E0E0CF82E075956795579547958E
:101710008A95D1F785E082834115510581E06807FC
:10172000710524F04FEF5FEF60E070E08FB78383C7
:10173000F8945183408350938700409386008381BF
:101740008FBF80918100887F80938100909181007C
:101750008281892B8093810008951092800020E17E
:10176000209381000C94450BE1E8F0E02081DC013E
:1017700012968C91822B808308950F931F93CF93A1
:10178000DF93EC018B01BA01A901141615061606A8
:10179000170614F40E94450B1D830C8381E080938F
:1017A0006F00CE01DF91CF911F910F910C94B40B7C
:1017B000FC01918D228D892F90E0805C9F4F821BD0
:1017C00091098F7399270895FC01918D828D981747
:1017D00031F0828DE80FF11D858D90E008958FEF37
:1017E0009FEF0895FC01918D828D981761F0828D95
:1017F000DF01A80FB11D5D968C91928D9F5F9F7345
:10180000928F90E008958FEF9FEF08958CE59DE013
:10181000892B49F085E894E0892B29F00E945C0D22
:1018200081110C9485040895FC01848DDF01A80FBB
:10183000B11DA35ABF4F2C91848D90E001968F73F8
:101840009927848FA689B7892C93A089B1898C9117
:1018500080648C93938D848D981306C00288F389DD
:10186000E02D80818F7D80830895CF93DF93EC01FD
:10187000888D8823C9F0EA89FB89808185FD05C0B0
:10188000A889B9898C9186FD0FC00FB607FCF5CFEA
:10189000808185FFF2CFA889B9898C9185FFEDCF32
:1018A000CE010E94140CE7CFDF91CF910895EF9203
:1018B000FF920F931F93CF93DF93EC019B8D8C8D41
:1018C000981305C0E889F989808185FD27C0F62E27
:1018D0000B8D10E00F5F1F4F0F731127E02E8C8DC3
:1018E000E8120CC00FB607FCFACFE889F9898081AD
:1018F00085FFF5CFCE010E94140CF1CF8B8DFE0138
:10190000E80FF11DE35AFF4FF0820B8FEA89FB8944
:1019100080818062808381E0888F08C0EE89FF89A2
:101920006083E889F98980818064808381E090E028
:10193000DF91CF911F910F91FF90EF900895CF927B
:10194000DF92EF92FF921F93CF93DF93EC016A0136
:101950007B01122FE889F98982E080834115514E7D
:1019600061057105B1F060E079E08DE390E0A701D9
:1019700096010E94970FDA01C9010197A109B109E7
:10198000B695A79597958795AC01411580E15807C5
:10199000A8F0E889F989108260E874E88EE190E0A7
:1019A000A70196010E94970FBA01A9014150510960
:1019B000610971097695679557954795EC85FD8581
:1019C0005083EE85FF854083188EEC89FD89108356
:1019D000EA89FB89808180618083EA89FB89808133
:1019E00088608083EA89FB89808180688083EA89B6
:1019F000FB8980818F7D8083DF91CF911F91FF9044
:101A0000EF90DF90CF9008951F920F920FB60F9234
:101A100011242F938F939F93EF93FF93E091D00125
:101A2000F091D1018081E091D601F091D70182FD42
:101A300012C090818091D9018F5F8F732091DA015C
:101A4000821751F0E091D901F0E0E054FE4F958FFC
:101A50008093D90101C08081FF91EF919F918F9177
:101A60002F910F900FBE0F901F9018951F920F92FD
:101A70000FB60F9211242F933F934F935F936F9361
:101A80007F938F939F93AF93BF93EF93FF9380ECDC
:101A900091E00E94140CFF91EF91BF91AF919F9143
:101AA0008F917F916F915F914F913F912F910F9007
:101AB0000FBE0F901F90189580EC91E00E94D80BFC
:101AC00021E0892B09F420E0822F0895E0ECF1E079
:101AD0001382128288EE93E0A0E0B0E084839583C5
:101AE000A683B78383E491E09183808385EC90E0C3
:101AF0009587848784EC90E09787868780EC90E0D8
:101B0000918B808B81EC90E0938B828B82EC90E0C8
:101B1000958B848B86EC90E0978B868B118E128E42
:101B2000138E148E089508950E948C0E0E94930DBA
:101B30000E949402C6E0DCE00E9453042097E1F387
:101B40000E94060CF9CFCF92DF92EF92FF920F9393
:101B50001F93CF93DF936C01EB017B01E40EF51E25
:101B600000E010E0CE15DF0561F06991D601ED913E
:101B7000FC910190F081E02DC6010995080F191F15
:101B8000F1CFC801DF91CF911F910F91FF90EF909E
:101B9000DF90CF9008956115710579F0FB010190F8
:101BA0000020E9F73197AF01461B570BDC01ED919F
:101BB000FC910280F381E02D099480E090E008958B
:101BC000EF92FF920F931F93CF93DF937C01FB0162
:101BD00000E010E06491EF012196662361F0D701E7
:101BE000ED91FC910190F081E02DC7010995080F5E
:101BF000191FFE01EFCFC801DF91CF911F910F9107
:101C0000FF90EF900895DC01ED91FC910190F0813F
:101C1000E02D09940F931F93CF93DF93EC016DE0B8
:101C20000E94030E8C016AE0CE010E94030E800F19
:101C3000911FDF91CF911F910F9108950F931F93E3
:101C4000CF93DF93EC010E94E00D8C01CE010E9446
:101C50000A0E800F911FDF91CF911F910F91089570
:101C60000F931F93CF93DF93EC010E94CB0D8C0158
:101C7000CE010E940A0E800F911FDF91CF911F911C
:101C80000F9108951F920F920FB60F9211242F9368
:101C90003F938F939F93AF93BF9380915E029091F8
:101CA0005F02A0916002B091610230915D0223E079
:101CB000230F2D3720F40196A11DB11D05C026E884
:101CC000230F0296A11DB11D20935D0280935E0239
:101CD00090935F02A0936002B093610280916202D0
:101CE00090916302A0916402B09165020196A11DDA
:101CF000B11D8093620290936302A0936402B0933B
:101D00006502BF91AF919F918F913F912F910F905D
:101D10000FBE0F901F901895789484B5826084BD93
:101D200084B5816084BD85B5826085BD85B58160DF
:101D300085BDEEE6F0E0808181608083E1E8F0E03F
:101D40001082808182608083808181608083E0E86E
:101D5000F0E0808181608083E1EBF0E0808184604D
:101D60008083E0EBF0E0808181608083EAE7F0E04F
:101D700080818460808380818260808380818160B3
:101D800080838081806880831092C10008958330B1
:101D900081F028F4813099F08230A1F008958730E5
:101DA000A9F08830B9F08430D1F4809180008F7D23
:101DB00003C0809180008F7780938000089584B560
:101DC0008F7702C084B58F7D84BD08958091B00067
:101DD0008F7703C08091B0008F7D8093B00008950D
:101DE000CF93DF9390E0FC01E757FB4F2491FC0178
:101DF000E356FB4F8491882361F190E0880F991F8F
:101E0000FC01E554FB4FC591D491FC01EF54FB4F0D
:101E1000A591B491611109C09FB7F894888120956C
:101E200082238883EC912E230BC0623061F49FB72C
:101E3000F8943881822F809583238883EC912E2B10
:101E40002C939FBF06C08FB7F894E8812E2B288370
:101E50008FBFDF91CF9108951F93CF93DF93282FEA
:101E600030E0F901EB58FB4F8491F901E757FB4F44
:101E7000D491F901E356FB4FC491CC23C9F0162F3E
:101E800081110E94C70EEC2FF0E0EE0FFF1FEF5400
:101E9000FB4FA591B4918FB7F894111105C09C9197
:101EA000ED2FE095E92302C0EC91ED2BEC938FBF71
:101EB000DF91CF911F910895BF92CF92DF92EF9261
:101EC000FF920F931F93CF93DF93C82ED62EB42E7D
:101ED000C7E0D0E0022F10E087E0E82EF12CB1102F
:101EE00005C0C7018C1B9D0B980102C098018C2F67
:101EF00002C0359527958A95E2F7B9016170772779
:101F00008C2D0E942C0F61E08D2D0E942C0F60E023
:101F10008D2D0E942C0F219710F7DF91CF911F91EB
:101F20000F91FF90EF90DF90CF90BF900895A1E2C6
:101F30001A2EAA1BBB1BFD010DC0AA1FBB1FEE1F43
:101F4000FF1FA217B307E407F50720F0A21BB30B8E
:101F5000E40BF50B661F771F881F991F1A9469F70A
:101F600060957095809590959B01AC01BD01CF0166
:101F700008950E94C60FB7FF0895821B930B089522
:101F8000EE0FFF1F0590F491E02D0994A29FB00180
:101F9000B39FC001A39F700D811D1124911DB29F9D
:101FA000700D811D1124911D0895FC01882799272A
:101FB000E89421912032E9F3293010F02E30C8F353
:101FC0002B3241F02D3239F4689404C00E944B103A
:101FD000820F911D219120532A30C0F31EF4909559
:101FE00081959F4F0895FB01DC0102C005900D9281
:101FF00041505040D8F7089540E551E00E94241028
:102000000895FC018191861721F08823D9F799273B
:1020100008953197CF010895FB01DC018D91019066
:1020200080190110D9F3990B0895FB01DC0141508F
:10203000504048F001900D920020C9F701C01D9258
:1020400041505040E0F70895FA01A191B081009706
:1020500019F41097E1F0CD01DC01CD010D900020C5
:1020600011F4C00113C0FB012191222319F02015A6
:10207000D9F7F3CFFB012191201519F41E92119687
:1020800006C02223C1F70D900020A1F7D001FA016C
:10209000A193B08308957AE0979F902D879F802D1C
:1020A000910D1124089512E0C5E6D2E004C0FE01AE
:1020B0000E94C00F2196C636D107C9F7F894FFCF0A
:1020C000416E647265617300416E64726561732074
:1020D0004275726E69636B6C0074657874536869DD
:1020E0006674007465787400696E74656E736974E3
:1020F0007900737065656400736574446F740000E3
:10210000000000570CA30DD80BF20BE40B350C00AC
:00000001FF
