S01300004C65645F416E7A656967652E73726563DA
S11300000C946A020C9492020C9492020C94920244
S11300100C9492020C9492020C9492020C9492020C
S11300200C9492020C94A70D0C9492020C949202DC
S11300300C9492020C94ED0C0C9492020C94920287
S11300400C943F100C9492020C94010F0C94330FF7
S11300500C9492020C9492020C9492020C949202CC
S11300600C9492020C9492024578616D706C653A1E
S113007020746578743D6578616D706C6520746575
S1130080787400636F6D6D616E6420616E642076B8
S1130090616C75652068617320746F2062652073DC
S11300A0657061726174656420627920616E206597
S11300B07175616C207369676E006B6E6F776E206B
S11300C0636F6D6D616E6473206172653A2074654F
S11300D078742C20696E74656E7369747920616E0E
S11300E06420737065656400636F6D6D616E642078
S11300F0646F6573206E6F74206D61746368007340
S1130100706565642072616E6765204D41584D418C
S1130110545249585F53504545445F4D494E5F56CC
S1130120414C5545202E2E2E204D41584D415452C0
S113013049585F53504545445F4D41585F56414CC3
S113014055450076616C7565206F7574206F662067
S113015072616E676500696E74656E736974792087
S113016072616E6765204D41584D41545249585F44
S1130170494E54454E534954595F4D494E5F56417B
S11301804C5545202E2E2E204D41584D4154524958
S1130190585F494E54454E534954595F4D41585F39
S11301A056414C55450076616C7565206F75742019
S11301B06F662072616E676500030800000000002E
S11301C001085F00000000030803000300000508A5
S11301D0143E143E140408246A2B12000508631309
S11301E008646305083649562050010803000000DE
S11301F00003081C22410000030841221C000005E2
S11302000828180E1828050808083E08080208B02F
S11302107000000004080808080800020860600074
S113022000000408601806010004083E41413E0035
S11302300308427F40000004086251494600040854
S1130240224149360004081814127F000408274587
S113025045390004083E4949300004086111090782
S1130260000408364949360004080649493E00029C
S1130270085000000000020880500000000308102D
S11302802844000003081414140000030844281030
S113029000000408025909060005083E49555D0E90
S11302A004087E11117E0004087F494936000408C1
S11302B03E4141220004087F41413E0004087F4939
S11302C049410004087F0909010004083E41497AB4
S11302D00004087F08087F000308417F41000004F0
S11302E0083040413F0004087F0814630004087F7D
S11302F04040400005087F020C027F05087F040887
S1130300107F04083E41413E0004087F09090600AD
S113031004083E4141BE0004087F09097600040830
S11303204649493200050801017F010104083F40A4
S1130330403F0005080F3040300F05083F4038406B
S11303403F050863140814630508070870080704C8
S113035008615149470002087F4100000004080178
S1130360061860000208417F000000030802010231
S11303700000040840404040000208010200000060
S11303800408205454780004087F444438000408C6
S1130390384444280004083844447F00040838548E
S11303A05418000308047E050000040898A4A478E7
S11303B00004087F040478000308447D400000041E
S11303C0084080847D0004087F102844000308410D
S11303D07F40000005087C047C047804087C040445
S11303E07800040838444438000408FC2424180025
S11303F00408182424FC0004087C080404000408ED
S113040048545424000308043F44000004083C40BA
S1130410407C0005081C2040201C05083C403C4052
S11304203C0508442810284404089CA0A07C000330
S11304300864544C00000308083641000001087F9A
S113044000000000030841360800000408080408FE
S1130450040004087C13137C0004083C43433C0060
S113046004083E41413E0004082056567800040822
S1130470384646380004083C42427C00000000082C
S11304800002010000030407000000000000000057
S11304900102040810204080010204081020010217
S11304A004081020040404040404040402020202E4
S11304B002020303030303030000000025002800D5
S11304C02B0000000000240027002A007E04CE0D2B
S11304D0630F850411241FBECFEFD8E0DEBFCDBF6C
S11304E011E0A0E0B1E0EAEBF4E202C005900D9265
S11304F0A035B107D9F722E0A0E5B1E001C01D9213
S1130500AC37B207E1F712E0C9E6D2E004C02197A4
S1130510FE010E94BD11C636D107C9F70E94910F92
S11305200C9450120C94000081E080938201089591
S113053040E45DE063E070E08AEC91E00E947C0DB1
S11305402FEF3FEFA90164E972E08AEC91E00E9489
S11305508C0D26E040E855E260E070E086ED91E025
S11305600E949C0E83E591E00E94B70861E083E558
S113057091E00E94730560E071E083E591E00E94E0
S1130580710A4DE150E068E071E083E891E00E9477
S113059012121092A0011092A1011092820181E026
S11305A080935201089568EE70E086ED91E00E9418
S11305B01B106AEB70E086ED91E00E941B1063E86B
S11305C070E086ED91E00E941B1068E670E086ED15
S11305D091E00C941B100F931F93CF93DF93CDB72F
S11305E0DEB7E6970FB6F894DEBF0FBECDBF1F8E01
S11305F018A219A21AA2FE01B39686E0DF011D9289
S11306008A95E9F719821A821B821C827E978AE1F5
S1130610DF011D928A95E9F78DE390E09DAB8CABE9
S11306208CE290E09BAB8AAB6DE370E082EA91E0F0
S11306300E94FE11892B09F426C1BE016C5C7F4F18
S113064082EA91E00E94F911009741F049E050E0FC
S1130650BC01CE014F960E94121218A6BE016C5C1A
S11306607F4F80E090E00E94F911009741F04DE146
S113067050E0BC01CE0101960E9412121E8E69E167
S113068071E0CE014F960E940912892BE9F4809102
S11306905201823019F082E0809352014DE150E022
S11306A0BE016F5F7F4F83E891E00E9412121092A7
S11306B0A00183E591E00E949F0863E871E083E56F
S11306C091E00E940305E8C063E271E0CE014F9619
S11306D00E940912892BE9F480915201813019F0AA
S11306E081E0809352014DE150E0BE016F5F7F4F86
S11306F083E891E00E9412121092A00183E591E038
S11307000E949F0863E871E083E591E00E94710A0A
S1130710C3C068E271E0CE014F960E940912892B92
S1130720D1F4CE0101960E94D2119C0121503109CD
S11307302031310538F46FEF680F83E591E00E94B2
S1130740F904AAC066EA71E086ED91E00E941B10EC
S113075066E571E029C062E371E0CE014F960E9424
S11307600912892B31F5CE0101960E94D2119C0108
S1130770215031092431310578F4A5E1B0E0A81BFA
S1130780B90B20E533EC0E94B611AB01BC018AEC35
S113079091E00E94140D80C063E471E086ED91E065
S11307A00E941B106FEF70E086ED91E00E941B1019
S11307B073C068E371E0CE014F960E940912892B41
S11307C009F061C080915201813039F081E0809359
S11307D0520183E591E00E949F081FA618AA19AA56
S11307E01CA61DA61EA619A61AA61BA6BE016E5CF3
S11307F07F4FCE0101960E94F911009741F042E02B
S113080050E0BC01CE018F960E94121219AABE01BB
S11308106E5C7F4F80E090E00E94F911009741F0F8
S113082042E050E0BC01CE018C960E9412121EA63A
S1130830BE016E5C7F4F80E090E00E94F91100974A
S113084041F042E050E0BC01CE0189960E941212B0
S11308501BA6CE0189960E94D2118C01CE018C96E2
S11308600E94D211482FCE018F964EAB0E94D21116
S1130870682F21E04EA9012B09F420E083E591E0E3
S11308800E94980909C0BE01615E7F4F86ED91E028
S11308900E942D100E94D302E6960FB6F894DEBF94
S11308A00FBECDBFDF91CF911F910F91089580911D
S11308B0A101882331F00E94EB021092A201109250
S11308C0A101809182018823C1F08091520182307C
S11308D0A1F480915601833021F483E591E00E94D4
S11308E0D90C80915601823031F463E871E083E5DC
S11308F091E00E9403051092820108952BE04AE0E2
S11309006CE083E591E00C94B10483E591E00C94F0
S1130910CC041F93CF93DF93C2EAD1E011E086EDBC
S113092091E00E94D50D892BC1F086ED91E00E94E3
S1130930EF0D8A3019F41093A101F1CFFE0101905B
S11309400020E9F73197E25AF140E732F1053CF72C
S1130950EE55FE4F80831182E2CFDF91CF911F913C
S11309600895CF93DF93FC0160834183228316A60D
S113097015A614A614821382EC012596DC01959623
S11309801992CA17DB07E1F7BC961D92AE17BF0791
S1130990E1F7DF91CF9108950895EF92FF920F93BD
S11309A01F93CF93DF93EC01E62EF42E60E0898150
S11309B00E94291104E010E02E2D41E06A81888113
S11309C00E9459112F2D41E06A8188810E9459119A
S11309D00150110989F760E089810E94291161E0C1
S11309E08981DF91CF911F910F91FF90EF900C942B
S11309F02911603130F4462F6AE00E94CD0480E072
S1130A00089581E00895FC016115710539F014A67B
S1130A1076A765A783E0838380E0089581E0089545
S1130A20653668F4CA0127E0629FB0011124675457
S1130A307E4F47E050E00E94F01180E0089581E08D
S1130A4008956295962F937384E0989F90011124E2
S1130A506C7C66956695262B822F8575880F2A7A7D
S1130A602695822B0895DF92EF92FF920F931F93A6
S1130A70CF93DF93EC0100E010E060E089810E94F5
S1130A802911E12CF12CDD24D394D00E2D2D41E03D
S1130A906A8188810E945911F701E00FF11FEC0F60
S1130AA0FD1F258141E06A8188810E94591188E0F7
S1130AB0E80EF11C80E2E816F10441F760E0898158
S1130AC00E94291161E089810E9429110F5F1F4F43
S1130AD00830110591F6DF91CF911F910F91FF908E
S1130AE0EF90DF9008953F924F925F926F927F92C2
S1130AF08F929F92AF92BF92CF92DF92EF92FF922A
S1130B000F931F93CF93DF93CDB7DEB7A8970FB69C
S1130B10F894DEBF0FBECDBFFC019481691709F4C0
S1130B2090C1911104C06130A9F080E07EC0913081
S1130B3021F4623079F080E07FC0923021F4633098
S1130B4049F080E07FC0933009F073C0662311F050
S1130B5080E086C020E030E0412C512C32014394E7
S1130B60490147E0840E911C47E050E087E0382EAD
S1130B70320EAA24A394B12C042E02C0AA0CBB1CCE
S1130B800A94E2F7BEA2ADA2840187E0732D741B20
S1130B90EE24E394F12CEC0EFD1EE70EF11C02177B
S1130BA01307B4F1DF01A00FB11F1596AC91B0E0AB
S1130BB0CDA0DEA0AC21BD21AB2B91F0D7017C915F
S1130BC063015201082E04C0AA0CBB1CCC1CDD1C02
S1130BD00A94D2F7A9A2BAA2CBA2DCA27A2913C0A2
S1130BE063015201082E04C0AA0CBB1CCC1CDD1CE2
S1130BF00A94D2F7A9A2BAA2CBA2DCA2DA2CD0948E
S1130C00D7017C917D217C93815001501109C7CF7C
S1130C104150510908F0ADCF285F3F4F20323105D4
S1130C2009F09ECF80E2911105C0623009F068C0DE
S1130C300BC080E0913021F4633009F067C004C038
S1130C40923059F4611167C027E030E017E0312E8B
S1130C50412C512C320143940DC0933009F04EC005
S1130C60613009F065C0F0CF285F3F4F273231056E
S1130C7009F444C08901690157E0C51AD1080C156B
S1130C801D0594F3DF01A00FB11F1596EC90F12C14
S1130C9040E050E0A1E0B0E0AC0FBD1FA80FB11DD3
S1130CA0732D741B5701042E02C0B594A7940A94A3
S1130CB0E2F7A0FE0CC05301420104C0880C991C49
S1130CC0AA1CBB1C7A95D2F77C9178290DC05301DC
S1130CD0420104C0880C991CAA1CBB1C7A95D2F74B
S1130CE0782D7095BC907B217C934F5F5F4F48308B
S1130CF05105B1F68F5F01501109C1CF911104C0A4
S1130D00633009F072C00AC0913019F4662331F0DF
S1130D106CC0923051F4613009F067C020E030E0DB
S1130D20412C512C320143942DC0933009F05DC005
S1130D30623009F05AC0F2CFA1E0B0E00FA002C0C7
S1130D40AA0FBB1F0A94E2F7BEA3ADA3492D582DE9
S1130D509FA1970FEE24E394F12CEC0EFD1EE90EF7
S1130D60F11C932D941B42175307C4F04FA158A5AF
S1130D704F5F5F4F58A74FA348305105E9F6203223
S1130D80310599F1782F720F922E832E18A61FA287
S1130D9047E0342E320E285F3F4FCECF8F01040F31
S1130DA0151FD80115960C9110E0ADA0BEA00A2124
S1130DB01B216301520104C0AA0CBB1CCC1CDD1C0A
S1130DC09A95D2F7A9A2BAA2CBA2DCA2012B21F058
S1130DD0D7019C919A2905C01A2D1095D7019C9191
S1130DE091239C934F5F5F4FBCCF6483BE016F5FC1
S1130DF07F4FCF0105969E012F5D3F4FDB014D9143
S1130E00BD01DC014D93CD0162177307B9F7CF0122
S1130E10A8960FB6F894DEBF0FBECDBFDF91CF9179
S1130E201F910F91FF90EF90DF90CF90BF90AF9004
S1130E309F908F907F906F905F904F903F900C9415
S1130E403305A8960FB6F894DEBF0FBECDBFDF9171
S1130E50CF911F910F91FF90EF90DF90CF90BF90B3
S1130E60AF909F908F907F906F905F904F903F9046
S1130E700895FA01643C11F48FE513C0663D11F442
S1130E8080E60FC06C3D11F481E60BC0643E11F4A2
S1130E9082E607C0663F11F483E603C06C3F19F491
S1130EA084E6808304C060526F3518F4608380E068
S1130EB0089581E00895BF92CF92DF92EF92FF925E
S1130EC00F931F93CF93DF93E9016430D8F5483033
S1130ED0C8F5A1E0B0E002C0AA0FBB1F4A95E2F733
S1130EE028E0629F800D911D1124FC01359687E056
S1130EF090E001E010E020E030E0619170E06A23CE
S1130F007B23B880672B69F068017901082E04C03F
S1130F10CC0CDD1CEE1CFF1C0A94D2F7CB28C88233
S1130F200DC0B901A801082E04C0440F551F661F47
S1130F30771F0A94D2F740954B2148830197E8F62E
S1130F4080E001C081E0DF91CF911F910F91FF906C
S1130F50EF90DF90CF90BF900895CF92DF92FF92F1
S1130F600F931F93CF93DF931F92CDB7DEB7FC018E
S1130F70848181110AC0603218F0FF24F39439C0CF
S1130F80E60FF11D8581FA011DC06A01962F8F01BC
S1130F90669566956695492F4770813031F49601C0
S1130FA0CF010E945B07F82E24C0823071F48FE1D8
S1130FB0891B803210F7E80FF11D6581C8010E947A
S1130FC02105F6018083F12C14C08330B1F687E04B
S1130FD0841B482F9E012F5F3F4FCF010E945B0768
S1130FE0F82E8111CACF6981C8010E942105F6013A
S1130FF080838F2D0F90DF91CF911F910F91FF90E0
S1131000DF90CF900895BF92CF92DF92EF92FF923C
S11310100F931F93CF93DF936032E8F5042F162FBD
S1131020EC01C62EC694C694C694D12C862F877024
S1131030B82E60E089810E942911E12CF12CB3942F
S1131040EC14FD0441F42B2D41E06A8188810E9457
S11310505911202F07C020E041E06A8188810E9455
S1131060591120E041E06A8188810E9459118FEF73
S1131070E81AF80A84E0E816F10411F760E08981BF
S11310800E94291161E089810E942911C10FD11D9B
S11310900D8380E001C081E0DF91CF911F910F911A
S11310A0FF90EF90DF90CF90BF900895AF92BF92E2
S11310B0CF92DF92EF92FF920F931F93CF93DF9320
S11310C0683088F5042F162FEC0160E089810E94B6
S11310D02911A12EB12C6E0185E0C80ED11C84E02B
S11310E0E82EF12C1F5F212F41E06A8188810E9444
S11310F05911202F41E06A8188810E945911F6011B
S11311000083F1E0EF1AF108CA0CDB1CE114F104CE
S113111051F760E089810E94291161E089810E9470
S1131120291180E001C081E0DF91CF911F910F91DF
S1131130FF90EF90DF90CF90BF90AF9008951F93F2
S1131140CF93DF93EC0110E040E0612FCE010E94C9
S113115056081F5F1830C1F7FE013596A596119207
S1131160EC17FD07E1F7DF91CF911F910895CF931D
S1131170DF93EC0181E08B8361E088810E94ED10B4
S113118061E08A810E94ED1061E089810E94ED1086
S113119061E08A810E94291147E06BE0CE010E9440
S11311A0CD0440E069E0CE010E94CD0441E06CE052
S11311B0CE010E94CD0440E06FE0CE010E94CD0438
S11311C0CE010E949F0862E0CE010E94F90482E0F1
S11311D08B83DF91CF910895AF92BF92CF92DF922C
S11311E0EF92FF920F931F93CF93DF93643008F035
S11311F042C0483008F03FC0C62F8C01F62EFF0CC9
S1131200FF0CFF0CD0E0219683E0CC0FDD1F8A9504
S1131210E1F781E090E0A0E0B0E004C0880F991FFE
S1131220AA1FBB1F4A95D2F7A82EE82EE09497E098
S1131230B92EC22ED12CEF2DF0E0EC17FD07CCF423
S1131240E00FF11FC6010B2C02C0959587950A94F7
S1131250E2F780FF03C085818A2902C085818E213F
S1131260858345816F2DC8010E940308BA94F394C5
S1131270E2CF80E001C081E0DF91CF911F910F9117
S1131280FF90EF90DF90CF90BF90AF900895EF92D2
S1131290FF920F931F93CF93DF931F92CDB7DEB7C7
S11312A0FC01242F062F069506950695462F4770B8
S11312B09481911103C0422FCF0111C0913019F4D0
S11312C0602FCF0123C0162F7F01923089F4622F43
S11312D0CF010E9421056FE1611B482FC7010F90C8
S11312E0DF91CF911F910F91FF90EF900C94030821
S11312F09330A9F4622FCF0149830E94210597E01E
S11313004981941B492F282F602FC7010F90DF912B
S1131310CF911F910F91FF90EF900C94EC0881E016
S11313200F90DF91CF911F910F91FF90EF9008954F
S1131330DF92EF92FF920F931F93CF93DF931F924D
S1131340CDB7DEB7603280F5483070F5D22EE42E8A
S1131350F62E8C01AE014F5F5F4F0E94AD072981CD
S1131360DD2071F081E090E0A0E0B0E004C0880FDF
S1131370991FAA1FBB1FEA94D2F7822B89830EC040
S113138041E050E060E070E004C0440F551F661F68
S1131390771FEA94D2F740954223498349816F2D00
S11313A0C8010E94470901C081E00F90DF91CF91ED
S11313B01F910F91FF90EF90DF9008952F923F922D
S11313C04F925F926F927F928F929F92AF92BF9251
S11313D0CF92DF92EF92FF920F931F93CF93DF93FD
S11313E000D000D01F92CDB7DEB74C016B013A019B
S11313F05901F9014080512CE180F12CF8E0EF16FD
S1131400F104C9F4452BB9F400E010E00415150506
S11314100CF04FC0C8018C0D9D1D809748F4F50158
S1131420E00FF11F4281602F6C0DC4010E94470937
S11314300F5F1F4FEBCF1D821C828C819D81841511
S11314409505BCF500E010E02C803D802C0C3D1C83
S11314508C819D818A0D9B1D9A8389833C813C0DDF
S11314600E151F0504F580E228163104C8F4C801DE
S1131470860D971D0897A0F4E981FA81828190E096
S1131480002E02C0959587950A94E2F7282F2170C3
S1131490402F460D632FC4013B830E9498093B8172
S11314A00F5F1F4FDDCFEC81FD813196FD83EC830F
S11314B0C4CF0F900F900F900F900F90DF91CF91AA
S11314C01F910F91FF90EF90DF90CF90BF90AF905E
S11314D09F908F907F906F905F904F903F902F9050
S11314E00895CF92DF92EF92FF920F931F93CF93C1
S11314F0DF93CDB7DEB728970FB6F894DEBF0FBEE3
S1131500CDBF6115710511F481E02EC07C018B0102
S1131510C12CD12CF80161918F01662321F1AE0118
S1131520485F5F4FC7010E943907813069F3AE01FC
S11315304F5F5F4F6885C7010E941005813021F31A
S11315409E012F5F3F4F40E050E0B601C7010E946B
S1131550DE09298130E02F5F3F4FC20ED31E81E2A6
S1131560C816D104BCF280E028960FB6F894DEBF0A
S11315700FBECDBFDF91CF911F910F91FF90EF90E0
S1131580DF90CF900895EF92FF920F931F93CF9324
S1131590DF932223B9F0EC012D81FC013696DC01A6
S11315A095963191EF0122973883EA17FB07C9F723
S11315B0662319F0FC0124A326C0442321F1EC0185
S11315C01CA221C0FC013C967C01DCE2ED0EF11C66
S11315D0DF0117975C91119620E030E07D918D0139
S11315E002501109E80178832F5F3F4F27303105FE
S11315F0A9F7662311F0508302C041111082389676
S1131600EE15FF0529F7DF91CF911F910F91FF9000
S1131610EF900C943305CF92DF92EF92FF920F93E9
S11316201F93CF93DF93DC0195966D01FC01222378
S1131630A9F024A1FD015F97EF012297388132932D
S1131640EA17FB07C9F7662321F0DC0115962C93F2
S113165022C0442301F1FC0115821DC035968F017F
S113166057813896EF0127E030E07E0172E0E71AF7
S1131670F108D7017C917A9321503109B1F766239F
S113168019F0D8015C9304C0442311F0D8011C92D2
S1131690EC15FD0521F7DF91CF911F910F91FF907C
S11316A0EF90DF90CF900C943305BF92CF92DF92EE
S11316B0EF92FF920F931F93CF93DF9300D0CDB798
S11316C0DEB77C01C62E1A821982FC0135964423AA
S11316D0E1F18F01D12CD1100AC0CC2041F09E0140
S11316E02F5F3F4F40E060E0C7010E945B07BB24CF
S11316F0B394BD0C9E012E5F3F4F40E06B2DC7019C
S11317000E945B07F80120E030E0808190E095952D
S1131710879581932F5F3F4F28303105B1F783E0E0
S1131720D81206C0CC2051F0298147E063E003C001
S11317302A8147E06D2DC7010E94EC08085F1F4F06
S113174084E0B81689F0DB2CC6CFAC014B5D5F4F4B
S11317502081822F90E095958795C11014C08083D5
S11317603196E417F507A1F7C7010E9433050F90DE
S11317700F90DF91CF911F910F91FF90EF90DF9029
S1131780CF90BF90089520FFEACF8068E8CFBF9242
S1131790CF92DF92EF92FF920F931F93CF93DF9339
S11317A000D0CDB7DEB77C01C62E1A821982FC01A7
S11317B035964423C9F18F01D12CD1100AC0CC2015
S11317C041F09E012F5F3F4F47E060E0C7010E9458
S11317D05B07BB24B394BD0C9E012E5F3F4F47E0D3
S11317E06B2DC7010E945B07F80180E090E0208127
S11317F0220F2193019688309105C9F783E0D8120E
S113180006C0CC2051F0298140E063E003C02A8166
S113181040E06D2DC7010E94EC08085F1F4F84E073
S1131820B81679F0DB2CC9CF9C012B5D3F4F90811A
S1131830892F880FC11014C080833196E217F307F3
S1131840B1F7C7010E9433050F900F90DF91CF913C
S11318501F910F91FF90EF90DF90CF90BF9008956C
S113186097FFEACF8160E8CF0F931F93CF93DF9365
S1131870EC01162F042F8C81811104C021E0CE01CC
S11318800E94C30A8C81813029F441E0612FCE018A
S11318900E94550B8C81823031F421E0402F612F5E
S11318A0CE010E940B0B8C81833049F441E0612FFF
S11318B0CE01DF91CF911F910F910C94C70BDF9153
S11318C0CF911F910F910895CF93DF93EC019CA5C5
S11318D08DA18917B0F041E060E0CE010E94340C84
S11318E09E012B5D3F4F8CA560E270E0681B71097F
S11318F040E050E0CE010E94DE098CA58F5F8CA7EA
S113190006C08B81843011F482E08B831CA6DF91A6
S1131910CF9108950F931F93CF93DF931F92CDB769
S1131920DEB78C01DC019C968C919C9781112EC0B2
S11319309D96ED91FC919E976081662319F1AE010D
S11319404F5F5F4FC8010E943907A8014B5D5F4F8D
S11319506981C8010E94100541E060E0C8010E944D
S1131960340C81E0F80184A7C8010E94640CD801FA
S11319709D968D919C919E9701969E969C938E9395
S11319809D9711C082E0F801838308C0C8010E94BA
S1131990640CD8019C968C91811105C041E060E0F3
S11319A0C8010E94340C0F90DF91CF911F910F91C9
S11319B00895CF93DF93EC018B81833019F4CE012A
S11319C00E948A0C8B81843029F4CE01DF91CF915F
S11319D00C94640CDF91CF9108951F920F920FB66F
S11319E00F9211242F933F934F935F936F937F93A1
S11319F08F939F93AF93BF93EF93FF93E091CE01A7
S1131A00F091CF010995FF91EF91BF91AF919F9113
S1131A108F917F916F915F914F913F912F910F9093
S1131A200FBE0F901F901895FC01A3E0440F551FA3
S1131A30661F771FAA95D1F74115510581E0680704
S1131A40710514F481E00EC033E0759567955795E0
S1131A5047953A95D1F74115510581E0680771051D
S1131A601CF482E0828331C023E075956795579515
S1131A7047952A95D1F74115510581E0680771050D
S1131A8014F483E0EFCF92E07595679557954795E9
S1131A909A95D1F74115510581E06807710514F451
S1131AA084E0E0CF82E075956795579547958A95D0
S1131AB0D1F785E082834115510581E068077105FE
S1131AC024F04FEF5FEF60E070E08FB78383F8940A
S1131AD051834083509387004093860083818FBF56
S1131AE080918100887F8093810090918100828120
S1131AF0892B8093810008951092800020E1209327
S1131B0081000C94140DE1E8F0E02081DC011296D0
S1131B108C91822B808308950F931F93CF93DF932F
S1131B20EC018B01BA01A901141615061606170655
S1131B3014F40E94140D1D830C8381E080936F00C4
S1131B40CE01DF91CF911F910F910C94830D1F92C1
S1131B500F920FB60F9211242F933F934F935F93DD
S1131B606F937F938F939F93AF93BF93EF93FF9361
S1131B70E091D401F091D5010995FF91EF91BF91C6
S1131B80AF919F918F917F916F915F914F913F9111
S1131B902F910F900FBE0F901F901895E0EDF1E07C
S1131BA010821582148211820895FC01918D228D78
S1131BB0892F90E0805C9F4F821B91098F73992736
S1131BC00895FC01918D828D981731F0828DE80F74
S1131BD0F11D858D90E008958FEF9FEF0895FC012E
S1131BE0918D828D981761F0828DDF01A80FB11D50
S1131BF05D968C91928D9F5F9F73928F90E0089574
S1131C008FEF9FEF089589E59FE0892B49F089E8DC
S1131C1094E0892B29F00E94590F81110C948904B6
S1131C200895FC01848DDF01A80FB11DA35ABF4F95
S1131C302C91848D90E001968F739927848FA689C7
S1131C40B7892C93A089B1898C9180648C93938DEE
S1131C50848D981306C00288F389E02D80818F7DDE
S1131C6080830895CF93DF93EC01888D8823C9F096
S1131C70EA89FB89808185FD05C0A889B9898C9191
S1131C8086FD0FC00FB607FCF5CF808185FFF2CF2C
S1131C90A889B9898C9185FFEDCFCE010E94110EE0
S1131CA0E7CFDF91CF910895EF92FF920F931F93A7
S1131CB0CF93DF93EC019B8D8C8D981305C0E8893D
S1131CC0F989808185FD27C0F62E0B8D10E00F5F0A
S1131CD01F4F0F731127E02E8C8DE8120CC00FB626
S1131CE007FCFACFE889F989808185FFF5CFCE0119
S1131CF00E94110EF1CF8B8DFE01E80FF11DE35A06
S1131D00FF4FF0820B8FEA89FB8980818062808398
S1131D1081E0888F08C0EE89FF896083E889F989AA
S1131D2080818064808381E090E0DF91CF911F9176
S1131D300F91FF90EF900895CF92DF92EF92FF9270
S1131D401F93CF93DF93EC016A017B01122FE88983
S1131D50F98982E080834115514E61057105B1F026
S1131D6060E079E08DE390E0A70196010E94941170
S1131D70DA01C9010197A109B109B695A79597950B
S1131D808795AC01411580E15807A8F0E889F989E5
S1131D90108260E874E88EE190E0A70196010E9449
S1131DA09411BA01A901415051096109710976954B
S1131DB0679557954795EC85FD855083EE85FF859E
S1131DC04083188EEC89FD891083EA89FB89808120
S1131DD080618083EA89FB89808188608083EA89C5
S1131DE0FB89808180688083EA89FB8980818F7D7B
S1131DF08083DF91CF911F91FF90EF90DF90CF9080
S1131E0008951F920F920FB60F9211242F938F9360
S1131E109F93EF93FF93E091E601F091E7018081B6
S1131E20E091EC01F091ED0182FD12C0908180916E
S1131E30EF018F5F8F732091F001821751F0E091D1
S1131E40EF01F0E0EA52FE4F958F8093EF0101C05D
S1131E508081FF91EF919F918F912F910F900FBEF1
S1131E600F901F9018951F920F920FB60F92112486
S1131E702F933F934F935F936F937F938F939F938E
S1131E80AF93BF93EF93FF9386ED91E00E94110E01
S1131E90FF91EF91BF91AF919F918F917F916F913E
S1131EA05F914F913F912F910F900FBE0F901F9014
S1131EB0189586ED91E00E94D50D21E0892B09F457
S1131EC020E0822F0895E6EDF1E01382128288EE7D
S1131ED093E0A0E0B0E084839583A683B78383E492
S1131EE091E09183808385EC90E09587848784ECEE
S1131EF090E09787868780EC90E0918B808B81ECD3
S1131F0090E0938B828B82EC90E0958B848B86ECB3
S1131F1090E0978B868B118E128E138E148E0895FB
S1131F2008950E9489100E94900F0E949802C3E0B5
S1131F30DEE00E9457042097E1F30E94030EF9CFDC
S1131F40CF92DF92EF92FF920F931F93CF93DF9381
S1131F506C01EB017B01E40EF51E00E010E0CE15F0
S1131F60DF0561F06991D601ED91FC910190F0815A
S1131F70E02DC6010995080F191FF1CFC801DF91A3
S1131F80CF911F910F91FF90EF90DF90CF90089524
S1131F906115710579F0FB0101900020E9F7319793
S1131FA0AF01461B570BDC01ED91FC910280F381DC
S1131FB0E02D099480E090E00895EF92FF920F9352
S1131FC01F93CF93DF937C01FB0100E010E0649149
S1131FD0EF012196662361F0D701ED91FC91019008
S1131FE0F081E02DC7010995080F191FFE01EFCFFD
S1131FF0C801DF91CF911F910F91FF90EF90089549
S1132000DC01ED91FC910190F081E02D09940F9396
S11320101F93CF93DF93EC016DE00E9400108C01BD
S11320206AE0CE010E940010800F911FDF91CF91D2
S11320301F910F9108950F931F93CF93DF93EC019A
S11320400E94DD0F8C01CE010E940710800F911FAA
S1132050DF91CF911F910F9108950F931F93CF9309
S1132060DF93EC010E94C80F8C01CE010E9407107F
S1132070800F911FDF91CF911F910F9108951F92AF
S11320800F920FB60F9211242F933F938F939F9328
S1132090AF93BF938091740290917502A0917602E0
S11320A0B09177023091730223E0230F2D3720F48F
S11320B00196A11DB11D05C026E8230F0296A11D9E
S11320C0B11D209373028093740290937502A093C0
S11320D07602B09377028091780290917902A09170
S11320E07A02B0917B020196A11DB11D8093780202
S11320F090937902A0937A02B0937B02BF91AF913F
S11321009F918F913F912F910F900FBE0F901F9031
S11321101895789484B5826084BD84B5816084BD4B
S113212085B5826085BD85B5816085BDEEE6F0E04C
S1132130808181608083E1E8F0E0108280818260A8
S11321408083808181608083E0E8F0E08081816029
S11321508083E1EBF0E0808184608083E0EBF0E059
S1132160808181608083EAE7F0E0808184608083FD
S113217080818260808380818160808380818068A7
S113218080831092C1000895833081F028F4813057
S113219099F08230A1F008958730A9F08830B9F021
S11321A08430D1F4809180008F7D03C080918000C1
S11321B08F7780938000089584B58F7702C084B5AB
S11321C08F7D84BD08958091B0008F7703C0809186
S11321D0B0008F7D8093B0000895CF93DF9390E09B
S11321E0FC01E057FB4F2491FC01EC55FB4F84911B
S11321F0882361F190E0880F991FFC01EE53FB4F97
S1132200C591D491FC01E854FB4FA591B49161119F
S113221009C09FB7F8948881209582238883EC9124
S11322202E230BC0623061F49FB7F8943881822F5B
S1132230809583238883EC912E2B2C939FBF06C01B
S11322408FB7F894E8812E2B28838FBFDF91CF912D
S113225008951F93CF93DF93282F30E0F901E458BA
S1132260FB4F8491F901E057FB4FD491F901EC55F0
S1132270FB4FC491CC23C9F0162F81110E94C410C6
S1132280EC2FF0E0EE0FFF1FE854FB4FA591B49143
S11322908FB7F894111105C09C91ED2FE095E923B7
S11322A002C0EC91ED2BEC938FBFDF91CF911F9186
S11322B00895BF92CF92DF92EF92FF920F931F93F4
S11322C0CF93DF93C82ED62EB42EC7E0D0E0022FD2
S11322D010E087E0E82EF12CB11005C0C7018C1B7B
S11322E09D0B980102C098018C2F02C0359527954B
S11322F08A95E2F7B901617077278C2D0E94291124
S113230061E08D2D0E94291160E08D2D0E9429111C
S1132310219710F7DF91CF911F910F91FF90EF90CC
S1132320DF90CF90BF900895A1E21A2EAA1BBB1B89
S1132330FD010DC0AA1FBB1FEE1FFF1FA217B3078D
S1132340E407F50720F0A21BB30BE40BF50B661FA3
S1132350771F881F991F1A9469F760957095809567
S113236090959B01AC01BD01CF0108950E94C3115A
S1132370B7FF0895821B930B0895EE0FFF1F05907E
S1132380F491E02D0994A29FB001B39FC001A39FD3
S1132390700D811D1124911DB29F700D811D11249A
S11323A0911D0895FC0188279927E89421912032F2
S11323B0E9F3293010F02E30C8F32B3241F02D32DE
S11323C039F4689404C00E944812820F911D21912F
S11323D020532A30C0F31EF4909581959F4F0895A1
S11323E0FB01DC0102C005900D9241505040D8F72A
S11323F0089540E551E00E9421120895FC01819165
S1132400861721F08823D9F7992708953197CF01AA
S11324100895FB01DC018D91019080190110D9F31D
S1132420990B0895FB01DC014150504048F00190A4
S11324300D920020C9F701C01D9241505040E0F7B1
S11324400895FA01A191B081009719F41097E1F071
S1132450CD01DC01CD010D90002011F4C00113C0A9
S1132460FB012191222319F02015D9F7F3CFFB01A9
S11324702191201519F41E92119606C02223C1F74A
S11324800D900020A1F7D001FA01A193B083089523
S11324907AE0979F902D879F802D910D11240895A8
S11324A012E0C9E6D2E004C0FE010E94BD112196EB
S10D24B0CA36D107C9F7F894FFCF2C
S11324BA416E647265617300416E64726561732072
S11324CA4275726E69636B6C0074657874536869DB
S11324DA6674007465787400696E74656E736974E1
S11324EA7900737065656400736574446F740000E1
S11324FA000000540EA00FD50DEF0DE10D320E00B1
S9030000FC
