:100000000C94AA020C94D2020C94D2020C94D20248
:100010000C94D2020C94D2020C94D2020C94D20210
:100020000C94D2020C94FA0D0C94D2020C94D202CD
:100030000C94D2020C94400D0C94D2020C94D20277
:100040000C9492100C94D2020C94540F0C94860FC2
:100050000C94D2020C94D2020C94D2020C94D202D0
:100060000C94D2020C94D2024578616D706C653AA2
:1000700020746578743D6578616D706C6520746579
:10008000787400636F6D6D616E6420616E642076BC
:10009000616C75652068617320746F2062652073E0
:1000A000657061726174656420627920616E20659B
:1000B0007175616C207369676E006B6E6F776E206F
:1000C000636F6D6D616E6473206172653A20746553
:1000D00078742C20696E74656E7369747920616E12
:1000E0006420737065656400636F6D6D616E64207C
:1000F000646F6573206E6F74206D61746368007344
:10010000706163654265747765656E43686172739B
:100110002072616E6765204D41584D4154524958D7
:100120005F53504143455F4245545745454E5F43F9
:10013000484152535F4D494E5F56414C5545202E24
:100140002E2E204D41584D41545249585F53504135
:1001500043455F4245545745454E5F4348415253DE
:100160005F4D41585F56414C55450076616C756551
:10017000206F7574206F662072616E676500737002
:100180006565642072616E6765204D41584D41542C
:100190005249585F53504545445F4D494E5F564163
:1001A0004C5545202E2E2E204D41584D415452493C
:1001B000585F53504545445F4D41585F56414C553B
:1001C000450076616C7565206F7574206F662072CE
:1001D000616E676500696E74656E7369747920720B
:1001E000616E6765204D41584D41545249585F49F1
:1001F0004E54454E534954595F4D494E5F56414CFC
:100200005545202E2E2E204D41584D4154524958CF
:100210005F494E54454E534954595F4D41585F56BE
:10022000414C55450076616C7565206F7574206F83
:10023000662072616E67650003080000000000011F
:10024000085F000000000308030003000005081415
:100250003E143E140408246A2B1200050863130898
:100260006463050836495620500108030000000069
:1002700003081C22410000030841221C000005085D
:1002800028180E1828050808083E08080208B0704B
:100290000000000408080808080002086060000068
:1002A000000408601806010004083E41413E0003B6
:1002B00008427F40000004086251494600040822B9
:1002C0004149360004081814127F000408274545E8
:1002D000390004083E49493000040861110907004B
:1002E0000408364949360004080649493E00020818
:1002F0005000000000020880500000000308102891
:1003000044000003081414140000030844281000DB
:10031000000408025909060005083E49555D0E040F
:10032000087E11117E0004087F4949360004083E0A
:100330004141220004087F41413E0004087F4949B1
:10034000410004087F0909010004083E41497A0080
:1003500004087F08087F000308417F41000004086B
:100360003040413F0004087F0814630004087F40C8
:1003700040400005087F020C027F05087F0408103A
:100380007F04083E41413E0004087F09090600043D
:10039000083E4141BE0004087F0909760004084672
:1003A00049493200050801017F010104083F40402E
:1003B0003F0005080F3040300F05083F4038403FF0
:1003C0000508631408146305080708700807040883
:1003D000615149470002087F4100000004080106FE
:1003E0001860000208417F000000030802010200BB
:1003F00000040840404040000208010200000004E0
:1004000008205454780004087F4444380004083815
:100410004444280004083844447F000408385454F5
:1004200018000308047E050000040898A4A47800BE
:1004300004087F040478000308447D400000040899
:100440004080847D0004087F102844000308417F19
:1004500040000005087C047C047804087C040478CF
:1004600000040838444438000408FC24241800041C
:1004700008182424FC0004087C080404000408482C
:10048000545424000308043F44000004083C404046
:100490007C0005081C2040201C05083C403C403CDA
:1004A0000508442810284404089CA0A07C000308E8
:1004B00064544C00000308083641000001087F0026
:1004C000000000030841360800000408080408047E
:1004D0000004087C13137C0004083C43433C0004E4
:1004E000083E41413E000408205656780004083872
:1004F0004646380004083C42427C000000000800E8
:1005000002010000030407000000000000000001D9
:100510000204081020408001020408102001020497
:100520000810200404040404040404020202020269
:100530000203030303030300000000250028002B2F
:100540000000000000240027002A00000605210EFC
:10055000B60F0D0511241FBECFEFD8E0DEBFCDBF13
:1005600011E0A0E0B1E0EAE5F5E202C005900D92ED
:10057000A236B107D9F723E0A2E6B1E001C01D928F
:10058000A730B207E1F712E0C9EAD2E004C0219730
:10059000FE010E940D12C63AD107C9F70E94E40F6E
:1005A0000C94A0120C94000081E0809395010895B2
:1005B00040E45DE063E070E085E592E00E94CF0DED
:1005C0002FEF3FEFA90164ED72E085E592E00E9414
:1005D000DF0D26E040E855E260E070E081E692E061
:1005E0000E94EF0E85E691E00E944F0961E085E6EA
:1005F00091E00E94050660E071E085E691E00E94CE
:10060000DB0A49E550E068E071E086E991E00E948C
:1006100062121092EF011092F0011092950181E0A8
:1006200080936401089568EE70E081E692E00E9494
:100630006E106AEB70E081E692E00E946E1063E853
:1006400070E081E692E00E946E1068E670E081E65C
:1006500092E00C946E10EF92FF921F93CF93DF9372
:10066000CDB7DEB7C157D1090FB6F894DEBF0FBEC4
:10067000CDBFFE01E55AFF4F1192119288E0DF01D4
:100680001D928A95E9F71A821982FE01339688E550
:10069000DF011D928A95E9F78DE390E0E2969FAF26
:1006A0008EAFE2978CE290E0E0969FAF8EAFE0973E
:1006B0006DE370E081EF91E00E944E12892B09F406
:1006C00067C1BE0160597F4F81EF91E00E944912DE
:1006D000009759F049E050E0BC01CE01855A9F4F88
:1006E0000E946212A5961FAEA597BE0160597F4F6A
:1006F00080E090E00E944912009751F049E550E0F7
:10070000BC01CE0101960E9462126B961FAE6B97E0
:1007100069E171E0CE01855A9F4F0E945912892BE1
:10072000E9F480916401823019F082E080936401E1
:1007300049E550E0BE016F5F7F4F86E991E00E947E
:1007400062121092EF0185E691E00E94370966E996
:1007500071E085E691E00E948D0523C163E271E0BE
:10076000CE01855A9F4F0E945912892BE9F480913E
:100770006401813019F081E08093640149E550E023
:10078000BE016F5F7F4F86E991E00E946212109276
:10079000EF0185E691E00E94370966E971E085E6A0
:1007A00091E00E94DB0AFDC068E271E0CE01855A4B
:1007B0009F4F0E945912892BD1F4CE0101960E94BD
:1007C00022129C01215031092031310538F46FEF9C
:1007D000680F85E691E00E948305E3C065E272E060
:1007E00081E692E00E946E1065ED71E04AC062E31E
:1007F00071E0CE01855A9F4F0E945912892B11F545
:10080000CE0101960E9422129C012150310924310F
:10081000310578F4A5E1B0E0A81BB90B20E533EC75
:100820000E940612AB01BC0185E592E00E94670DB3
:10083000B8C062EC71E081E692E00E946E106EE753
:1008400071E01FC068E371E0CE01855A9F4F0E949E
:100850005912892BD9F4CE0101960E9422128F3FA2
:10086000910509F030F4682F85E691E00E94AB0510
:1008700098C06BE671E081E692E00E946E106FEF27
:1008800070E081E692E00E946E108BC06AE471E035
:10089000CE01855A9F4F0E945912892B09F078C0CA
:1008A00080916401813039F081E08093640185E6B4
:1008B00091E00E943709AD961FAE1EAEAD97AE9681
:1008C0001FAEAE97AA961FAE1EAEAA97AB961FAEEE
:1008D000AB97A7961FAE1EAEA797A8961FAEA89778
:1008E000BE0162597F4FCE0101960E9449120097C6
:1008F00059F042E050E0BC01CE0185599F4F0E9463
:100900006212AE961FAEAE97BE0162597F4F80E075
:1009100090E00E944912009759F042E050E0BC017B
:10092000CE0188599F4F0E946212AB961FAEAB97C3
:10093000BE0162597F4F80E090E00E94491200970B
:1009400059F042E050E0BC01CE018B599F4F0E940C
:100950006212A8961FAEA897CE018B599F4F0E9496
:1009600022127C01CE0188599F4F0E942212182F1B
:10097000CE0185599F4F0E94221221E0EF2809F4F1
:1009800020E0412F682F85E691E00E941E0A09C0F1
:10099000BE01655A7F4F81E692E00E9480100E945E
:1009A0001303CF58DF4F0FB6F894DEBF0FBECDBF95
:1009B000DF91CF911F91FF90EF9008958091F0010A
:1009C000882331F00E942B031092F1011092F00164
:1009D000809195018823C9F0809164018230A9F447
:1009E00080916801833021F485E691E00E942C0D0E
:1009F00080916801823031F466E971E085E691E02A
:100A00000E948D0510929501089508952BE04AE00B
:100A10006CE085E691E00C94390585E691E00C9454
:100A200056051F93CF93DF93C1EFD1E011E081E62C
:100A300092E00E94280E892BC1F081E692E00E948C
:100A4000420E8A3019F41093F001F1CFFE010190AB
:100A50000020E9F73197E15FF140E336F1053CF71B
:100A6000EF50FE4F80831182E2CFDF91CF911F9133
:100A70000895CF93DF93FC0160834183228317A6FF
:100A800016A614A681E085A714821382EF0125968D
:100A9000DF0195961992CA17DB07E1F7BC961D9204
:100AA000AE17BF07E1F7DF91CF9108950895EF9258
:100AB000FF920F931F93CF93DF93EC01E62EF42E5A
:100AC00060E089810E947C1104E010E02E2D41E05D
:100AD0006A8188810E94AB112F2D41E06A81888153
:100AE0000E94AB110150110989F760E089810E94D1
:100AF0007C1161E08981DF91CF911F910F91FF906F
:100B0000EF900C947C11603130F4462F6AE00E9423
:100B1000570580E0089581E00895FC016115710595
:100B200039F014A677A766A783E0838380E0089551
:100B300081E00895653668F4CA0127E0629FB0013C
:100B40001124685C7D4F47E050E00E94401280E035
:100B5000089581E00895FC0165A780E00895962F2F
:100B60009295692F6C7C862F86958695937324E0E9
:100B7000929FB0011124682B862F8A7A869565751D
:100B8000660F862B0895AF92BF92CF92DF92EF92BD
:100B9000FF921F93CF93DF93EC017C0111E060E0A3
:100BA00089810E947C11570184E0C82ED12C212F0D
:100BB00041E06A8188810E94AB11F501258141E005
:100BC0006A8188810E94AB11F1E0CF1AD10888E0D8
:100BD000A80EB11CC114D10451F760E089810E94B4
:100BE0007C1161E089810E947C11EFEFEE1AFE0A10
:100BF0001F5F1930A1F6DF91CF911F91FF90EF9009
:100C0000DF90CF90BF90AF9008952F923F924F9278
:100C10005F926F927F928F929F92AF92BF92CF928C
:100C2000DF92EF92FF920F931F93CF93DF93CDB795
:100C3000DEB7AA970FB6F894DEBF0FBECDBF1C017A
:100C4000FC018481861709F496C1811104C06130CA
:100C500099F090E07CC0813021F4623069F090E03E
:100C600083C0823021F4633039F090E083C0833058
:100C700009F077C0611181C020E030E0812C912C17
:100C800054018394722FA901495F5F4F5CA34BA36A
:100C9000E7E0F0E0FEA3EDA36901F8E0CF0ED11C80
:100CA00041E050E00DA002C0440F551F0A94E2F746
:100CB0005AA349A381010C0D1D1DEBA0FCA097E0D8
:100CC000A1E0B0E0AC0FBD1FA70FB11DE216F30607
:100CD0005CF1F801448150E0E9A1FAA14E235F23C1
:100CE000452B69F04C9124013501092E04C0440CB8
:100CF000551C661C771C0A94D2F7442A0DC02401A7
:100D00003501092E04C0440C551C661C771C0A943E
:100D1000D2F740944C9144224C929150F1E0EF1A5A
:100D2000F10801501109D2CF7F5F4DA15EA1415062
:100D300051095EA34DA34F3F5F4F09F0B1CF96011C
:100D40002032310509F09ECF90E281110BC0623054
:100D500009F071C027E030E0412C512C320143945E
:100D60001BC090E0813021F4633009F075C0F2CFF0
:100D7000823029F4662371F37BC090E003C0833096
:100D800009F057C0613009F078C0E4CF285F3F4FC9
:100D90002732310509F44DC0A9016901E7E0CE1AF7
:100DA000D108F9013196E20DF31D4C155D0574F380
:100DB000E480F12C00E010E077E0A1E0B0E0AC0FBF
:100DC000BD1FA90FB11D5701002E02C0B594A794F5
:100DD0000A94E2F7A0FE15C08C908BA25301420149
:100DE000072E04C0880C991CAA1CBB1C0A94D2F7BD
:100DF0008FA298A6A9A6BAA6B82C9BA0B928BC9287
:100E00000EC053014201072E04C0880C991CAA1C75
:100E1000BB1C0A94D2F78094BC908B208C927150AA
:100E20000F5F1F4F7F3F79F69F5F41505109319708
:100E3000BCCF81110FC0633089F4710128E030E02C
:100E40003AA329A3CC24C394D12C412C512C320198
:100E5000439443C0813051F4662379F3F1016483F4
:100E6000DE0111963596C101859665C0823019F470
:100E70006130A1F7E2CF833089F7623079F7DDCFB7
:100E80004601022E02C0880C991C0A94E2F79CA22B
:100E90008BA2D70187E0492F420F01E010E00C0F31
:100EA0001D1F040F111DAD0142195309A9A0BAA0BD
:100EB0004A155B05ACF02F5F3F4F2830310501F735
:100EC000985FF8E0EF0EF11C29A13AA1285F3F4F8F
:100ED0003AA329A32832310509F220E030E0D0CF2F
:100EE00015964C91159750E0EBA1FCA14E235F2382
:100EF000452B71F0F801408153014201082E04C0D6
:100F0000880C991CAA1CBB1C0A94D2F748290FC054
:100F100053014201082E04C0880C991CAA1CBB1C5A
:100F20000A94D2F7582D5095F8014081452340830B
:100F300081501196B8CF2D912193E817F907D9F771
:100F4000C101AA960FB6F894DEBF0FBECDBFDF91E8
:100F5000CF911F910F91FF90EF90DF90CF90BF90B6
:100F6000AF909F908F907F906F905F904F903F9049
:100F70002F900C94C305AA960FB6F894DEBF0FBE4F
:100F8000CDBFDF91CF911F910F91FF90EF90DF9038
:100F9000CF90BF90AF909F908F907F906F905F9019
:100FA0004F903F902F900895FA01643C11F48FE523
:100FB00013C0663D11F480E60FC06C3D11F481E66C
:100FC0000BC0643E11F482E607C0663F11F483E66D
:100FD00003C06C3F19F484E6808304C060526F350F
:100FE00018F4608380E0089581E00895BF92CF9265
:100FF000DF92EF92FF920F931F93CF93DF93E9015C
:101000006430D8F54830C8F5A1E0B0E002C0AA0FBE
:10101000BB1F4A95E2F728E0629F800D911D1124C5
:10102000FC01359687E090E001E010E020E030E040
:10103000619170E06A237B23B880672B69F06801B7
:101040007901082E04C0CC0CDD1CEE1CFF1C0A9498
:10105000D2F7CB28C8820DC0B901A801082E04C060
:10106000440F551F661F771F0A94D2F740954B21F6
:1010700048830197E8F680E001C081E0DF91CF91DD
:101080001F910F91FF90EF90DF90CF90BF90089548
:10109000CF92DF92FF920F931F93CF93DF931F9214
:1010A000CDB7DEB7FC01848181110AC0603218F02F
:1010B000FF24F39439C0E60FF11D8581FA011DC0AC
:1010C0006A01962F8F01669566956695492F477040
:1010D000813031F49601CF010E94F607F82E24C02A
:1010E000823071F48FE1891B803210F7E80FF11D17
:1010F0006581C8010E94AF05F6018083F12C14C000
:101100008330B1F687E0841B482F9E012F5F3F4F4D
:10111000CF010E94F607F82E8111CACF6981C8015C
:101120000E94AF05F60180838F2D0F90DF91CF9144
:101130001F910F91FF90DF90CF900895BF92CF92B3
:10114000DF92EF92FF920F931F93CF93DF93603262
:10115000E8F5042F162FEC01C62EC694C694C6944B
:10116000D12C862F8770B82E60E089810E947C1177
:10117000E12CF12CB394CE14DF0441F42B2D41E08B
:101180006A8188810E94AB11202F07C020E041E0D6
:101190006A8188810E94AB1120E041E06A818881E8
:1011A0000E94AB118FEFE81AF80A84E0E816F10408
:1011B00011F760E089810E947C1161E089810E94C1
:1011C0007C11C10FD11D0D8380E001C081E0DF9152
:1011D000CF911F910F91FF90EF90DF90CF90BF9034
:1011E0000895AF92BF92CF92DF92EF92FF920F934A
:1011F0001F93CF93DF93683070F5042F162FEC0107
:1012000060E089810E947C11A12EB12C6E0184E0E6
:10121000E82EF12C1F5F212F41E06A8188810E9416
:10122000AB11202F41E06A8188810E94AB11F60149
:101230000583F1E0EF1AF108CA0CDB1CE114F1049C
:1012400051F760E089810E947C1161E089810E94F0
:101250007C1180E001C081E0DF91CF911F910F915F
:10126000FF90EF90DF90CF90BF90AF9008951F93C5
:10127000CF93DF93EC0110E040E0612FCE010E949C
:10128000F1081F5F1830C1F7FE013596A59611923F
:10129000EC17FD07E1F7DF91CF911F910895CF93F0
:1012A000DF93EC0181E08B8361E088810E94401133
:1012B00061E08A810E94401161E089810E944011B1
:1012C00061E08A810E947C1147E06BE0CE010E94C0
:1012D000570540E069E0CE010E94570541E06CE00F
:1012E000CE010E94570540E06FE0CE010E945705F5
:1012F000CE010E94370965E0CE010E94830582E09D
:101300008B83DF91CF910895AF92BF92CF92DF92FE
:10131000EF92FF920F931F93CF93DF93643008F007
:101320003FC04830E8F58C01F62EFF0CFF0CFF0C97
:10133000C62FD0E0219683E0CC0FDD1F8A95E1F720
:1013400081E090E0A0E0B0E004C0880F991FAA1FE0
:10135000BB1F4A95D2F7A82EE82EE09497E0B92E4D
:10136000C22ED12CEF2DF0E0EC17FD07DCF4E00FDE
:10137000F11FC6010B2C02C0959587950A94E2F7E0
:1013800080FF03C085818A2902C085818E218583E3
:1013900045816F2DC8010E949E08BA94F394E2CF54
:1013A00081E001C080E0DF91CF911F910F91FF900C
:1013B000EF90DF90CF90BF90AF900895FF920F9382
:1013C0001F93CF93DF93EC01062F069506950695A4
:1013D000862F8770F82E9C81992379F0913019F42B
:1013E000242F482F1BC0162F923079F4642FCE0182
:1013F0000E94AF056FE1611B482FCE01DF91CF91B5
:101400001F910F91FF900C949E08933081F4642FEC
:10141000CE010E94AF0547E04F19282F602FCE0163
:10142000DF91CF911F910F91FF900C94840981E07F
:10143000DF91CF911F910F91FF900895DF92EF926E
:10144000FF920F931F93CF93DF931F92CDB7DEB719
:10145000603280F5483070F5D22EE42EF62E8C01E5
:10146000AE014F5F5F4F0E9448082981DD2071F077
:1014700081E090E0A0E0B0E004C0880F991FAA1FAF
:10148000BB1FEA94D2F7822B89830EC041E050E063
:1014900060E070E004C0440F551F661F771FEA9498
:1014A000D2F740954223498349816F2DC8010E949C
:1014B000DE0901C081E00F90DF91CF911F910F9164
:1014C000FF90EF90DF9008952F923F924F925F929E
:1014D0006F927F928F929F92AF92BF92CF92DF9244
:1014E000EF92FF920F931F93CF93DF934C013A013A
:1014F0008901F9012080312C4180512CEB017901C7
:10150000F8E04F16510431F5452B21F5C701801B3A
:10151000910B82159305E4F5C032D10530F4F70143
:1015200042816C2FC4010E94DE092196FFEFEF1A61
:10153000FF0AECCFC032D105B8F0FFEFAF1ABF0AF7
:101540008FEFC81AD80AA414B504A4F3EFEFEE1A6B
:10155000FE0A2196C701801B910B82159305C4F4E6
:101560006301A12CB12CEFCF88E0C816D10428F775
:10157000F701228130E00A2C02C0359527950A94A4
:10158000E2F721704C2D6C2FC4010E941E0AD5CFAA
:10159000DF91CF911F910F91FF90EF90DF90CF904F
:1015A000BF90AF909F908F907F906F905F904F9083
:1015B0003F902F900895CF92DF92EF92FF920F937A
:1015C0001F93CF93DF93CDB7DEB728970FB6F8946C
:1015D000DEBF0FBECDBF6115710591F16C018B01AE
:1015E000E12CF12CF80161918F01611102C080E0C2
:1015F00028C0AE01485F5F4FC6010E94D40781300A
:10160000F9F0AE014F5F5F4F6885C6010E949A05F1
:101610008130B1F09E012F5F3F4F40E050E0B701B5
:10162000C6010E94640A8981F60125A530E0280FD1
:10163000311DE20EF31EF1E2EF16F1049CF2D7CF5A
:1016400081E028960FB6F894DEBF0FBECDBFDF91C4
:10165000CF911F910F91FF90EF90DF90CF90089561
:10166000CF93DF93FC0135962223A9F0DC01159678
:101670002C911597949631813193EA17FB07D9F78E
:10168000662319F0FC0124A31FC04423E9F0DC0108
:1016900094961C9219C0EC01A5965081DF0120E0C0
:1016A00030E011967C9111977D932F5F3F4F27304B
:1016B0003105B9F7662311F0578302C04111178233
:1016C0003896EC17FD0749F7DF91CF910C94C305CD
:1016D000CF93DF93FC01222399F024A1B496DC017F
:1016E000159632913183EA17FB07D9F7662319F073
:1016F000FC01258321C04423F9F0FC0115821CC0A4
:10170000EC01A0965485DF0127E030E01B967C9128
:101710001B971C967C931C9721503109119721151A
:101720003105A1F7662311F0558302C041111582DE
:101730003896EC17FD0731F7DF91CF910C94C30574
:10174000BF92CF92DF92EF92FF920F931F93CF93AE
:10175000DF9300D0CDB7DEB78C01E62E1A82198256
:10176000442309F450C06C0185E0C80ED11CF12C53
:10177000F1100AC0EE2041F09E012F5F3F4F40E084
:1017800060E0C8010E94F607BB24B394BF0C9E0121
:101790002E5F3F4F40E06B2DC8010E94F607F60117
:1017A00020E030E0808190E09595879581932F5FD0
:1017B0003F4F28303105B1F783E0F8121DC0E1102A
:1017C00017C088E0C80ED11C84E0B8120FC0C80151
:1017D0000E94C3050F900F90DF91CF911F910F9141
:1017E000FF90EF90DF90CF90BF900895FB2CC0CF7B
:1017F000298147E063E003C02A8147E06F2DC801DB
:101800000E948409DECFFC01AC01405E5F4F258160
:10181000822F90E095958795EE2011F020FD80684D
:10182000858331964E175F0791F7D1CFAF92BF9264
:10183000DF92EF92FF920F931F93CF93DF9300D02D
:10184000CDB7DEB78C01E62E1A821982442309F443
:101850004DC05C0185E0A80EB11CF12CF1100AC04E
:10186000EE2041F09E012F5F3F4F47E060E0C8014E
:101870000E94F607DD24D394DF0C9E012E5F3F4FBC
:1018800047E06D2DC8010E94F607F50180E090E069
:101890002081220F2193019688309105C9F783E0BA
:1018A000F8121DC0E11017C088E0A80EB11C84E03A
:1018B000D8120FC0C8010E94C3050F900F90DF918E
:1018C000CF911F910F91FF90EF90DF90BF90AF905D
:1018D0000895FD2CC3CF298140E063E003C02A8135
:1018E00040E06F2DC8010E948409DECFFC019C01FD
:1018F000205E3F4F9581892F880F8583EE2021F050
:1019000097FF02C08160858331962E173F0791F7BC
:10191000D1CF0F931F93CF93DF93EC01162F042F9A
:101920008C81811104C021E0CE010E94300B8C819A
:10193000813029F441E0612FCE010E94A00B8C81FF
:10194000823031F421E0402F612FCE010E94680BDC
:101950008C81833049F441E0612FCE01DF91CF913A
:101960001F910F910C94160CDF91CF911F910F9145
:101970000895CF93DF93EC0141E060E00E94890C71
:101980009CA59F5F9CA78DA1492F50E0891770F0FF
:101990009E012B5D3F4F60E270E0641B750B40E0E1
:1019A00050E0CE01DF91CF910C94640A2DA590E018
:1019B000820F911D01964817590731F48B818430AD
:1019C00011F482E08B831CA6DF91CF9108950F93D1
:1019D0001F93CF93DF931F92CDB7DEB78C01DC014D
:1019E0009C968C919C9781112EC09E96ED91FC91B6
:1019F0009F9760816623F1F0AE014F5F5F4FC80192
:101A00000E94D407A8014B5D5F4F6981C8010E9405
:101A10009A0581E0F80184A7C8010E94B90CD80199
:101A20009E968D919C919F9701969F969C938E93E5
:101A30009E970CC082E0F801838341E060E0C8011A
:101A40000E94890C03C0C8010E94B90C0F90DF915D
:101A5000CF911F910F910895CF93DF93EC018B816C
:101A6000833019F4CE010E94E70C8B81843029F475
:101A7000CE01DF91CF910C94B90CDF91CF910895F5
:101A80001F920F920FB60F9211242F933F934F93F3
:101A90005F936F937F938F939F93AF93BF93EF93D6
:101AA000FF93E0915902F0915A020995FF91EF914D
:101AB000BF91AF919F918F917F916F915F914F9166
:101AC0003F912F910F900FBE0F901F901895FC0122
:101AD000A3E0440F551F661F771FAA95D1F7411544
:101AE000510581E06807710514F481E00EC033E010
:101AF00075956795579547953A95D1F741155105D5
:101B000081E0680771051CF482E0828331C023E024
:101B100075956795579547952A95D1F741155105C4
:101B200081E06807710514F483E0EFCF92E07595CA
:101B30006795579547959A95D1F74115510581E0DD
:101B40006807710514F484E0E0CF82E0759567952D
:101B5000579547958A95D1F785E0828341155105C0
:101B600081E06807710524F04FEF5FEF60E070E0FF
:101B70008FB78383F89451834083509387004093B9
:101B8000860083818FBF80918100887F8093810050
:101B9000909181008281892B809381000895109219
:101BA000800020E1209381000C94670DE1E8F0E0D3
:101BB0002081DC0112968C91822B808308950F93F3
:101BC0001F93CF93DF93EC018B01BA01A901141687
:101BD00015061606170614F40E94670D1D830C8364
:101BE00081E080936F00CE01DF91CF911F910F9123
:101BF0000C94D60D1F920F920FB60F9211242F93B3
:101C00003F934F935F936F937F938F939F93AF9384
:101C1000BF93EF93FF93E0915F02F091600209950B
:101C2000FF91EF91BF91AF919F918F917F916F91B4
:101C30005F914F913F912F910F900FBE0F901F908A
:101C40001895EBE5F2E01082158214821182089556
:101C5000FC01918D228D892F90E0805C9F4F821B2B
:101C600091098F7399270895FC01918D828D9817A2
:101C700031F0828DE80FF11D858D90E008958FEF92
:101C80009FEF0895FC01918D828D981761F0828DF0
:101C9000DF01A80FB11D5D968C91928D9F5F9F73A0
:101CA000928F90E008958FEF9FEF08958CEA9FE068
:101CB000892B49F081E195E0892B29F00E94AC0F36
:101CC00081110C9411050895FC01848DDF01A80F8A
:101CD000B11DA35ABF4F2C91848D90E001968F7354
:101CE0009927848FA689B7892C93A089B1898C9173
:101CF00080648C93938D848D981306C00288F38939
:101D0000E02D80818F7D80830895EF92FF920F9365
:101D10001F93CF93DF93EC019B8D8C8D981305C09F
:101D2000E889F989808185FD27C0F62E0B8D10E0AA
:101D30000F5F1F4F0F731127E02E8C8DE8120CC020
:101D40000FB607FCFACFE889F989808185FFF5CFC6
:101D5000CE010E94640EF1CF8B8DFE01E80FF11DC4
:101D6000E35AFF4FF0820B8FEA89FB898081806202
:101D7000808381E0888F08C0EE89FF896083E889CD
:101D8000F98980818064808381E090E0DF91CF9148
:101D90001F910F91FF90EF900895CF93DF93EC0187
:101DA000888D8823C9F0EA89FB89808185FD05C07B
:101DB000A889B9898C9186FD0FC00FB607FCF5CFB5
:101DC000808185FFF2CFA889B9898C9185FFEDCFFD
:101DD000CE010E94640EE7CFDF91CF910895CF929C
:101DE000DF92EF92FF921F93CF93DF93EC016A0192
:101DF0007B01122FE889F98982E080834115514ED9
:101E000061057105B1F060E079E08DE390E0A70134
:101E100096010E94E411DA01C9010197A109B109F3
:101E2000B695A795979587959C01211580E1380770
:101E3000A8F0E889F989108260E874E88EE190E002
:101E4000A70196010E94E411DA01C9010197A109D5
:101E5000B109B695A795979587959C01EC85FD8569
:101E60003083EE85FF852083188EEC89FD891083F1
:101E7000EA89FB89808180618083EA89FB8980818E
:101E800088608083EA89FB89808180688083EA8911
:101E9000FB8980818F7D8083DF91CF911F91FF909F
:101EA000EF90DF90CF9008951F920F920FB60F9290
:101EB00011242F938F939F93EF93FF93E0917102DF
:101EC000F09172028081E0917702F091780282FDB8
:101ED00012C0908180917A028F5F8F7320917B0274
:101EE000821751F0E0917A02F0E0EF59FD4F958FA3
:101EF00080937A0201C08081FF91EF919F918F9131
:101F00002F910F900FBE0F901F9018951F920F9258
:101F10000FB60F9211242F933F934F935F936F93BC
:101F20007F938F939F93AF93BF93EF93FF9381E63C
:101F300092E00E94640EFF91EF91BF91AF919F914B
:101F40008F917F916F915F914F913F912F910F9062
:101F50000FBE0F901F90189581E692E00E94280E08
:101F600021E0892B09F420E0822F0895E1E6F2E0D8
:101F70001382128288EE93E0A0E0B0E08483958320
:101F8000A683B78385E591E09183808385EC90E01B
:101F90009587848784EC90E09787868780EC90E033
:101FA000918B808B81EC90E0938B828B82EC90E024
:101FB000958B848B86EC90E0978B868B118E128E9E
:101FC000138E148E089508950E94DC100E94E30F72
:101FD0000E94D802C6E5DEE00E94DE042097E1F30D
:101FE0000E94560EF9CFCF92DF92EF92FF920F939D
:101FF0001F93CF93DF936C01EB017B01E40EF51E81
:1020000000E010E0CE15DF0561F06991D601ED9199
:10201000FC910190F081E02DC6010995080F191F70
:10202000F1CFC801DF91CF911F910F91FF90EF90F9
:10203000DF90CF9008956115710579F0FB01019053
:102040000020E9F73197AF01461B570BDC01ED91FA
:10205000FC910280F381E02D099480E090E00895E6
:10206000EF92FF920F931F93CF93DF937C01FB01BD
:1020700000E010E06491EF012196662361F0D70142
:10208000ED91FC910190F081E02DC7010995080FB9
:10209000191FFE01EFCFC801DF91CF911F910F9162
:1020A000FF90EF900895DC01ED91FC910190F0819B
:1020B000E02D09940F931F93CF93DF93EC016DE014
:1020C0000E9453108C016AE0CE010E945310800FD1
:1020D000911FDF91CF911F910F9108950F931F933F
:1020E000CF93DF93EC010E9430108C01CE010E944F
:1020F0005A10800F911FDF91CF911F910F9108957A
:102100000F931F93CF93DF93EC010E941B108C0160
:10211000CE010E945A10800F911FDF91CF911F9125
:102120000F9108951F920F920FB60F9211242F93C3
:102130003F938F939F93AF93BF938091FF029091B2
:102140000003A0910103B09102033091FE0223E04D
:10215000230F2D3720F40196A11DB11D05C026E8DF
:10216000230F0296A11DB11D2093FE028093FF0252
:1021700090930003A0930103B093020380910303A3
:1021800090910403A0910503B09106030196A11D4F
:10219000B11D8093030390930403A0930503B093B0
:1021A0000603BF91AF919F918F913F912F910F9017
:1021B0000FBE0F901F901895789484B5826084BDEF
:1021C00084B5816084BD85B5826085BD85B581603B
:1021D00085BDEEE6F0E0808181608083E1E8F0E09B
:1021E0001082808182608083808181608083E0E8CA
:1021F000F0E0808181608083E1EBF0E080818460A9
:102200008083E0EBF0E0808181608083EAE7F0E0AA
:10221000808184608083808182608083808181600E
:1022200080838081806880831092C100089583300C
:1022300081F028F4813099F08230A1F00895873040
:10224000A9F08830B9F08430D1F4809180008F7D7E
:1022500003C0809180008F7780938000089584B5BB
:102260008F7702C084B58F7D84BD08958091B000C2
:102270008F7703C08091B0008F7D8093B000089568
:10228000CF93DF9390E0FC01E15FFA4F2491FC01D2
:10229000ED5DFA4F8491882361F190E0880F991FDA
:1022A000FC01EF5BFA4FC591D491FC01E95CFA4F58
:1022B000A591B491611109C09FB7F89488812095C8
:1022C00082238883EC912E230BC0623061F49FB788
:1022D000F8948881322F309583238883EC912E2BBC
:1022E0002C939FBF06C08FB7F894E8812E2B2883CC
:1022F0008FBFDF91CF9108951F93CF93DF93282F46
:1023000030E0F901E550FB4F8491F901E15FFA4FAC
:10231000D491F901ED5DFA4FC491CC23C1F0162F91
:1023200081110E941711EC2FF0E0EE0FFF1FE95C06
:10233000FA4FA591B4919FB7F894111104C08C91F4
:10234000D095D82302C0EC91DE2BDC939FBFDF91A8
:10235000CF911F910895BF92CF92DF92EF92FF929B
:102360000F931F93CF93DF93C82ED62EB42EC7E0C2
:10237000D0E0022F10E087E0E82EF12CB11005C06C
:10238000C7018C1B9D0BB80102C0B8018C2F02C085
:10239000759567958A95E2F761708C2D0E947C1186
:1023A00061E08D2D0E947C1160E08D2D0E947C11DA
:1023B000219720F7DF91CF911F910F91FF90EF9020
:1023C000DF90CF90BF900895A1E21A2EAA1BBB1BED
:1023D000FD010DC0AA1FBB1FEE1FFF1FA217B307F1
:1023E000E407F50720F0A21BB30BE40BF50B661F07
:1023F000771F881F991F1A9469F7609570958095CB
:1024000090959B01AC01BD01CF0108950E9413126C
:10241000B7FF0895821B930B0895EE0FFF1F0590E1
:10242000F491E02D0994A29FB001B39FC001A39F36
:10243000700D811D1124911DB29F700D811D1124FD
:10244000911D0895FC0188279927E8942191203255
:10245000E9F3293010F02E30C8F32B3241F02D3241
:1024600039F4689404C00E949812820F911D219142
:1024700020532A30C0F31EF4909581959F4F089504
:10248000FB01DC0102C005900D9241505040D8F78D
:10249000089542E651E00E9471120895FC01819175
:1024A000861721F08823D9F7992708953197CF010E
:1024B0000895FB01DC018D91019080190110D9F381
:1024C000990B0895FB01DC014150504048F0019008
:1024D0000D920020C9F701C01D9241505040E0F715
:1024E0000895FA01A191B081009719F41097E1F0D5
:1024F000CD01DC01CD010D90002011F4C00113C00D
:10250000FB012191222319F02015D9F7F3CFFB010C
:102510002191201519F41E92119606C02223C1F7AD
:102520000D900020A1F7D001FA01A193B083089586
:102530007AE0979F902D879F802D910D112408950B
:1025400012E0C9EAD2E004C0FE010E940D122196F9
:0A255000CA3AD107C9F7F894FFCF8B
:10255A00416E647265617300416E647265617320D5
:10256A004275726E69636B6C00746578745368693E
:10257A006674007465787400696E74656E73697444
:10258A007900737065656400737061636542657490
:10259A007765656E436861727300736574446F741E
:1025AA000000000000850EF30F280E420E340ECDF7
:0225BA000E0011
:00000001FF
