S01300004C65645F416E7A656967652E73726563DA
S11300000C94AA020C94D2020C94D2020C94D20244
S11300100C94D2020C94D2020C94D2020C94D2020C
S11300200C94D2020C94390E0C94D2020C94D20289
S11300300C94D2020C947F0D0C94D2020C94D20234
S11300400C94D1100C94D2020C94930F0C94C50F01
S11300500C94D2020C94D2020C94D2020C94D202CC
S11300600C94D2020C94D2024578616D706C653A9E
S113007020746578743D6578616D706C6520746575
S1130080787400636F6D6D616E6420616E642076B8
S1130090616C75652068617320746F2062652073DC
S11300A0657061726174656420627920616E206597
S11300B07175616C207369676E006B6E6F776E206B
S11300C0636F6D6D616E6473206172653A2074654F
S11300D078742C20696E74656E7369747920616E0E
S11300E06420737065656400636F6D6D616E642078
S11300F0646F6573206E6F74206D61746368007340
S1130100706163654265747765656E436861727397
S11301102072616E6765204D41584D4154524958D3
S11301205F53504143455F4245545745454E5F43F5
S1130130484152535F4D494E5F56414C5545202E20
S11301402E2E204D41584D41545249585F53504131
S113015043455F4245545745454E5F4348415253DA
S11301605F4D41585F56414C55450076616C75654D
S1130170206F7574206F662072616E6765007370FE
S11301806565642072616E6765204D41584D415428
S11301905249585F53504545445F4D494E5F56415F
S11301A04C5545202E2E2E204D41584D4154524938
S11301B0585F53504545445F4D41585F56414C5537
S11301C0450076616C7565206F7574206F662072CA
S11301D0616E676500696E74656E73697479207207
S11301E0616E6765204D41584D41545249585F49ED
S11301F04E54454E534954595F4D494E5F56414CF8
S11302005545202E2E2E204D41584D4154524958CB
S11302105F494E54454E534954595F4D41585F56BA
S1130220414C55450076616C7565206F7574206F7F
S1130230662072616E67650003080000000000011B
S1130240085F000000000308030003000005081411
S11302503E143E140408246A2B1200050863130894
S11302606463050836495620500108030000000065
S113027003081C22410000030841221C0000050859
S113028028180E1828050808083E08080208B07047
S11302900000000408080808080002086060000064
S11302A0000408601806010004083E41413E0003B2
S11302B008427F40000004086251494600040822B5
S11302C04149360004081814127F000408274545E4
S11302D0390004083E494930000408611109070047
S11302E00408364949360004080649493E00020814
S11302F0500000000002088050000000030810288D
S113030044000003081414140000030844281000D7
S1130310000408025909060005083E49555D0E040B
S1130320087E11117E0004087F4949360004083E06
S11303304141220004087F41413E0004087F4949AD
S1130340410004087F0909010004083E41497A007C
S113035004087F08087F000308417F410000040867
S11303603040413F0004087F0814630004087F40C4
S113037040400005087F020C027F05087F04081036
S11303807F04083E41413E0004087F090906000439
S1130390083E4141BE0004087F090976000408466E
S11303A049493200050801017F010104083F40402A
S11303B03F0005080F3040300F05083F4038403FEC
S11303C0050863140814630508070870080704087F
S11303D0615149470002087F4100000004080106FA
S11303E01860000208417F000000030802010200B7
S11303F000040840404040000208010200000004DC
S113040008205454780004087F4444380004083811
S11304104444280004083844447F000408385454F1
S113042018000308047E050000040898A4A47800BA
S113043004087F040478000308447D400000040895
S11304404080847D0004087F102844000308417F15
S113045040000005087C047C047804087C040478CB
S113046000040838444438000408FC242418000418
S113047008182424FC0004087C0804040004084828
S1130480545424000308043F44000004083C404042
S11304907C0005081C2040201C05083C403C403CD6
S11304A00508442810284404089CA0A07C000308E4
S11304B064544C00000308083641000001087F0022
S11304C0000000030841360800000408080408047A
S11304D00004087C13137C0004083C43433C0004E0
S11304E0083E41413E00040820565678000408386E
S11304F04646380004083C42427C000000000800E4
S113050002010000030407000000000000000001D5
S11305100204081020408001020408102001020493
S11305200810200404040404040404020202020265
S11305300203030303030300000000250028002B2B
S11305400000000000240027002A00000605600EB9
S1130550F50F0D0511241FBECFEFD8E0DEBFCDBFD0
S113056011E0A0E0B1E0EEEDF5E202C005900D92DD
S1130570A236B107D9F723E0A2E6B1E001C01D928B
S1130580A730B207E1F712E0C9EAD2E004C021972C
S1130590FE010E944F12C63AD107C9F70E942310E8
S11305A00C94E2120C94000081E08093950108956C
S11305B040E45DE063E070E085E592E00E940E0EA9
S11305C02FEF3FEFA90164ED72E085E592E00E9410
S11305D01E0E26E040E855E260E070E081E692E01D
S11305E00E942E0F85E691E00E94490961E085E6AC
S11305F091E00E94050660E071E085E691E00E94CA
S1130600030B49E550E068E071E086E991E00E945F
S1130610A4121092EF011092F0011092950181E062
S113062080936401089568EE70E081E692E00E9490
S1130630AD106AEB70E081E692E00E94AD1063E8D1
S113064070E081E692E00E94AD1068E670E081E619
S113065092E00C94AD100F931F93CF93DF93CDB71B
S1130660DEB7C257D1090FB6F894DEBF0FBECDBFB7
S1130670FE01E55AFF4F119211921192119286E0F8
S1130680DF011D928A95E9F719821A821B821C8266
S1130690FE01359686E5DF011D928A95E9F78DE323
S11306A090E0E2969FAF8EAFE2978CE290E0E09606
S11306B09FAF8EAFE0976DE370E081EF91E00E9411
S11306C09012892B09F466C1BE0160597F4F81EFF6
S11306D091E00E948B12009759F049E050E0BC0170
S11306E0CE01855A9F4F0E94A412A5961FAEA597CE
S11306F0BE0160597F4F80E090E00E948B1200970A
S113070051F049E550E0BC01CE0101960E94A412CB
S11307106B961FAE6B9769E171E0CE01855A9F4FCE
S11307200E949B12892BE9F480916401823019F0B4
S113073082E08093640149E550E0BE016F5F7F4F22
S113074086E991E00E94A4121092EF0185E691E0FF
S11307500E94310966E971E085E691E00E948D0509
S113076022C163E271E0CE01855A9F4F0E949B1221
S1130770892BE9F480916401813019F081E0809340
S1130780640149E550E0BE016F5F7F4F86E991E067
S11307900E94A4121092EF0185E691E00E943109B3
S11307A066E971E085E691E00E94030BFCC068E213
S11307B071E0CE01855A9F4F0E949B12892BD1F480
S11307C0CE0101960E9464129C012150310920310E
S11307D0310538F46FEF680F85E691E00E948305D8
S11307E0E2C065E272E081E692E00E94AD1065ED40
S11307F071E04AC062E371E0CE01855A9F4F0E94C6
S11308009B12892B11F5CE0101960E9464129C0162
S1130810215031092431310578F4A5E1B0E0A81B59
S1130820B90B20E533EC0E944812AB01BC0185E50D
S113083092E00E94A60DB7C062EC71E081E692E0FE
S11308400E94AD106EE771E01FC068E371E0CE0155
S1130850855A9F4F0E949B12892BD9F4CE01019691
S11308600E9464128F3F910509F030F4682F85E6E9
S113087091E00E94AB0597C06BE671E081E692E0DF
S11308800E94AD106FEF70E081E692E00E94AD101F
S11308908AC06AE471E0CE01855A9F4F0E949B1280
S11308A0892B09F077C080916401813039F081E0AF
S11308B08093640185E691E00E943109AE961DAEF5
S11308C01EAE1FAEAE97AB961DAE1EAE1FAEAB975F
S11308D0A8961DAE1EAE1FAEA897BE0162597F4FEB
S11308E0CE0101960E948B12009759F042E050E02D
S11308F0BC01CE0185599F4F0E94A412AE961FAE33
S1130900AE97BE0162597F4F80E090E00E948B1247
S1130910009759F042E050E0BC01CE0188599F4F46
S11309200E94A412AB961FAEAB97BE0162597F4FD3
S113093080E090E00E948B12009759F042E050E072
S1130940BC01CE018B599F4F0E94A412A8961FAEE2
S1130950A897CE018B599F4F0E9464128C01CE013F
S113096088599F4F0E946412482FCE0185599F4F8A
S1130970E3964FAFE3970E946412682F21E0E39659
S11309804FADE397012B09F420E085E691E00E9446
S11309902A0A09C0BE01655A7F4F81E692E00E948F
S11309A0BF100E941303CE58DF4F0FB6F894DEBF7A
S11309B00FBECDBFDF91CF911F910F91089580910C
S11309C0F001882331F00E942B031092F101109260
S11309D0F001809195018823C1F0809164018230F7
S11309E0A1F480916801833021F485E691E00E94AE
S11309F06B0D80916801823031F466E971E085E61F
S1130A0091E00E948D051092950108952BE04AE033
S1130A106CE085E691E00C94390585E691E00C9450
S1130A2056051F93CF93DF93C1EFD1E011E081E628
S1130A3092E00E94670E892BC1F081E692E00E9449
S1130A40810E8A3019F41093F001F1CFFE01019068
S1130A500020E9F73197E15FF140E336F1053CF717
S1130A60EF50FE4F80831182E2CFDF91CF911F912F
S1130A700895CF93DF93FC0160834183228317A6FB
S1130A8016A614A681E085A714821382EF01259689
S1130A90DF0195961992CA17DB07E1F7BC961D9200
S1130AA0AE17BF07E1F7DF91CF9108950895EF9254
S1130AB0FF920F931F93CF93DF93EC01E62EF42E56
S1130AC060E089810E94BB1104E010E02E2D41E01A
S1130AD06A8188810E94EB112F2D41E06A8188810F
S1130AE00E94EB110150110989F760E089810E948D
S1130AF0BB1161E08981DF91CF911F910F91FF902C
S1130B00EF900C94BB11603130F4462F6AE00E94E0
S1130B10570580E0089581E00895FC016115710591
S1130B2039F014A677A766A783E0838380E008954D
S1130B3081E00895653668F4CA0127E0629FB00138
S1130B401124685C7D4F47E050E00E94821280E0EF
S1130B50089581E00895662321F0FC0165A780E0F3
S1130B60089581E008956295962F937384E0989F89
S1130B70900111246C7C66956695262B822F8575D1
S1130B80880F2A7A2695822B0895DF92EF92FF929E
S1130B900F931F93CF93DF93EC0100E010E060E02C
S1130BA089810E94BB11E12CF12CDD24D394D00E59
S1130BB02D2D41E06A8188810E94EB11F701E00F3D
S1130BC0F11FEC0FFD1F258141E06A8188810E949D
S1130BD0EB1188E0E80EF11C80E2E816F10441F71D
S1130BE060E089810E94BB1161E089810E94BB1190
S1130BF00F5F1F4F0830110591F6DF91CF911F91C0
S1130C000F91FF90EF90DF9008953F924F925F9283
S1130C106F927F928F929F92AF92BF92CF92DF9208
S1130C20EF92FF920F931F93CF93DF93CDB7DEB76D
S1130C30A8970FB6F894DEBF0FBECDBFFC01948118
S1130C40691709F490C1911104C06130A9F080E0E2
S1130C507EC0913021F4623079F080E07FC0923020
S1130C6021F4633049F080E07FC0933009F073C011
S1130C70662311F080E086C020E030E0412C512C46
S1130C8032014394490147E0840E911C47E050E04F
S1130C9087E0382E320EAA24A394B12C042E02C06D
S1130CA0AA0CBB1C0A94E2F7BEA2ADA2840187E0A1
S1130CB0732D741BEE24E394F12CEC0EFD1EE70E51
S1130CC0F11C02171307B4F1DF01A00FB11F159631
S1130CD0AC91B0E0CDA0DEA0AC21BD21AB2B91F056
S1130CE0D7017C9163015201082E04C0AA0CBB1CDD
S1130CF0CC1CDD1C0A94D2F7A9A2BAA2CBA2DCA216
S1130D007A2913C063015201082E04C0AA0CBB1C2B
S1130D10CC1CDD1C0A94D2F7A9A2BAA2CBA2DCA2F5
S1130D20DA2CD094D7017C917D217C9381500150A1
S1130D301109C7CF4150510908F0ADCF285F3F4F8B
S1130D402032310509F09ECF80E2911105C0623056
S1130D5009F068C00BC080E0913021F4633009F0E1
S1130D6067C004C0923059F4611167C027E030E0D5
S1130D7017E0312E412C512C320143940DC0933095
S1130D8009F04EC0613009F065C0F0CF285F3F4FD5
S1130D902732310509F444C08901690157E0C51AB5
S1130DA0D1080C151D0594F3DF01A00FB11F159692
S1130DB0EC90F12C40E050E0A1E0B0E0AC0FBD1F9E
S1130DC0A80FB11D732D741B5701042E02C0B594D6
S1130DD0A7940A94E2F7A0FE0CC05301420104C098
S1130DE0880C991CAA1CBB1C7A95D2F77C91782993
S1130DF00DC05301420104C0880C991CAA1CBB1CE1
S1130E007A95D2F7782D7095BC907B217C934F5FB7
S1130E105F4F48305105B1F68F5F01501109C1CFC2
S1130E20911104C0633009F072C00AC0913019F402
S1130E30662331F06CC0923051F4613009F067C020
S1130E4020E030E0412C512C320143942DC09330EA
S1130E5009F05DC0623009F05AC0F2CFA1E0B0E001
S1130E600FA002C0AA0FBB1F0A94E2F7BEA3ADA352
S1130E70492D582D9FA1970FEE24E394F12CEC0EED
S1130E80FD1EE90EF11C932D941B42175307C4F069
S1130E904FA158A54F5F5F4F58A74FA34830510546
S1130EA0E9F62032310599F1782F720F922E832EB4
S1130EB018A61FA247E0342E320E285F3F4FCECF34
S1130EC08F01040F151FD80115960C9110E0ADA0E9
S1130ED0BEA00A211B216301520104C0AA0CBB1C41
S1130EE0CC1CDD1C9A95D2F7A9A2BAA2CBA2DCA293
S1130EF0012B21F0D7019C919A2905C01A2D109538
S1130F00D7019C9191239C934F5F5F4FBCCF648327
S1130F10BE016F5F7F4FCF0105969E012F5D3F4F4E
S1130F20DB014D91BD01DC014D93CD0162177307C7
S1130F30B9F7CF01A8960FB6F894DEBF0FBECDBFA8
S1130F40DF91CF911F910F91FF90EF90DF90CF90A1
S1130F50BF90AF909F908F907F906F905F904F90D5
S1130F603F900C94C505A8960FB6F894DEBF0FBE4B
S1130F70CDBFDF91CF911F910F91FF90EF90DF9044
S1130F80CF90BF90AF909F908F907F906F905F9025
S1130F904F903F900895FA01643C11F48FE513C01B
S1130FA0663D11F480E60FC06C3D11F481E60BC080
S1130FB0643E11F482E607C0663F11F483E603C081
S1130FC06C3F19F484E6808304C060526F3518F4D2
S1130FD0608380E0089581E00895BF92CF92DF920C
S1130FE0EF92FF920F931F93CF93DF93E901643045
S1130FF0D8F54830C8F5A1E0B0E002C0AA0FBB1F85
S11310004A95E2F728E0629F800D911D1124FC01AE
S1131010359687E090E001E010E020E030E0619157
S113102070E06A237B23B880672B69F0680179013B
S1131030082E04C0CC0CDD1CEE1CFF1C0A94D2F755
S1131040CB28C8820DC0B901A801082E04C0440FE2
S1131050551F661F771F0A94D2F740954B2148838A
S11310600197E8F680E001C081E0DF91CF911F9104
S11310700F91FF90EF90DF90CF90BF900895CF92A3
S1131080DF92FF920F931F93CF93DF931F92CDB7FD
S1131090DEB7FC01848181110AC0603218F0FF249C
S11310A0F39439C0E60FF11D8581FA011DC06A0170
S11310B0962F8F01669566956695492F4770813006
S11310C031F49601CF010E94ED07F82E24C082303E
S11310D071F48FE1891B803210F7E80FF11D6581EF
S11310E0C8010E94B305F6018083F12C14C083303B
S11310F0B1F687E0841B482F9E012F5F3F4FCF013D
S11311000E94ED07F82E8111CACF6981C8010E949F
S1131110B305F60180838F2D0F90DF91CF911F913E
S11311200F91FF90DF90CF900895BF92CF92DF92FE
S1131130EF92FF920F931F93CF93DF936032E8F502
S1131140042F162FEC01C62EC694C694C694D12C37
S1131150862F8770B82E60E089810E94BB11E12C34
S1131160F12CB394EC14FD0441F42B2D41E06A817D
S113117088810E94EB11202F07C020E041E06A81A2
S113118088810E94EB1120E041E06A8188810E94FD
S1131190EB118FEFE81AF80A84E0E816F10411F76E
S11311A060E089810E94BB1161E089810E94BB11CA
S11311B0C10FD11D0D8380E001C081E0DF91CF918B
S11311C01F910F91FF90EF90DF90CF90BF90089503
S11311D0AF92BF92CF92DF92EF92FF920F931F9341
S11311E0CF93DF93683088F5042F162FEC0160E06D
S11311F089810E94BB11A12EB12C6E0185E0C80E1D
S1131200D11C84E0E82EF12C1F5F212F41E06A817C
S113121088810E94EB11202F41E06A8188810E941D
S1131220EB11F6010083F1E0EF1AF108CA0CDB1CA4
S1131230E114F10451F760E089810E94BB1161E07F
S113124089810E94BB1180E001C081E0DF91CF91D0
S11312501F910F91FF90EF90DF90CF90BF90AF90D0
S113126008951F93CF93DF93EC0110E040E0612FCA
S1131270CE010E94E8081F5F1830C1F7FE013596C1
S1131280A5961192EC17FD07E1F7DF91CF911F911D
S11312900895CF93DF93EC0181E08B8361E0888133
S11312A00E947F1161E08A810E947F1161E089813F
S11312B00E947F1161E08A810E94BB1147E06BE0CC
S11312C0CE010E94570540E069E0CE010E94570517
S11312D041E06CE0CE010E94570540E06FE0CE0192
S11312E00E945705CE010E94310965E0CE010E949B
S11312F0830582E08B83DF91CF910895AF92BF92F3
S1131300CF92DF92EF92FF920F931F93CF93DF93CD
S1131310643008F042C0483008F03FC0C62F8C014A
S1131320F62EFF0CFF0CFF0CD0E0219683E0CC0FCF
S1131330DD1F8A95E1F781E090E0A0E0B0E004C011
S1131340880F991FAA1FBB1F4A95D2F7A82EE82E13
S1131350E09497E0B92EC22ED12CEF2DF0E0EC17DB
S1131360FD07CCF4E00FF11FC6010B2C02C09595CC
S113137087950A94E2F780FF03C085818A2902C019
S113138085818E21858345816F2DC8010E94950832
S1131390BA94F394E2CF80E001C081E0DF91CF9171
S11313A01F910F91FF90EF90DF90CF90BF90AF907F
S11313B00895EF92FF920F931F93CF93DF931F92A1
S11313C0CDB7DEB7FC01242F062F069506950695AA
S11313D0462F47709481911103C0422FCF0111C051
S11313E0913019F4602FCF0123C0162F7F01923062
S11313F089F4622FCF010E94B3056FE1611B482F6E
S1131400C7010F90DF91CF911F910F91FF90EF9043
S11314100C9495089330A9F4622FCF0149830E945C
S1131420B30597E04981941B492F282F602FC701EA
S11314300F90DF91CF911F910F91FF90EF900C943B
S11314407E0981E00F90DF91CF911F910F91FF9062
S1131450EF900895DF92EF92FF920F931F93CF9333
S1131460DF931F92CDB7DEB7603280F5483070F558
S1131470D22EE42EF62E8C01AE014F5F5F4F0E94F8
S11314803F082981DD2071F081E090E0A0E0B0E028
S113149004C0880F991FAA1FBB1FEA94D2F7822B9E
S11314A089830EC041E050E060E070E004C0440F66
S11314B0551F661F771FEA94D2F74095422349834C
S11314C049816F2DC8010E94D90901C081E00F90A4
S11314D0DF91CF911F910F91FF90EF90DF900895CE
S11314E02F923F924F925F926F927F928F929F9230
S11314F0AF92BF92CF92DF92EF92FF920F931F931E
S1131500CF93DF9300D000D01F92CDB7DEB74C014C
S11315106B013A015901F9014080512CE180F12C11
S1131520F8E0EF16F104C9F4452BB9F400E010E03B
S1131530041515050CF04FC0C8018C0D9D1D809736
S113154048F4F501E00FF11F4281602F6C0DC401D6
S11315500E94D9090F5F1F4FEBCF1D821C828C8123
S11315609D8184159505BCF500E010E02C803D803C
S11315702C0C3D1C8C819D818A0D9B1D9A83898333
S11315803C813C0D0E151F0504F580E2281631043C
S1131590C8F4C801860D971D0897A0F4E981FA8163
S11315A0828190E0002E02C0959587950A94E2F717
S11315B0282F2170402F460D632FC4013B830E94C6
S11315C02A0A3B810F5F1F4FDDCFEC81FD813196ED
S11315D0FD83EC83C4CF0F900F900F900F900F906A
S11315E0DF91CF911F910F91FF90EF90DF90CF90FB
S11315F0BF90AF909F908F907F906F905F904F902F
S11316003F902F900895CF92DF92EF92FF920F9325
S11316101F93CF93DF93CDB7DEB728970FB6F89417
S1131620DEBF0FBECDBF6115710511F481E030C07E
S11316307C018B01C12CD12CF80161918F016623AF
S113164031F1AE01485F5F4FC7010E94CB07813083
S113165069F3AE014F5F5F4F6885C7010E949A0529
S1131660813021F39E012F5F3F4F40E050E0B601EF
S1131670C7010E94700A8981F70125A530E0280F6F
S1131680311DC20ED31EF1E2CF16D104ACF280E0BC
S113169028960FB6F894DEBF0FBECDBFDF91CF9171
S11316A01F910F91FF90EF90DF90CF900895EF92EC
S11316B0FF920F931F93CF93DF932223B9F0EC0192
S11316C02D81FC013696DC0195963191EF0122972C
S11316D03883EA17FB07C9F7662319F0FC0124A332
S11316E026C0442321F1EC011CA221C0FC013C963C
S11316F07C01DCE2ED0EF11CDF0117975C91119681
S113170020E030E07D918D0102501109E8017883D9
S11317102F5F3F4F27303105A9F7662311F050831F
S113172002C0411110823896EE15FF0529F7DF91AA
S1131730CF911F910F91FF90EF900C94C505CF921C
S1131740DF92EF92FF920F931F93CF93DF93DC010D
S113175095966D01FC012223A9F024A1FD015F9758
S1131760EF01229738813293EA17FB07C9F7662302
S113177021F0DC0115962C9322C0442301F1FC01D5
S113178015821DC035968F0157813896EF0127E0E9
S113179030E07E0172E0E71AF108D7017C917A9378
S11317A021503109B1F7662319F0D8015C9304C0C4
S11317B0442311F0D8011C92EC15FD0521F7DF91AB
S11317C0CF911F910F91FF90EF90DF90CF900C94E9
S11317D0C505BF92CF92DF92EF92FF920F931F93B2
S11317E0CF93DF9300D0CDB7DEB77C01C62E1A822B
S11317F01982FC0135964423E1F18F01D12CD110DB
S11318000AC0CC2041F09E012F5F3F4F40E060E0D2
S1131810C7010E94ED07BB24B394BD0C9E012E5F4B
S11318203F4F40E06B2DC7010E94ED07F80120E017
S113183030E0808190E09595879581932F5F3F4FAD
S113184028303105B1F783E0D81206C0CC2051F01E
S1131850298147E063E003C02A8147E06D2DC70179
S11318600E947E09085F1F4F84E0B81689F0DB2CC4
S1131870C6CFAC014B5D5F4F2081822F90E09595E0
S11318808795C11014C080833196E417F507A1F73A
S1131890C7010E94C5050F900F90DF91CF911F9152
S11318A00F91FF90EF90DF90CF90BF90089520FFAD
S11318B0EACF8068E8CFBF92CF92DF92EF92FF9297
S11318C00F931F93CF93DF9300D0CDB7DEB77C0186
S11318D0C62E1A821982FC0135964423C9F18F0160
S11318E0D12CD1100AC0CC2041F09E012F5F3F4F74
S11318F047E060E0C7010E94ED07BB24B394BD0C30
S11319009E012E5F3F4F47E06B2DC7010E94ED07FC
S1131910F80180E090E02081220F21930196883025
S11319209105C9F783E0D81206C0CC2051F0298173
S113193040E063E003C02A8140E06D2DC7010E94AE
S11319407E09085F1F4F84E0B81679F0DB2CC9CFFD
S11319509C012B5D3F4F9081892F880FC11014C0CB
S113196080833196E217F307B1F7C7010E94C505DA
S11319700F900F90DF91CF911F910F91FF90EF90F7
S1131980DF90CF90BF90089597FFEACF8160E8CFB2
S11319900F931F93CF93DF93EC01162F042F8C81A9
S11319A0811104C021E0CE010E94570B8C8181304B
S11319B029F441E0612FCE010E94E90B8C81823031
S11319C031F421E0402F612FCE010E949F0B8C81C6
S11319D0833049F441E0612FCE01DF91CF911F9113
S11319E00F910C945B0CDF91CF911F910F9108958F
S11319F0CF93DF93EC0141E060E00E94C80C8CA51A
S1131A008F5F8CA72DA1482F50E0281770F09E01FE
S1131A102B5D3F4F60E270E0641B750B40E050E0CB
S1131A20CE01DF91CF910C94700A8DA590E0820FC6
S1131A30911D01964817590731F48B81843011F4B4
S1131A4082E08B831CA6DF91CF9108950F931F939F
S1131A50CF93DF931F92CDB7DEB78C01DC019C9648
S1131A608C919C9781112EC09E96ED91FC919F972D
S1131A7060816623F1F0AE014F5F5F4FC8010E94A1
S1131A80CB07A8014B5D5F4F6981C8010E949A058D
S1131A9081E0F80184A7C8010E94F80CD8019E9641
S1131AA08D919C919F9701969F969C938E939E9760
S1131AB00CC082E0F801838341E060E0C8010E9429
S1131AC0C80C03C0C8010E94F80C0F90DF91CF919D
S1131AD01F910F910895CF93DF93EC018B81833095
S1131AE019F4CE010E94260D8B81843029F4CE0195
S1131AF0DF91CF910C94F80CDF91CF9108951F9250
S1131B000F920FB60F9211242F933F934F935F932D
S1131B106F937F938F939F93AF93BF93EF93FF93B1
S1131B20E0915902F0915A020995FF91EF91BF910A
S1131B30AF919F918F917F916F915F914F913F9161
S1131B402F910F900FBE0F901F901895FC01A3E0EA
S1131B50440F551F661F771FAA95D1F741155105EC
S1131B6081E06807710514F481E00EC033E07595D7
S1131B706795579547953A95D1F74115510581E0F9
S1131B80680771051CF482E0828331C023E07595F7
S1131B906795579547952A95D1F74115510581E0E9
S1131BA06807710514F483E0EFCF92E075956795AB
S1131BB0579547959A95D1F74115510581E06807E6
S1131BC0710514F484E0E0CF82E07595679557952C
S1131BD047958A95D1F785E082834115510581E0C7
S1131BE06807710524F04FEF5FEF60E070E08FB796
S1131BF08383F894518340835093870040938600F5
S1131C0083818FBF80918100887F80938100909130
S1131C1081008281892B8093810008951092800035
S1131C2020E1209381000C94A60DE1E8F0E02081EE
S1131C30DC0112968C91822B808308950F931F935D
S1131C40CF93DF93EC018B01BA01A9011416150699
S1131C501606170614F40E94A60D1D830C8381E05A
S1131C6080936F00CE01DF91CF911F910F910C945F
S1131C70150E1F920F920FB60F9211242F933F93BC
S1131C804F935F936F937F938F939F93AF93BF9380
S1131C90EF93FF93E0915F02F09160020995FF9149
S1131CA0EF91BF91AF919F918F917F916F915F91D0
S1131CB04F913F912F910F900FBE0F901F90189549
S1131CC0EBE5F2E010821582148211820895FC0182
S1131CD0918D228D892F90E0805C9F4F821B91090A
S1131CE08F7399270895FC01918D828D981731F097
S1131CF0828DE80FF11D858D90E008958FEF9FEFA1
S1131D000895FC01918D828D981761F0828DDF0119
S1131D10A80FB11D5D968C91928D9F5F9F73928FDA
S1131D2090E008958FEF9FEF08958BEE9FE0892B4D
S1131D3049F081E195E0892B29F00E94EB0F811194
S1131D400C9411050895FC01848DDF01A80FB11DC9
S1131D50A35ABF4F2C91848D90E001968F739927DD
S1131D60848FA689B7892C93A089B1898C918064CA
S1131D708C93938D848D981306C00288F389E02D8B
S1131D8080818F7D80830895CF93DF93EC01888DCC
S1131D908823C9F0EA89FB89808185FD05C0A8896B
S1131DA0B9898C9186FD0FC00FB607FCF5CF8081F1
S1131DB085FFF2CFA889B9898C9185FFEDCFCE013B
S1131DC00E94A30EE7CFDF91CF910895EF92FF9287
S1131DD00F931F93CF93DF93EC019B8D8C8D9813FE
S1131DE005C0E889F989808185FD27C0F62E0B8D11
S1131DF010E00F5F1F4F0F731127E02E8C8DE81238
S1131E000CC00FB607FCFACFE889F989808185FFF9
S1131E10F5CFCE010E94A30EF1CF8B8DFE01E80F0A
S1131E20F11DE35AFF4FF0820B8FEA89FB89808111
S1131E308062808381E0888F08C0EE89FF89608397
S1131E40E889F98980818064808381E090E0DF9172
S1131E50CF911F910F91FF90EF900895CF92DF9251
S1131E60EF92FF921F93CF93DF93EC016A017B0102
S1131E70122FE889F98982E080834115514E61056A
S1131E807105B1F060E079E08DE390E0A70196017F
S1131E900E942612DA01C9010197A109B109B69578
S1131EA0A79597958795AC01411580E15807A8F04F
S1131EB0E889F989108260E874E88EE190E0A7016E
S1131EC096010E942612BA01A901415051096109E3
S1131ED071097695679557954795EC85FD855083EF
S1131EE0EE85FF854083188EEC89FD891083EA898D
S1131EF0FB89808180618083EA89FB898081886095
S1131F008083EA89FB89808180688083EA89FB89F0
S1131F1080818F7D8083DF91CF911F91FF90EF901F
S1131F20DF90CF9008951F920F920FB60F92112455
S1131F302F938F939F93EF93FF93E0917102F0910E
S1131F4072028081E0917702F091780282FD12C0E2
S1131F50908180917A028F5F8F7320917B02821728
S1131F6051F0E0917A02F0E0EF59FD4F958F8093A4
S1131F707A0201C08081FF91EF919F918F912F91FF
S1131F800F900FBE0F901F9018951F920F920FB6CF
S1131F900F9211242F933F934F935F936F937F93EB
S1131FA08F939F93AF93BF93EF93FF9381E692E058
S1131FB00E94A30EFF91EF91BF91AF919F918F91DA
S1131FC07F916F915F914F913F912F910F900FBE31
S1131FD00F901F90189581E692E00E94670E21E011
S1131FE0892B09F420E0822F0895E1E6F2E01382C0
S1131FF0128288EE93E0A0E0B0E084839583A68308
S1132000B78385E591E09183808385EC90E09587A3
S1132010848784EC90E09787868780EC90E0918BAE
S1132020808B81EC90E0938B828B82EC90E0958B9B
S1132030848B86EC90E0978B868B118E128E138E98
S1132040148E089508950E941B110E9422100E946C
S1132050D802C5E9DEE00E94DF042097E1F30E9484
S1132060950EF9CFCF92DF92EF92FF920F931F93C9
S1132070CF93DF936C01EB017B01E40EF51E00E0CE
S113208010E0CE15DF0561F06991D601ED91FC9168
S11320900190F081E02DC6010995080F191FF1CFB9
S11320A0C801DF91CF911F910F91FF90EF90DF90C6
S11320B0CF9008956115710579F0FB01019000201E
S11320C0E9F73197AF01461B570BDC01ED91FC9109
S11320D00280F381E02D099480E090E00895EF926E
S11320E0FF920F931F93CF93DF937C01FB0100E0DA
S11320F010E06491EF012196662361F0D701ED9120
S1132100FC910190F081E02DC7010995080F191F7A
S1132110FE01EFCFC801DF91CF911F910F91FF9086
S1132120EF900895DC01ED91FC910190F081E02D98
S113213009940F931F93CF93DF93EC016DE00E94FA
S113214092108C016AE0CE010E949210800F911FC0
S1132150DF91CF911F910F9108950F931F93CF9308
S1132160DF93EC010E946F108C01CE010E94991044
S1132170800F911FDF91CF911F910F9108950F93BD
S11321801F93CF93DF93EC010E945A108C01CE0170
S11321900E949910800F911FDF91CF911F910F9191
S11321A008951F920F920FB60F9211242F933F930D
S11321B08F939F93AF93BF938091FF0290910003FD
S11321C0A0910103B09102033091FE0223E0230F9A
S11321D02D3720F40196A11DB11D05C026E8230F5B
S11321E00296A11DB11D2093FE028093FF029093DD
S11321F00003A0930103B093020380910303909121
S11322000403A0910503B09106030196A11DB11D1D
S11322108093030390930403A0930503B0930603F0
S1132220BF91AF919F918F913F912F910F900FBECE
S11322300F901F901895789484B5826084BD84B5FE
S1132240816084BD85B5826085BD85B5816085BDAD
S1132250EEE6F0E0808181608083E1E8F0E01082C6
S1132260808182608083808181608083E0E8F0E007
S1132270808181608083E1EBF0E0808184608083F1
S1132280E0EBF0E0808181608083EAE7F0E0808128
S11322908460808380818260808380818160808388
S11322A08081806880831092C1000895833081F01A
S11322B028F4813099F08230A1F008958730A9F094
S11322C08830B9F08430D1F4809180008F7D03C0D0
S11322D0809180008F7780938000089584B58F77F4
S11322E002C084B58F7D84BD08958091B0008F773E
S11322F003C08091B0008F7D8093B0000895CF9388
S1132300DF9390E0FC01E15FFA4F2491FC01ED5D65
S1132310FA4F8491882361F190E0880F991FFC01A2
S1132320EF5BFA4FC591D491FC01E95CFA4FA5919A
S1132330B491611109C09FB7F894888120958223D4
S11323408883EC912E230BC0623061F49FB7F8941C
S11323503881822F809583238883EC912E2B2C93B4
S11323609FBF06C08FB7F894E8812E2B28838FBFB8
S1132370DF91CF9108951F93CF93DF93282F30E0FF
S1132380F901E550FB4F8491F901E15FFA4FD491D3
S1132390F901ED5DFA4FC491CC23C9F0162F8111D8
S11323A00E945611EC2FF0E0EE0FFF1FE95CFA4F8C
S11323B0A591B4918FB7F894111105C09C91ED2F9C
S11323C0E095E92302C0EC91ED2BEC938FBFDF91F4
S11323D0CF911F910895BF92CF92DF92EF92FF9217
S11323E00F931F93CF93DF93C82ED62EB42EC7E03E
S11323F0D0E0022F10E087E0E82EF12CB11005C0E8
S1132400C7018C1B9D0B980102C098018C2F02C040
S1132410359527958A95E2F7B901617077278C2D58
S11324200E94BB1161E08D2D0E94BB1160E08D2DD7
S11324300E94BB11219710F7DF91CF911F910F914B
S1132440FF90EF90DF90CF90BF900895A1E21A2EF5
S1132450AA1BBB1BFD010DC0AA1FBB1FEE1FFF1F44
S1132460A217B307E407F50720F0A21BB30BE40B94
S1132470F50B661F771F881F991F1A9469F76095DB
S11324807095809590959B01AC01BD01CF01089595
S11324900E945512B7FF0895821B930B0895EE0F07
S11324A0FF1F0590F491E02D0994A29FB001B39F02
S11324B0C001A39F700D811D1124911DB29F700D49
S11324C0811D1124911D0895FC0188279927E89402
S11324D021912032E9F3293010F02E30C8F32B3249
S11324E041F02D3239F4689404C00E94DA12820F4C
S11324F0911D219120532A30C0F31EF490958195AB
S11325009F4F0895FB01DC0102C005900D924150DC
S11325105040D8F7089542E651E00E94B31208955E
S1132520FC018191861721F08823D9F79927089512
S11325303197CF010895FB01DC018D910190801941
S11325400110D9F3990B0895FB01DC01415050406F
S113255048F001900D920020C9F701C01D9241502E
S11325605040E0F70895FA01A191B081009719F461
S11325701097E1F0CD01DC01CD010D90002011F4A4
S1132580C00113C0FB012191222319F02015D9F7B2
S1132590F3CFFB012191201519F41E92119606C068
S11325A02223C1F70D900020A1F7D001FA01A193D5
S11325B0B08308957AE0979F902D879F802D910D89
S11325C01124089512E0C9EAD2E004C0FE010E9479
S11125D04F122196CA3AD107C9F7F894FFCFEB
S11325DE416E647265617300416E6472656173204D
S11325EE4275726E69636B6C0074657874536869B6
S11325FE6674007465787400696E74656E736974BC
S113260E7900737065656400737061636542657407
S113261E7765656E436861727300736574446F7495
S113262E0000000000E60E3210670E810E730EC419
S105263E0E0088
S9030000FC
