S01300004C65645F416E7A656967652E73726563DA
S11300000C94C0010C94E8010C94E8010C94E801F0
S11300100C94E8010C94E8010C94E8010C94E801B8
S11300200C94E8010C94E8010C94E8010C94E801A8
S11300300C94E8010C94AE040C94E8010C94E801CF
S11300400C94E5040C94E8010C94E8010C94E80188
S11300500C94E8010C94E8010C94E8010C94E80178
S11300600C94E8010C94E80103080000000000016E
S1130070085F0000000003080300030000050814E3
S11300803E143E140408246A2B1200050863130866
S11300906463050836495620500108030000000037
S11300A003081C22410000030841221C000005082B
S11300B028180E1828050808083E08080208B07019
S11300C00000000408080808080002086060000036
S11300D0000408601806010004083E41413E000384
S11300E008427F4000000408625149460004082287
S11300F04149360004081814127F000408274545B6
S1130100390004083E494930000408611109070018
S11301100408364949360004080649493E000208E5
S1130120500000000002088050000000030810285E
S113013044000003081414140000030844281000A9
S1130140000408025909060005083E49555D0E04DD
S1130150087E11117E0004087F4949360004083ED8
S11301604141220004087F41413E0004087F49497F
S1130170410004087F0909010004083E41497A004E
S113018004087F08087F000308417F410000040839
S11301903040413F0004087F0814630004087F4096
S11301A040400005087F020C027F05087F04081008
S11301B07F04083E41413E0004087F09090600040B
S11301C0083E4141BE0004087F0909760004084640
S11301D049493200050801017F010104083F4040FC
S11301E03F0005080F3040300F05083F4038403FBE
S11301F00508631408146305080708700807040851
S1130200615149470002087F4100000004080106CB
S11302101860000208417F00000003080201020088
S113022000040840404040000208010200000004AD
S113023008205454780004087F44443800040838E3
S11302404444280004083844447F000408385454C3
S113025018000308047E050000040898A4A478008C
S113026004087F040478000308447D400000040867
S11302704080847D0004087F102844000308417FE7
S113028040000005087C047C047804087C0404789D
S113029000040838444438000408FC2424180004EA
S11302A008182424FC0004087C08040400040848FA
S11302B0545424000308043F44000004083C404014
S11302C07C0005081C2040201C05083C403C403CA8
S11302D00508442810284404089CA0A07C000308B6
S11302E064544C00000308083641000001087F00F4
S11302F0000000030841360800000408080408044C
S11303000004087C13137C0004083C43433C0004B1
S1130310083E41413E00040820565678000408383F
S11303204646380004083C42427C000000000800B5
S113033002010000030407000000000000000001A7
S11303400204081020408001020408102001020465
S11303500810200404040404040404020202020237
S11303600203030303030300000000250028002BFD
S11303700000000000240027002A0000FF010902F9
S113038011241FBECFEFD8E0DEBFCDBF11E0A0E047
S1130390B1E0E8E4FDE002C005900D92A831B10798
S11303A0D9F721E0A8E1B1E001C01D92A233B20760
S11303B0E1F711E0CFEBD1E004C02197FE010E94E8
S11303C08806CE3BD107C9F70E94D6040C94970641
S11303D00C94000088E191E00E94C30265E088E18A
S11303E091E00C94490288E191E00E94AB0244EF51
S11303F051E066E071E088E191E00C949104209171
S11304000001409102016091040188E191E00C94A3
S11304100D0288E191E00C941902FC016083418390
S11304202283DC0113963B961D92AE17BF07E1F7BA
S113043008950895EF92FF921F93CF93DF931F9235
S1130440CDB7DEB77C01262F142F60E0FC0181813B
S113045029830E941C06298141E0F7016281808181
S11304600E944C06212F41E0F701628180810E94A5
S11304704C0660E0F70181810E941C0661E0F701EF
S113048081810F90DF91CF911F91FF90EF900C9499
S11304901C06603130F4462F6AE00E941A0280E0A4
S11304A0089581E008950F931F93CF93DF936830ED
S11304B008F5042F162FEC0160E089810E941C06C8
S11304C021E0210F41E06A8188810E944C06202F9F
S11304D041E06A8188810E944C0660E089810E9423
S11304E01C0661E089810E941C06C10FD11D0B838B
S11304F080E001C081E0DF91CF911F910F910895B9
S11305000F931F93CF93DF936930F8F4042F162FC2
S1130510EC0160E089810E941C0621E0210F41E08A
S11305206A8188810E944C06202F41E06A8188817B
S11305300E944C060B8360E089810E941C0661E0E6
S113054089810E941C0680E001C081E0DF91CF9187
S11305501F910F9108951F93CF93DF93EC0110E047
S113056040E0612FCE010E9480021F5F1830C1F766
S1130570FE0133962B961192EC17FD07E1F7DF91FC
S1130580CF911F910895CF93DF93EC0161E08881AF
S11305900E94E00561E08A810E94E00561E08981B2
S11305A00E94E00561E08A810E941C0647E06BE03E
S11305B0CE010E941A0240E069E0CE010E941A02B4
S11305C041E06CE0CE010E941A0240E06FE0CE01EF
S11305D00E941A02CE010E94AB0264E0CE01DF91B8
S11305E0CF910C944902CF93362FC42F683038F53D
S11305F0483028F5E62FF0E0DC01AE0FBF1F41E0E4
S113060050E060E070E004C0440F551F661F771F80
S1130610CA95D2F7222329F013962C911397422BD3
S113062005C0409513962C911397422313964C932F
S1130630E80FF91F4381632FCF910C94530281E09B
S1130640CF910895653668F4CA0127E0629FB0012E
S1130650112468597F4F47E050E00E948E0680E0E5
S1130660089581E008952F923F924F925F926F9286
S11306707F928F929F92AF92BF92CF92DF92EF922E
S1130680FF920F931F93CF93DF9300D000D01F925C
S1130690CDB7DEB74C016B013A015901F901408035
S11306A0512CE180F12CF8E0EF16F104C9F4452B4C
S11306B0B9F400E010E0041515050CF04FC0C801B2
S11306C08C0D9D1D089748F4F501E00FF11F428140
S11306D0602F6C0DC4010E9453020F5F1F4FEBCFBC
S11306E01D821C828C819D8184159505BCF500E0DA
S11306F010E02C803D802C0C3D1C8C819D818A0D4A
S11307009B1D9A8389833C813C0D0E151F0504F5BE
S113071088E028163104C8F4C801860D971D08978F
S1130720A0F4E981FA81828190E0002E02C09595BF
S113073087950A94E2F7282F2170402F460D632FE6
S1130740C4013B830E94F3023B810F5F1F4FDDCF47
S1130750EC81FD813196FD83EC83C4CF0F900F9023
S11307600F900F900F90DF91CF911F910F91FF90F9
S1130770EF90DF90CF90BF90AF909F908F907F903D
S11307806F905F904F903F902F900895EF92FF925B
S11307901F93CF93DF93EC017C0183E0E80EF11CFF
S11307A011E060E089810E941C06212F41E06A81EA
S11307B088810E944C06F70121917F0141E06A8102
S11307C088810E944C0660E089810E941C0661E0D9
S11307D089810E941C061F5F193019F7DF91CF91A0
S11307E01F91FF90EF900895CF93DF93FC01238135
S11307F03496DC011C963191EF0122973883EA1775
S1130800FB07C9F7662319F0FC01228704C04423BF
S113081011F0FC011286DF91CF910C94C603FA010A
S1130820643C11F48FE513C0663D11F480E60FC0FB
S11308306C3D11F481E60BC0643E11F482E607C0FE
S1130840663F11F483E603C06C3F19F484E68083A9
S113085004C060526F3518F4608380E0089581E02D
S113086008958F929F92AF92BF92CF92DF92EF92B0
S1130870FF920F931F93CF93DF93CDB7DEB72897E3
S11308800FB6F894DEBF0FBECDBF7C014A01AE01A6
S1130890485F5F4F0E940F0481112FC0AE014F5F6C
S11308A05F4F6885C7010E942203811126C001E0C1
S11308B010E0092C000CAA08BB0888E0C82ED12C33
S11308C0898190E080179107BCF0C501B4010E94B2
S11308D0540540E060E0C7010E94F403B601601BC8
S11308E0710B9E012F5F3F4F40E050E0C7010E9413
S11308F033030F5F1F4FE4CF01C081E028960FB68A
S1130900F894DEBF0FBECDBFDF91CF911F910F9141
S1130910FF90EF90DF90CF90BF90AF909F908F901B
S11309200895EF92FF920F931F93CF93DF938C015F
S11309307A01EB016991662351F0A701C8010E9475
S1130940310441E060E0C8010E94F403F3CFDF9179
S1130950CF911F910F91FF90EF9008951F920F92E6
S11309600FB60F9211242F933F934F935F936F937E
S11309707F938F939F93AF93BF93EF93FF93E091F4
S11309802701F09128010995FF91EF91BF91AF9153
S11309909F918F917F916F915F914F913F912F9193
S11309A00F900FBE0F901F90189508950E947C051C
S11309B00E94D5040E94EA01C0E0D0E00E94F30145
S11309C02097E1F30E940000F9CF1F920F920FB617
S11309D00F9211242F933F938F939F93AF93BF93C1
S11309E080912A0190912B01A0912C01B0912D01AD
S11309F03091290123E0230F2D3720F40196A11D06
S1130A00B11D05C026E8230F0296A11DB11D209338
S1130A10290180932A0190932B01A0932C01B09378
S1130A202D0180912E0190912F01A0913001B09160
S1130A3031010196A11DB11D80932E0190932F01C8
S1130A40A0933001B0933101BF91AF919F918F91E9
S1130A503F912F910F900FBE0F901F9018953FB7A5
S1130A60F89480912E0190912F01A0913001B091C2
S1130A70310126B5A89B05C02F3F19F00196A11D91
S1130A80B11D3FBFBA2FA92F982F8827820F911D20
S1130A90A11DB11DBC01CD0142E0660F771F881F67
S1130AA0991F4A95D1F70895CF92DF92EF92FF9262
S1130AB0CF93DF936B017C010E942F05EB01C114DE
S1130AC0D104E104F10489F00E9487060E942F05F5
S1130AD06C1B7D0B683E734090F381E0C81AD1080B
S1130AE0E108F108C851DC4FEACFDF91CF91FF90C4
S1130AF0EF90DF90CF900895789484B5826084BDA0
S1130B0084B5816084BD85B5826085BD85B581600D
S1130B1085BDEEE6F0E0808181608083E1E8F0E06D
S1130B201082808182608083808181608083E0E89C
S1130B30F0E0808181608083E1EBF0E0808184607B
S1130B408083E0EBF0E0808181608083EAE7F0E07D
S1130B5080818460808380818260808380818160E1
S1130B6080838081806880831092C10008958330DF
S1130B7081F028F4813099F08230A1F00895873013
S1130B80A9F08830B9F08430D1F4809180008F7D51
S1130B9003C0809180008F7780938000089584B58E
S1130BA08F7702C084B58F7D84BD08958091B00095
S1130BB08F7703C08091B0008F7D8093B00008953B
S1130BC0CF93DF9390E0FC01E15CFC4F2491FC01A6
S1130BD0ED5AFC4F8491882361F190E0880F991FAE
S1130BE0FC01EF58FC4FC591D491FC01E959FC4F2D
S1130BF0A591B491611109C09FB7F894888120959B
S1130C0082238883EC912E230BC0623061F49FB75A
S1130C10F8943881822F809583238883EC912E2B3E
S1130C202C939FBF06C08FB7F894E8812E2B28839E
S1130C308FBFDF91CF9108951F93CF93DF93282F18
S1130C4030E0F901E55DFC4F8491F901E15CFC4F72
S1130C50D491F901ED5AFC4FC491CC23C9F0162F5D
S1130C6081110E94B705EC2FF0E0EE0FFF1FE95948
S1130C70FC4FA591B4918FB7F894111105C09C91C4
S1130C80ED2FE095E92302C0EC91ED2BEC938FBF9F
S1130C90DF91CF911F910895BF92CF92DF92EF928F
S1130CA0FF920F931F93CF93DF93C82ED62EB42EAB
S1130CB0C7E0D0E0022F10E087E0E82EF12CB1105D
S1130CC005C0C7018C1B9D0B980102C098018C2F95
S1130CD002C0359527958A95E2F7B90161707727A7
S1130CE08C2D0E941C0661E08D2D0E941C0660E084
S1130CF08D2D0E941C06219710F7DF91CF911F9133
S1130D000F91FF90EF90DF90CF90BF9008950895DA
S1130D10EE0FFF1F0590F491E02D0994FB01DC0117
S1130D2002C005900D9241505040D8F7089511E04B
S1130D30CFEBD1E004C0FE010E9488062196C03C9E
S10B0D40D107C9F7F894FFCFB5
S1130D480B000A000C00416E6472656173204275E1
S10B0D58726E69636B6C00000C
S9030000FC
